{
  "address": "0xBB0750AC5E42ae26997aFb14Ebdb35dA73aa1cE3",
  "abi": [
    {
      "inputs": [
        {
          "internalType": "address",
          "name": "owner",
          "type": "address"
        },
        {
          "internalType": "address",
          "name": "_registry",
          "type": "address"
        }
      ],
      "stateMutability": "nonpayable",
      "type": "constructor"
    },
    {
      "anonymous": false,
      "inputs": [
        {
          "indexed": true,
          "internalType": "bytes32",
          "name": "packageId",
          "type": "bytes32"
        },
        {
          "indexed": true,
          "internalType": "address",
          "name": "manager",
          "type": "address"
        }
      ],
      "name": "ManagerAdded",
      "type": "event"
    },
    {
      "anonymous": false,
      "inputs": [
        {
          "indexed": true,
          "internalType": "bytes32",
          "name": "packageId",
          "type": "bytes32"
        },
        {
          "indexed": true,
          "internalType": "address",
          "name": "manager",
          "type": "address"
        }
      ],
      "name": "ManagerRemoved",
      "type": "event"
    },
    {
      "anonymous": false,
      "inputs": [
        {
          "indexed": true,
          "internalType": "address",
          "name": "previousOwner",
          "type": "address"
        },
        {
          "indexed": true,
          "internalType": "address",
          "name": "newOwner",
          "type": "address"
        }
      ],
      "name": "OwnershipTransferred",
      "type": "event"
    },
    {
      "inputs": [
        {
          "internalType": "bytes32",
          "name": "packageId",
          "type": "bytes32"
        },
        {
          "internalType": "address",
          "name": "manager",
          "type": "address"
        }
      ],
      "name": "addManager",
      "outputs": [],
      "stateMutability": "nonpayable",
      "type": "function"
    },
    {
      "inputs": [
        {
          "internalType": "address",
          "name": "_registry",
          "type": "address"
        }
      ],
      "name": "initialize",
      "outputs": [],
      "stateMutability": "nonpayable",
      "type": "function"
    },
    {
      "inputs": [
        {
          "internalType": "bytes32",
          "name": "packageId",
          "type": "bytes32"
        },
        {
          "internalType": "address",
          "name": "ownerOrManager",
          "type": "address"
        }
      ],
      "name": "isAuthorized",
      "outputs": [
        {
          "internalType": "bool",
          "name": "",
          "type": "bool"
        }
      ],
      "stateMutability": "view",
      "type": "function"
    },
    {
      "inputs": [
        {
          "internalType": "bytes32",
          "name": "",
          "type": "bytes32"
        }
      ],
      "name": "managers",
      "outputs": [
        {
          "internalType": "bool",
          "name": "",
          "type": "bool"
        }
      ],
      "stateMutability": "view",
      "type": "function"
    },
    {
      "inputs": [],
      "name": "owner",
      "outputs": [
        {
          "internalType": "address",
          "name": "",
          "type": "address"
        }
      ],
      "stateMutability": "view",
      "type": "function"
    },
    {
      "inputs": [
        {
          "internalType": "bytes32",
          "name": "packageId",
          "type": "bytes32"
        },
        {
          "internalType": "uint256",
          "name": "majorVersion",
          "type": "uint256"
        },
        {
          "internalType": "uint256",
          "name": "minorVersion",
          "type": "uint256"
        },
        {
          "internalType": "uint256",
          "name": "patchVersion",
          "type": "uint256"
        },
        {
          "internalType": "string",
          "name": "packageLocation",
          "type": "string"
        }
      ],
      "name": "proposeVersion",
      "outputs": [],
      "stateMutability": "nonpayable",
      "type": "function"
    },
    {
      "inputs": [],
      "name": "registry",
      "outputs": [
        {
          "internalType": "address",
          "name": "",
          "type": "address"
        }
      ],
      "stateMutability": "view",
      "type": "function"
    },
    {
      "inputs": [
        {
          "internalType": "bytes32",
          "name": "packageId",
          "type": "bytes32"
        },
        {
          "internalType": "address",
          "name": "manager",
          "type": "address"
        }
      ],
      "name": "removeManager",
      "outputs": [],
      "stateMutability": "nonpayable",
      "type": "function"
    },
    {
      "inputs": [],
      "name": "renounceOwnership",
      "outputs": [],
      "stateMutability": "nonpayable",
      "type": "function"
    },
    {
      "inputs": [
        {
          "internalType": "address",
          "name": "newOwner",
          "type": "address"
        }
      ],
      "name": "transferOwnership",
      "outputs": [],
      "stateMutability": "nonpayable",
      "type": "function"
    },
    {
      "inputs": [
        {
          "internalType": "address",
          "name": "_registry",
          "type": "address"
        }
      ],
      "name": "updateRegistry",
      "outputs": [],
      "stateMutability": "nonpayable",
      "type": "function"
    },
    {
      "inputs": [
        {
          "internalType": "address",
          "name": "_votingMachine",
          "type": "address"
        }
      ],
      "name": "updateVotingMachine",
      "outputs": [],
      "stateMutability": "nonpayable",
      "type": "function"
    },
    {
      "inputs": [],
      "name": "votingMachine",
      "outputs": [
        {
          "internalType": "address",
          "name": "",
          "type": "address"
        }
      ],
      "stateMutability": "view",
      "type": "function"
    }
  ],
  "transactionHash": "0x60bc32b18a1c3a6a1d8cf4c3a240e99d48b405d43ec6ba1f7f931ea620d4596c",
  "args": [
    "0x72e37d393c70823113a7176aC1F7C579d2C5623E",
    "0xF492Ab88C674cE33D5c6B9660A46B7e406469E6d"
  ],
  "solcInputHash": "4fcf1c928f6c8d097085f4f5b67cedea",
  "bytecode": "0x60806040523480156200001157600080fd5b5060405162001f4338038062001f43833981810160405281019062000037919062000698565b81816200004a816200006560201b60201c565b6200005b826200019660201b60201c565b50505050620008da565b600060019054906101000a900460ff16806200008c575060008054906101000a900460ff16155b620000ce576040517f08c379a0000000000000000000000000000000000000000000000000000000008152600401620000c59062000770565b60405180910390fd5b60008060019054906101000a900460ff1615905080156200011f576001600060016101000a81548160ff02191690831515021790555060016000806101000a81548160ff0219169083151502179055505b6200012f620002ac60201b60201c565b81606560006101000a81548173ffffffffffffffffffffffffffffffffffffffff021916908373ffffffffffffffffffffffffffffffffffffffff1602179055508015620001925760008060016101000a81548160ff0219169083151502179055505b5050565b620001a6620003ab60201b60201c565b73ffffffffffffffffffffffffffffffffffffffff16620001cc620003b360201b60201c565b73ffffffffffffffffffffffffffffffffffffffff161462000225576040517f08c379a00000000000000000000000000000000000000000000000000000000081526004016200021c9062000792565b60405180910390fd5b600073ffffffffffffffffffffffffffffffffffffffff168173ffffffffffffffffffffffffffffffffffffffff16141562000298576040517f08c379a00000000000000000000000000000000000000000000000000000000081526004016200028f906200074e565b60405180910390fd5b620002a981620003dd60201b60201c565b50565b600060019054906101000a900460ff1680620002d3575060008054906101000a900460ff16155b62000315576040517f08c379a00000000000000000000000000000000000000000000000000000000081526004016200030c9062000770565b60405180910390fd5b60008060019054906101000a900460ff16159050801562000366576001600060016101000a81548160ff02191690831515021790555060016000806101000a81548160ff0219169083151502179055505b62000376620004a360201b60201c565b620003866200058260201b60201c565b8015620003a85760008060016101000a81548160ff0219169083151502179055505b50565b600033905090565b6000603360009054906101000a900473ffffffffffffffffffffffffffffffffffffffff16905090565b6000603360009054906101000a900473ffffffffffffffffffffffffffffffffffffffff16905081603360006101000a81548173ffffffffffffffffffffffffffffffffffffffff021916908373ffffffffffffffffffffffffffffffffffffffff1602179055508173ffffffffffffffffffffffffffffffffffffffff168173ffffffffffffffffffffffffffffffffffffffff167f8be0079c531659141344cd1fd0a4f28419497f9722a3daafe3b4186f6b6457e060405160405180910390a35050565b600060019054906101000a900460ff1680620004ca575060008054906101000a900460ff16155b6200050c576040517f08c379a0000000000000000000000000000000000000000000000000000000008152600401620005039062000770565b60405180910390fd5b60008060019054906101000a900460ff1615905080156200055d576001600060016101000a81548160ff02191690831515021790555060016000806101000a81548160ff0219169083151502179055505b80156200057f5760008060016101000a81548160ff0219169083151502179055505b50565b600060019054906101000a900460ff1680620005a9575060008054906101000a900460ff16155b620005eb576040517f08c379a0000000000000000000000000000000000000000000000000000000008152600401620005e29062000770565b60405180910390fd5b60008060019054906101000a900460ff1615905080156200063c576001600060016101000a81548160ff02191690831515021790555060016000806101000a81548160ff0219169083151502179055505b6200065c62000650620003ab60201b60201c565b620003dd60201b60201c565b80156200067e5760008060016101000a81548160ff0219169083151502179055505b50565b6000815190506200069281620008c0565b92915050565b60008060408385031215620006ac57600080fd5b6000620006bc8582860162000681565b9250506020620006cf8582860162000681565b9150509250929050565b6000620006e8602683620007b4565b9150620006f582620007f9565b604082019050919050565b60006200070f602e83620007b4565b91506200071c8262000848565b604082019050919050565b600062000736602083620007b4565b9150620007438262000897565b602082019050919050565b600060208201905081810360008301526200076981620006d9565b9050919050565b600060208201905081810360008301526200078b8162000700565b9050919050565b60006020820190508181036000830152620007ad8162000727565b9050919050565b600082825260208201905092915050565b6000620007d282620007d9565b9050919050565b600073ffffffffffffffffffffffffffffffffffffffff82169050919050565b7f4f776e61626c653a206e6577206f776e657220697320746865207a65726f206160008201527f6464726573730000000000000000000000000000000000000000000000000000602082015250565b7f496e697469616c697a61626c653a20636f6e747261637420697320616c72656160008201527f647920696e697469616c697a6564000000000000000000000000000000000000602082015250565b7f4f776e61626c653a2063616c6c6572206973206e6f7420746865206f776e6572600082015250565b620008cb81620007c5565b8114620008d757600080fd5b50565b61165980620008ea6000396000f3fe608060405234801561001057600080fd5b50600436106100cf5760003560e01c80637b1039991161008c578063b0b052c211610066578063b0b052c2146101ec578063b21aa96c14610208578063c4d66de814610224578063f2fde38b14610240576100cf565b80637b103999146101805780638da5cb5b1461019e578063956db465146101bc576100cf565b80631a5da6c8146100d45780632d33d2e3146100f05780633edf7ca11461010c57806354676f2c1461012a578063684efdfd1461015a578063715018a614610176575b600080fd5b6100ee60048036038101906100e99190610fa5565b61025c565b005b61010a60048036038101906101059190610fa5565b61031c565b005b6101146103dc565b6040516101219190611260565b60405180910390f35b610144600480360381019061013f9190610ff7565b610402565b604051610151919061127b565b60405180910390f35b610174600480360381019061016f919061105c565b610422565b005b61017e610514565b005b61018861059c565b6040516101959190611260565b60405180910390f35b6101a66105c2565b6040516101b39190611260565b60405180910390f35b6101d660048036038101906101d19190611020565b6105ec565b6040516101e3919061127b565b60405180910390f35b61020660048036038101906102019190611020565b61068b565b005b610222600480360381019061021d9190611020565b6107a5565b005b61023e60048036038101906102399190610fa5565b6108bf565b005b61025a60048036038101906102559190610fa5565b6109e2565b005b610264610ada565b73ffffffffffffffffffffffffffffffffffffffff166102826105c2565b73ffffffffffffffffffffffffffffffffffffffff16146102d8576040517f08c379a00000000000000000000000000000000000000000000000000000000081526004016102cf9061139b565b60405180910390fd5b80606560006101000a81548173ffffffffffffffffffffffffffffffffffffffff021916908373ffffffffffffffffffffffffffffffffffffffff16021790555050565b610324610ada565b73ffffffffffffffffffffffffffffffffffffffff166103426105c2565b73ffffffffffffffffffffffffffffffffffffffff1614610398576040517f08c379a000000000000000000000000000000000000000000000000000000000815260040161038f9061139b565b60405180910390fd5b80606660006101000a81548173ffffffffffffffffffffffffffffffffffffffff021916908373ffffffffffffffffffffffffffffffffffffffff16021790555050565b606660009054906101000a900473ffffffffffffffffffffffffffffffffffffffff1681565b60676020528060005260406000206000915054906101000a900460ff1681565b8561042d81336105ec565b61046c576040517f08c379a00000000000000000000000000000000000000000000000000000000081526004016104639061135b565b60405180910390fd5b6000606660009054906101000a900473ffffffffffffffffffffffffffffffffffffffff1690508073ffffffffffffffffffffffffffffffffffffffff1663db45078b898989898989336040518863ffffffff1660e01b81526004016104d897969594939291906112b1565b600060405180830381600087803b1580156104f257600080fd5b505af1158015610506573d6000803e3d6000fd5b505050505050505050505050565b61051c610ada565b73ffffffffffffffffffffffffffffffffffffffff1661053a6105c2565b73ffffffffffffffffffffffffffffffffffffffff1614610590576040517f08c379a00000000000000000000000000000000000000000000000000000000081526004016105879061139b565b60405180910390fd5b61059a6000610ae2565b565b606560009054906101000a900473ffffffffffffffffffffffffffffffffffffffff1681565b6000603360009054906101000a900473ffffffffffffffffffffffffffffffffffffffff16905090565b6000808383604051602001610602929190611234565b6040516020818303038152906040528051906020012090506067600082815260200190815260200160002060009054906101000a900460ff161561064a576001915050610685565b8273ffffffffffffffffffffffffffffffffffffffff1661066a85610ba8565b73ffffffffffffffffffffffffffffffffffffffff16149150505b92915050565b813373ffffffffffffffffffffffffffffffffffffffff166106ac82610ba8565b73ffffffffffffffffffffffffffffffffffffffff1614610702576040517f08c379a00000000000000000000000000000000000000000000000000000000081526004016106f99061133b565b60405180910390fd5b60008383604051602001610717929190611234565b60405160208183030381529060405280519060200120905060016067600083815260200190815260200160002060006101000a81548160ff0219169083151502179055508273ffffffffffffffffffffffffffffffffffffffff16847fe46710533b73e7bc8e141ac9ce789902221e6df8529e50ffafa7084c7461dd9f60405160405180910390a350505050565b813373ffffffffffffffffffffffffffffffffffffffff166107c682610ba8565b73ffffffffffffffffffffffffffffffffffffffff161461081c576040517f08c379a00000000000000000000000000000000000000000000000000000000081526004016108139061133b565b60405180910390fd5b60008383604051602001610831929190611234565b60405160208183030381529060405280519060200120905060006067600083815260200190815260200160002060006101000a81548160ff0219169083151502179055508273ffffffffffffffffffffffffffffffffffffffff16847f09f3834f8c364f78dd28fd9b79eefacfae7a3d41e6f9008d88babfd22bd1f24960405160405180910390a350505050565b600060019054906101000a900460ff16806108e5575060008054906101000a900460ff16155b610924576040517f08c379a000000000000000000000000000000000000000000000000000000000815260040161091b9061137b565b60405180910390fd5b60008060019054906101000a900460ff161590508015610974576001600060016101000a81548160ff02191690831515021790555060016000806101000a81548160ff0219169083151502179055505b61097c610c5c565b81606560006101000a81548173ffffffffffffffffffffffffffffffffffffffff021916908373ffffffffffffffffffffffffffffffffffffffff16021790555080156109de5760008060016101000a81548160ff0219169083151502179055505b5050565b6109ea610ada565b73ffffffffffffffffffffffffffffffffffffffff16610a086105c2565b73ffffffffffffffffffffffffffffffffffffffff1614610a5e576040517f08c379a0000000000000000000000000000000000000000000000000000000008152600401610a559061139b565b60405180910390fd5b600073ffffffffffffffffffffffffffffffffffffffff168173ffffffffffffffffffffffffffffffffffffffff161415610ace576040517f08c379a0000000000000000000000000000000000000000000000000000000008152600401610ac59061131b565b60405180910390fd5b610ad781610ae2565b50565b600033905090565b6000603360009054906101000a900473ffffffffffffffffffffffffffffffffffffffff16905081603360006101000a81548173ffffffffffffffffffffffffffffffffffffffff021916908373ffffffffffffffffffffffffffffffffffffffff1602179055508173ffffffffffffffffffffffffffffffffffffffff168173ffffffffffffffffffffffffffffffffffffffff167f8be0079c531659141344cd1fd0a4f28419497f9722a3daafe3b4186f6b6457e060405160405180910390a35050565b6000606560009054906101000a900473ffffffffffffffffffffffffffffffffffffffff1673ffffffffffffffffffffffffffffffffffffffff1663427a94d4836040518263ffffffff1660e01b8152600401610c059190611296565b60206040518083038186803b158015610c1d57600080fd5b505afa158015610c31573d6000803e3d6000fd5b505050506040513d601f19601f82011682018060405250810190610c559190610fce565b9050919050565b600060019054906101000a900460ff1680610c82575060008054906101000a900460ff16155b610cc1576040517f08c379a0000000000000000000000000000000000000000000000000000000008152600401610cb89061137b565b60405180910390fd5b60008060019054906101000a900460ff161590508015610d11576001600060016101000a81548160ff02191690831515021790555060016000806101000a81548160ff0219169083151502179055505b610d19610d45565b610d21610e1e565b8015610d425760008060016101000a81548160ff0219169083151502179055505b50565b600060019054906101000a900460ff1680610d6b575060008054906101000a900460ff16155b610daa576040517f08c379a0000000000000000000000000000000000000000000000000000000008152600401610da19061137b565b60405180910390fd5b60008060019054906101000a900460ff161590508015610dfa576001600060016101000a81548160ff02191690831515021790555060016000806101000a81548160ff0219169083151502179055505b8015610e1b5760008060016101000a81548160ff0219169083151502179055505b50565b600060019054906101000a900460ff1680610e44575060008054906101000a900460ff16155b610e83576040517f08c379a0000000000000000000000000000000000000000000000000000000008152600401610e7a9061137b565b60405180910390fd5b60008060019054906101000a900460ff161590508015610ed3576001600060016101000a81548160ff02191690831515021790555060016000806101000a81548160ff0219169083151502179055505b610ee3610ede610ada565b610ae2565b8015610f045760008060016101000a81548160ff0219169083151502179055505b50565b600081359050610f16816115de565b92915050565b600081519050610f2b816115de565b92915050565b600081359050610f40816115f5565b92915050565b60008083601f840112610f5857600080fd5b8235905067ffffffffffffffff811115610f7157600080fd5b602083019150836001820283011115610f8957600080fd5b9250929050565b600081359050610f9f8161160c565b92915050565b600060208284031215610fb757600080fd5b6000610fc584828501610f07565b91505092915050565b600060208284031215610fe057600080fd5b6000610fee84828501610f1c565b91505092915050565b60006020828403121561100957600080fd5b600061101784828501610f31565b91505092915050565b6000806040838503121561103357600080fd5b600061104185828601610f31565b925050602061105285828601610f07565b9150509250929050565b60008060008060008060a0878903121561107557600080fd5b600061108389828a01610f31565b965050602061109489828a01610f90565b95505060406110a589828a01610f90565b94505060606110b689828a01610f90565b935050608087013567ffffffffffffffff8111156110d357600080fd5b6110df89828a01610f46565b92509250509295509295509295565b6110f7816113cc565b82525050565b61110e611109826113cc565b61142d565b82525050565b61111d816113de565b82525050565b61112c816113ea565b82525050565b61114361113e826113ea565b61143f565b82525050565b600061115583856113bb565b935061116283858461141e565b61116b8361145b565b840190509392505050565b60006111836026836113bb565b915061118e82611479565b604082019050919050565b60006111a66034836113bb565b91506111b1826114c8565b604082019050919050565b60006111c96026836113bb565b91506111d482611517565b604082019050919050565b60006111ec602e836113bb565b91506111f782611566565b604082019050919050565b600061120f6020836113bb565b915061121a826115b5565b602082019050919050565b61122e81611414565b82525050565b60006112408285611132565b60208201915061125082846110fd565b6014820191508190509392505050565b600060208201905061127560008301846110ee565b92915050565b60006020820190506112906000830184611114565b92915050565b60006020820190506112ab6000830184611123565b92915050565b600060c0820190506112c6600083018a611123565b6112d36020830189611225565b6112e06040830188611225565b6112ed6060830187611225565b8181036080830152611300818587611149565b905061130f60a08301846110ee565b98975050505050505050565b6000602082019050818103600083015261133481611176565b9050919050565b6000602082019050818103600083015261135481611199565b9050919050565b60006020820190508181036000830152611374816111bc565b9050919050565b60006020820190508181036000830152611394816111df565b9050919050565b600060208201905081810360008301526113b481611202565b9050919050565b600082825260208201905092915050565b60006113d7826113f4565b9050919050565b60008115159050919050565b6000819050919050565b600073ffffffffffffffffffffffffffffffffffffffff82169050919050565b6000819050919050565b82818337600083830152505050565b600061143882611449565b9050919050565b6000819050919050565b60006114548261146c565b9050919050565b6000601f19601f8301169050919050565b60008160601b9050919050565b7f4f776e61626c653a206e6577206f776e657220697320746865207a65726f206160008201527f6464726573730000000000000000000000000000000000000000000000000000602082015250565b7f596f7520646f206e6f7420686176652061636365737320746f2074686520646f60008201527f6d61696e206f662074686973207061636b616765000000000000000000000000602082015250565b7f596f7520646f206e6f7420686176652061636365737320746f2074686973207060008201527f61636b6167650000000000000000000000000000000000000000000000000000602082015250565b7f496e697469616c697a61626c653a20636f6e747261637420697320616c72656160008201527f647920696e697469616c697a6564000000000000000000000000000000000000602082015250565b7f4f776e61626c653a2063616c6c6572206973206e6f7420746865206f776e6572600082015250565b6115e7816113cc565b81146115f257600080fd5b50565b6115fe816113ea565b811461160957600080fd5b50565b61161581611414565b811461162057600080fd5b5056fea26469706673582212205c550bfdf0cd019af768e0ccd1893d5460761ccc7cda0a008816bf984ffb6b1064736f6c63430008040033",
  "devdoc": {
    "kind": "dev",
    "methods": {
      "owner()": {
        "details": "Returns the address of the current owner."
      },
      "renounceOwnership()": {
        "details": "Leaves the contract without owner. It will not be possible to call `onlyOwner` functions anymore. Can only be called by the current owner. NOTE: Renouncing ownership will leave the contract without an owner, thereby removing any functionality that is only available to the owner."
      },
      "transferOwnership(address)": {
        "details": "Transfers ownership of the contract to a new account (`newOwner`). Can only be called by the current owner."
      }
    },
    "version": 1
  },
  "userdoc": {
    "kind": "user",
    "methods": {},
    "version": 1
  },
  "storageLayout": {
    "storage": [
      {
        "astId": 5319,
        "contract": "contracts/versioning/registrar/PolywrapRegistrar.sol:PolywrapRegistrar",
        "label": "_initialized",
        "offset": 0,
        "slot": "0",
        "type": "t_bool"
      },
      {
        "astId": 5322,
        "contract": "contracts/versioning/registrar/PolywrapRegistrar.sol:PolywrapRegistrar",
        "label": "_initializing",
        "offset": 1,
        "slot": "0",
        "type": "t_bool"
      },
      {
        "astId": 5402,
        "contract": "contracts/versioning/registrar/PolywrapRegistrar.sol:PolywrapRegistrar",
        "label": "__gap",
        "offset": 0,
        "slot": "1",
        "type": "t_array(t_uint256)50_storage"
      },
      {
        "astId": 5199,
        "contract": "contracts/versioning/registrar/PolywrapRegistrar.sol:PolywrapRegistrar",
        "label": "_owner",
        "offset": 0,
        "slot": "51",
        "type": "t_address"
      },
      {
        "astId": 5312,
        "contract": "contracts/versioning/registrar/PolywrapRegistrar.sol:PolywrapRegistrar",
        "label": "__gap",
        "offset": 0,
        "slot": "52",
        "type": "t_array(t_uint256)49_storage"
      },
      {
        "astId": 10634,
        "contract": "contracts/versioning/registrar/PolywrapRegistrar.sol:PolywrapRegistrar",
        "label": "registry",
        "offset": 0,
        "slot": "101",
        "type": "t_address"
      },
      {
        "astId": 10636,
        "contract": "contracts/versioning/registrar/PolywrapRegistrar.sol:PolywrapRegistrar",
        "label": "votingMachine",
        "offset": 0,
        "slot": "102",
        "type": "t_address"
      },
      {
        "astId": 10640,
        "contract": "contracts/versioning/registrar/PolywrapRegistrar.sol:PolywrapRegistrar",
        "label": "managers",
        "offset": 0,
        "slot": "103",
        "type": "t_mapping(t_bytes32,t_bool)"
      }
    ],
    "types": {
      "t_address": {
        "encoding": "inplace",
        "label": "address",
        "numberOfBytes": "20"
      },
      "t_array(t_uint256)49_storage": {
        "base": "t_uint256",
        "encoding": "inplace",
        "label": "uint256[49]",
        "numberOfBytes": "1568"
      },
      "t_array(t_uint256)50_storage": {
        "base": "t_uint256",
        "encoding": "inplace",
        "label": "uint256[50]",
        "numberOfBytes": "1600"
      },
      "t_bool": {
        "encoding": "inplace",
        "label": "bool",
        "numberOfBytes": "1"
      },
      "t_bytes32": {
        "encoding": "inplace",
        "label": "bytes32",
        "numberOfBytes": "32"
      },
      "t_mapping(t_bytes32,t_bool)": {
        "encoding": "mapping",
        "key": "t_bytes32",
        "label": "mapping(bytes32 => bool)",
        "numberOfBytes": "32",
        "value": "t_bool"
      },
      "t_uint256": {
        "encoding": "inplace",
        "label": "uint256",
        "numberOfBytes": "32"
      }
    }
  }
}