{
  "address": "0xa2F6E6029638cCb484A2ccb6414499aD3e825CaC",
  "abi": [
    {
      "inputs": [
        {
          "internalType": "contract ENS",
          "name": "_ens",
          "type": "address"
        },
        {
          "internalType": "bytes32",
          "name": "_baseNode",
          "type": "bytes32"
        }
      ],
      "stateMutability": "nonpayable",
      "type": "constructor"
    },
    {
      "anonymous": false,
      "inputs": [
        {
          "indexed": true,
          "internalType": "address",
          "name": "owner",
          "type": "address"
        },
        {
          "indexed": true,
          "internalType": "address",
          "name": "approved",
          "type": "address"
        },
        {
          "indexed": true,
          "internalType": "uint256",
          "name": "tokenId",
          "type": "uint256"
        }
      ],
      "name": "Approval",
      "type": "event"
    },
    {
      "anonymous": false,
      "inputs": [
        {
          "indexed": true,
          "internalType": "address",
          "name": "owner",
          "type": "address"
        },
        {
          "indexed": true,
          "internalType": "address",
          "name": "operator",
          "type": "address"
        },
        {
          "indexed": false,
          "internalType": "bool",
          "name": "approved",
          "type": "bool"
        }
      ],
      "name": "ApprovalForAll",
      "type": "event"
    },
    {
      "anonymous": false,
      "inputs": [
        {
          "indexed": true,
          "internalType": "address",
          "name": "controller",
          "type": "address"
        }
      ],
      "name": "ControllerAdded",
      "type": "event"
    },
    {
      "anonymous": false,
      "inputs": [
        {
          "indexed": true,
          "internalType": "address",
          "name": "controller",
          "type": "address"
        }
      ],
      "name": "ControllerRemoved",
      "type": "event"
    },
    {
      "anonymous": false,
      "inputs": [
        {
          "indexed": true,
          "internalType": "uint256",
          "name": "id",
          "type": "uint256"
        },
        {
          "indexed": true,
          "internalType": "address",
          "name": "owner",
          "type": "address"
        },
        {
          "indexed": false,
          "internalType": "uint256",
          "name": "expires",
          "type": "uint256"
        }
      ],
      "name": "NameMigrated",
      "type": "event"
    },
    {
      "anonymous": false,
      "inputs": [
        {
          "indexed": true,
          "internalType": "uint256",
          "name": "id",
          "type": "uint256"
        },
        {
          "indexed": true,
          "internalType": "address",
          "name": "owner",
          "type": "address"
        },
        {
          "indexed": false,
          "internalType": "uint256",
          "name": "expires",
          "type": "uint256"
        }
      ],
      "name": "NameRegistered",
      "type": "event"
    },
    {
      "anonymous": false,
      "inputs": [
        {
          "indexed": true,
          "internalType": "uint256",
          "name": "id",
          "type": "uint256"
        },
        {
          "indexed": false,
          "internalType": "uint256",
          "name": "expires",
          "type": "uint256"
        }
      ],
      "name": "NameRenewed",
      "type": "event"
    },
    {
      "anonymous": false,
      "inputs": [
        {
          "indexed": true,
          "internalType": "address",
          "name": "previousOwner",
          "type": "address"
        },
        {
          "indexed": true,
          "internalType": "address",
          "name": "newOwner",
          "type": "address"
        }
      ],
      "name": "OwnershipTransferred",
      "type": "event"
    },
    {
      "anonymous": false,
      "inputs": [
        {
          "indexed": true,
          "internalType": "address",
          "name": "from",
          "type": "address"
        },
        {
          "indexed": true,
          "internalType": "address",
          "name": "to",
          "type": "address"
        },
        {
          "indexed": true,
          "internalType": "uint256",
          "name": "tokenId",
          "type": "uint256"
        }
      ],
      "name": "Transfer",
      "type": "event"
    },
    {
      "inputs": [],
      "name": "GRACE_PERIOD",
      "outputs": [
        {
          "internalType": "uint256",
          "name": "",
          "type": "uint256"
        }
      ],
      "stateMutability": "view",
      "type": "function"
    },
    {
      "inputs": [
        {
          "internalType": "address",
          "name": "controller",
          "type": "address"
        }
      ],
      "name": "addController",
      "outputs": [],
      "stateMutability": "nonpayable",
      "type": "function"
    },
    {
      "inputs": [
        {
          "internalType": "address",
          "name": "to",
          "type": "address"
        },
        {
          "internalType": "uint256",
          "name": "tokenId",
          "type": "uint256"
        }
      ],
      "name": "approve",
      "outputs": [],
      "stateMutability": "nonpayable",
      "type": "function"
    },
    {
      "inputs": [
        {
          "internalType": "uint256",
          "name": "id",
          "type": "uint256"
        }
      ],
      "name": "available",
      "outputs": [
        {
          "internalType": "bool",
          "name": "",
          "type": "bool"
        }
      ],
      "stateMutability": "view",
      "type": "function"
    },
    {
      "inputs": [
        {
          "internalType": "address",
          "name": "owner",
          "type": "address"
        }
      ],
      "name": "balanceOf",
      "outputs": [
        {
          "internalType": "uint256",
          "name": "",
          "type": "uint256"
        }
      ],
      "stateMutability": "view",
      "type": "function"
    },
    {
      "inputs": [],
      "name": "baseNode",
      "outputs": [
        {
          "internalType": "bytes32",
          "name": "",
          "type": "bytes32"
        }
      ],
      "stateMutability": "view",
      "type": "function"
    },
    {
      "inputs": [
        {
          "internalType": "address",
          "name": "",
          "type": "address"
        }
      ],
      "name": "controllers",
      "outputs": [
        {
          "internalType": "bool",
          "name": "",
          "type": "bool"
        }
      ],
      "stateMutability": "view",
      "type": "function"
    },
    {
      "inputs": [],
      "name": "ens",
      "outputs": [
        {
          "internalType": "contract ENS",
          "name": "",
          "type": "address"
        }
      ],
      "stateMutability": "view",
      "type": "function"
    },
    {
      "inputs": [
        {
          "internalType": "uint256",
          "name": "tokenId",
          "type": "uint256"
        }
      ],
      "name": "getApproved",
      "outputs": [
        {
          "internalType": "address",
          "name": "",
          "type": "address"
        }
      ],
      "stateMutability": "view",
      "type": "function"
    },
    {
      "inputs": [
        {
          "internalType": "address",
          "name": "owner",
          "type": "address"
        },
        {
          "internalType": "address",
          "name": "operator",
          "type": "address"
        }
      ],
      "name": "isApprovedForAll",
      "outputs": [
        {
          "internalType": "bool",
          "name": "",
          "type": "bool"
        }
      ],
      "stateMutability": "view",
      "type": "function"
    },
    {
      "inputs": [],
      "name": "name",
      "outputs": [
        {
          "internalType": "string",
          "name": "",
          "type": "string"
        }
      ],
      "stateMutability": "view",
      "type": "function"
    },
    {
      "inputs": [
        {
          "internalType": "uint256",
          "name": "id",
          "type": "uint256"
        }
      ],
      "name": "nameExpires",
      "outputs": [
        {
          "internalType": "uint256",
          "name": "",
          "type": "uint256"
        }
      ],
      "stateMutability": "view",
      "type": "function"
    },
    {
      "inputs": [],
      "name": "owner",
      "outputs": [
        {
          "internalType": "address",
          "name": "",
          "type": "address"
        }
      ],
      "stateMutability": "view",
      "type": "function"
    },
    {
      "inputs": [
        {
          "internalType": "uint256",
          "name": "tokenId",
          "type": "uint256"
        }
      ],
      "name": "ownerOf",
      "outputs": [
        {
          "internalType": "address",
          "name": "",
          "type": "address"
        }
      ],
      "stateMutability": "view",
      "type": "function"
    },
    {
      "inputs": [
        {
          "internalType": "uint256",
          "name": "id",
          "type": "uint256"
        },
        {
          "internalType": "address",
          "name": "owner",
          "type": "address"
        }
      ],
      "name": "reclaim",
      "outputs": [],
      "stateMutability": "nonpayable",
      "type": "function"
    },
    {
      "inputs": [
        {
          "internalType": "uint256",
          "name": "id",
          "type": "uint256"
        },
        {
          "internalType": "address",
          "name": "owner",
          "type": "address"
        },
        {
          "internalType": "uint256",
          "name": "duration",
          "type": "uint256"
        }
      ],
      "name": "register",
      "outputs": [
        {
          "internalType": "uint256",
          "name": "",
          "type": "uint256"
        }
      ],
      "stateMutability": "nonpayable",
      "type": "function"
    },
    {
      "inputs": [
        {
          "internalType": "uint256",
          "name": "id",
          "type": "uint256"
        },
        {
          "internalType": "address",
          "name": "owner",
          "type": "address"
        },
        {
          "internalType": "uint256",
          "name": "duration",
          "type": "uint256"
        }
      ],
      "name": "registerOnly",
      "outputs": [
        {
          "internalType": "uint256",
          "name": "",
          "type": "uint256"
        }
      ],
      "stateMutability": "nonpayable",
      "type": "function"
    },
    {
      "inputs": [
        {
          "internalType": "address",
          "name": "controller",
          "type": "address"
        }
      ],
      "name": "removeController",
      "outputs": [],
      "stateMutability": "nonpayable",
      "type": "function"
    },
    {
      "inputs": [
        {
          "internalType": "uint256",
          "name": "id",
          "type": "uint256"
        },
        {
          "internalType": "uint256",
          "name": "duration",
          "type": "uint256"
        }
      ],
      "name": "renew",
      "outputs": [
        {
          "internalType": "uint256",
          "name": "",
          "type": "uint256"
        }
      ],
      "stateMutability": "nonpayable",
      "type": "function"
    },
    {
      "inputs": [],
      "name": "renounceOwnership",
      "outputs": [],
      "stateMutability": "nonpayable",
      "type": "function"
    },
    {
      "inputs": [
        {
          "internalType": "address",
          "name": "from",
          "type": "address"
        },
        {
          "internalType": "address",
          "name": "to",
          "type": "address"
        },
        {
          "internalType": "uint256",
          "name": "tokenId",
          "type": "uint256"
        }
      ],
      "name": "safeTransferFrom",
      "outputs": [],
      "stateMutability": "nonpayable",
      "type": "function"
    },
    {
      "inputs": [
        {
          "internalType": "address",
          "name": "from",
          "type": "address"
        },
        {
          "internalType": "address",
          "name": "to",
          "type": "address"
        },
        {
          "internalType": "uint256",
          "name": "tokenId",
          "type": "uint256"
        },
        {
          "internalType": "bytes",
          "name": "_data",
          "type": "bytes"
        }
      ],
      "name": "safeTransferFrom",
      "outputs": [],
      "stateMutability": "nonpayable",
      "type": "function"
    },
    {
      "inputs": [
        {
          "internalType": "address",
          "name": "operator",
          "type": "address"
        },
        {
          "internalType": "bool",
          "name": "approved",
          "type": "bool"
        }
      ],
      "name": "setApprovalForAll",
      "outputs": [],
      "stateMutability": "nonpayable",
      "type": "function"
    },
    {
      "inputs": [
        {
          "internalType": "address",
          "name": "resolver",
          "type": "address"
        }
      ],
      "name": "setResolver",
      "outputs": [],
      "stateMutability": "nonpayable",
      "type": "function"
    },
    {
      "inputs": [
        {
          "internalType": "bytes4",
          "name": "interfaceID",
          "type": "bytes4"
        }
      ],
      "name": "supportsInterface",
      "outputs": [
        {
          "internalType": "bool",
          "name": "",
          "type": "bool"
        }
      ],
      "stateMutability": "view",
      "type": "function"
    },
    {
      "inputs": [],
      "name": "symbol",
      "outputs": [
        {
          "internalType": "string",
          "name": "",
          "type": "string"
        }
      ],
      "stateMutability": "view",
      "type": "function"
    },
    {
      "inputs": [
        {
          "internalType": "uint256",
          "name": "tokenId",
          "type": "uint256"
        }
      ],
      "name": "tokenURI",
      "outputs": [
        {
          "internalType": "string",
          "name": "",
          "type": "string"
        }
      ],
      "stateMutability": "view",
      "type": "function"
    },
    {
      "inputs": [
        {
          "internalType": "address",
          "name": "from",
          "type": "address"
        },
        {
          "internalType": "address",
          "name": "to",
          "type": "address"
        },
        {
          "internalType": "uint256",
          "name": "tokenId",
          "type": "uint256"
        }
      ],
      "name": "transferFrom",
      "outputs": [],
      "stateMutability": "nonpayable",
      "type": "function"
    },
    {
      "inputs": [
        {
          "internalType": "address",
          "name": "newOwner",
          "type": "address"
        }
      ],
      "name": "transferOwnership",
      "outputs": [],
      "stateMutability": "nonpayable",
      "type": "function"
    }
  ],
  "transactionHash": "0xbb61ab39745855a3810b1097262560a109f1a3eefe9de90ab51c2837f564d1ce",
  "args": [
    "0x2B2f78c5BF6D9C12Ee1225D5F374aa91204580c3",
    "0x93cdeb708b7545dc668eb9280176169d1c33cfd8ed6f04690a0bcc88a93fc4ae"
  ],
  "solcInputHash": "ae411f1ffc5dbe946d79e65567ed4342",
  "bytecode": "0x60806040523480156200001157600080fd5b5060405162003f6238038062003f628339818101604052810190620000379190620002a9565b81816040518060200160405280600081525060405180602001604052806000815250620000796200006d620000ff60201b60201c565b6200010760201b60201c565b816001908051906020019062000091929190620001cb565b508060029080519060200190620000aa929190620001cb565b50505081600760006101000a81548173ffffffffffffffffffffffffffffffffffffffff021916908373ffffffffffffffffffffffffffffffffffffffff1602179055508060088190555050505050620003d5565b600033905090565b60008060009054906101000a900473ffffffffffffffffffffffffffffffffffffffff169050816000806101000a81548173ffffffffffffffffffffffffffffffffffffffff021916908373ffffffffffffffffffffffffffffffffffffffff1602179055508173ffffffffffffffffffffffffffffffffffffffff168173ffffffffffffffffffffffffffffffffffffffff167f8be0079c531659141344cd1fd0a4f28419497f9722a3daafe3b4186f6b6457e060405160405180910390a35050565b828054620001d9906200033c565b90600052602060002090601f016020900481019282620001fd576000855562000249565b82601f106200021857805160ff191683800117855562000249565b8280016001018555821562000249579182015b82811115620002485782518255916020019190600101906200022b565b5b5090506200025891906200025c565b5090565b5b80821115620002775760008160009055506001016200025d565b5090565b6000815190506200028c81620003a1565b92915050565b600081519050620002a381620003bb565b92915050565b60008060408385031215620002bd57600080fd5b6000620002cd8582860162000292565b9250506020620002e0858286016200027b565b9150509250929050565b6000620002f7826200031c565b9050919050565b6000819050919050565b60006200031582620002ea565b9050919050565b600073ffffffffffffffffffffffffffffffffffffffff82169050919050565b600060028204905060018216806200035557607f821691505b602082108114156200036c576200036b62000372565b5b50919050565b7f4e487b7100000000000000000000000000000000000000000000000000000000600052602260045260246000fd5b620003ac81620002fe565b8114620003b857600080fd5b50565b620003c68162000308565b8114620003d257600080fd5b50565b613b7d80620003e56000396000f3fe608060405234801561001057600080fd5b50600436106101cf5760003560e01c806395d89b4111610104578063c87b56dd116100a2578063e985e9c511610071578063e985e9c514610552578063f2fde38b14610582578063f6a74ed71461059e578063fca247ac146105ba576101cf565b8063c87b56dd146104a4578063d6e4fa86146104d4578063da8c229e14610504578063ddf7fcb014610534576101cf565b8063a7fc7a07116100de578063a7fc7a071461041e578063b88d4fde1461043a578063c1a287e214610456578063c475abff14610474576101cf565b806395d89b41146103b457806396e494e8146103d2578063a22cb46514610402576101cf565b80633f15457f116101715780636352211e1161014b5780636352211e1461032c57806370a082311461035c578063715018a61461038c5780638da5cb5b14610396576101cf565b80633f15457f146102d657806342842e0e146102f45780634e543b2614610310576101cf565b8063095ea7b3116101ad578063095ea7b3146102525780630e297b451461026e57806323b872dd1461029e57806328ed4f6c146102ba576101cf565b806301ffc9a7146101d457806306fdde0314610204578063081812fc14610222575b600080fd5b6101ee60048036038101906101e99190612b53565b6105ea565b6040516101fb919061301b565b60405180910390f35b61020c610834565b60405161021991906130cc565b60405180910390f35b61023c60048036038101906102379190612ba5565b6108c6565b6040516102499190612fb4565b60405180910390f35b61026c60048036038101906102679190612aee565b61094b565b005b61028860048036038101906102839190612c0a565b610a63565b60405161029591906132ce565b60405180910390f35b6102b860048036038101906102b391906129e8565b610a7b565b005b6102d460048036038101906102cf9190612bce565b610adb565b005b6102de610c8d565b6040516102eb91906130b1565b60405180910390f35b61030e600480360381019061030991906129e8565b610cb3565b005b61032a6004803603810190610325919061295a565b610cd3565b005b61034660048036038101906103419190612ba5565b610de3565b6040516103539190612fb4565b60405180910390f35b6103766004803603810190610371919061295a565b610e14565b60405161038391906132ce565b60405180910390f35b610394610ecc565b005b61039e610f54565b6040516103ab9190612fb4565b60405180910390f35b6103bc610f7d565b6040516103c991906130cc565b60405180910390f35b6103ec60048036038101906103e79190612ba5565b61100f565b6040516103f9919061301b565b60405180910390f35b61041c60048036038101906104179190612ab2565b61103c565b005b6104386004803603810190610433919061295a565b6111bd565b005b610454600480360381019061044f9190612a37565b6112d7565b005b61045e611339565b60405161046b91906132ce565b60405180910390f35b61048e60048036038101906104899190612c59565b611340565b60405161049b91906132ce565b60405180910390f35b6104be60048036038101906104b99190612ba5565b611581565b6040516104cb91906130cc565b60405180910390f35b6104ee60048036038101906104e99190612ba5565b611628565b6040516104fb91906132ce565b60405180910390f35b61051e6004803603810190610519919061295a565b611645565b60405161052b919061301b565b60405180910390f35b61053c611665565b6040516105499190613036565b60405180910390f35b61056c600480360381019061056791906129ac565b61166b565b604051610579919061301b565b60405180910390f35b61059c6004803603810190610597919061295a565b6116ff565b005b6105b860048036038101906105b3919061295a565b6117f7565b005b6105d460048036038101906105cf9190612c0a565b611911565b6040516105e191906132ce565b60405180910390f35b60007f01ffc9a7a5cef8baa21ed3c5c0d7e23accb804b619e9333b597f47a0d84076e27bffffffffffffffffffffffffffffffffffffffffffffffffffffffff1916827bffffffffffffffffffffffffffffffffffffffffffffffffffffffff191614806107c557507fb88d4fde60196325a28bb7f99a2582e0b46de55b18761e960c14ad7a320994657f42842e0eb38857a7775b4e7364b2775df7325074d088e7fb39590cd6281184ed7f23b872dd7302113369cda2901243429419bec145408fa8b352b3dd92b66c680b7fe985e9c5c6636c6879256001057b28ccac7718ef0ac56553ff9b926452cab8a37fa22cb4651ab9570f89bb516380c40ce76762284fb1f21337ceaf6adab99e7d4a7f081812fc55e34fdc7cf5d8b5cf4e3621fa6423fde952ec6ab24afdc0d85c0b2e7f095ea7b334ae44009aa867bfb386f5c3b4b443ac6f0ee573fa91c4608fbadfba7f6352211e6566aa027e75ac9dbf2423197fbd9b82b9d981a3ab367d355866aa1c7f70a08231b98ef4ca268c9cc3f6b4590e4bfec28280db06bb5d45e689f2a360be18181818181818187bffffffffffffffffffffffffffffffffffffffffffffffffffffffff1916827bffffffffffffffffffffffffffffffffffffffffffffffffffffffff1916145b8061082d57507f28ed4f6c74b219a5819055dfbcd2f1837c046c364cf01fabb6799e4f440d6f137bffffffffffffffffffffffffffffffffffffffffffffffffffffffff1916827bffffffffffffffffffffffffffffffffffffffffffffffffffffffff1916145b9050919050565b60606001805461084390613521565b80601f016020809104026020016040519081016040528092919081815260200182805461086f90613521565b80156108bc5780601f10610891576101008083540402835291602001916108bc565b820191906000526020600020905b81548152906001019060200180831161089f57829003601f168201915b5050505050905090565b60006108d182611929565b610910576040517f08c379a00000000000000000000000000000000000000000000000000000000081526004016109079061320e565b60405180910390fd5b6005600083815260200190815260200160002060009054906101000a900473ffffffffffffffffffffffffffffffffffffffff169050919050565b600061095682611995565b90508073ffffffffffffffffffffffffffffffffffffffff168373ffffffffffffffffffffffffffffffffffffffff1614156109c7576040517f08c379a00000000000000000000000000000000000000000000000000000000081526004016109be9061328e565b60405180910390fd5b8073ffffffffffffffffffffffffffffffffffffffff166109e6611a47565b73ffffffffffffffffffffffffffffffffffffffff161480610a155750610a1481610a0f611a47565b61166b565b5b610a54576040517f08c379a0000000000000000000000000000000000000000000000000000000008152600401610a4b9061318e565b60405180910390fd5b610a5e8383611a4f565b505050565b6000610a728484846000611b08565b90509392505050565b610a8c610a86611a47565b82611dfc565b610acb576040517f08c379a0000000000000000000000000000000000000000000000000000000008152600401610ac2906132ae565b60405180910390fd5b610ad6838383611e91565b505050565b3073ffffffffffffffffffffffffffffffffffffffff16600760009054906101000a900473ffffffffffffffffffffffffffffffffffffffff1673ffffffffffffffffffffffffffffffffffffffff166302571be36008546040518263ffffffff1660e01b8152600401610b4f9190613036565b60206040518083038186803b158015610b6757600080fd5b505afa158015610b7b573d6000803e3d6000fd5b505050506040513d601f19601f82011682018060405250810190610b9f9190612983565b73ffffffffffffffffffffffffffffffffffffffff1614610bbf57600080fd5b610bc93383611dfc565b610bd257600080fd5b600760009054906101000a900473ffffffffffffffffffffffffffffffffffffffff1673ffffffffffffffffffffffffffffffffffffffff166306ab59236008548460001b846040518463ffffffff1660e01b8152600401610c369392919061307a565b602060405180830381600087803b158015610c5057600080fd5b505af1158015610c64573d6000803e3d6000fd5b505050506040513d601f19601f82011682018060405250810190610c889190612b2a565b505050565b600760009054906101000a900473ffffffffffffffffffffffffffffffffffffffff1681565b610cce838383604051806020016040528060008152506112d7565b505050565b610cdb611a47565b73ffffffffffffffffffffffffffffffffffffffff16610cf9610f54565b73ffffffffffffffffffffffffffffffffffffffff1614610d4f576040517f08c379a0000000000000000000000000000000000000000000000000000000008152600401610d469061322e565b60405180910390fd5b600760009054906101000a900473ffffffffffffffffffffffffffffffffffffffff1673ffffffffffffffffffffffffffffffffffffffff16631896f70a600854836040518363ffffffff1660e01b8152600401610dae929190613051565b600060405180830381600087803b158015610dc857600080fd5b505af1158015610ddc573d6000803e3d6000fd5b5050505050565b600042600a60008481526020019081526020016000205411610e0457600080fd5b610e0d82611995565b9050919050565b60008073ffffffffffffffffffffffffffffffffffffffff168273ffffffffffffffffffffffffffffffffffffffff161415610e85576040517f08c379a0000000000000000000000000000000000000000000000000000000008152600401610e7c906131ae565b60405180910390fd5b600460008373ffffffffffffffffffffffffffffffffffffffff1673ffffffffffffffffffffffffffffffffffffffff168152602001908152602001600020549050919050565b610ed4611a47565b73ffffffffffffffffffffffffffffffffffffffff16610ef2610f54565b73ffffffffffffffffffffffffffffffffffffffff1614610f48576040517f08c379a0000000000000000000000000000000000000000000000000000000008152600401610f3f9061322e565b60405180910390fd5b610f5260006120ed565b565b60008060009054906101000a900473ffffffffffffffffffffffffffffffffffffffff16905090565b606060028054610f8c90613521565b80601f0160208091040260200160405190810160405280929190818152602001828054610fb890613521565b80156110055780601f10610fda57610100808354040283529160200191611005565b820191906000526020600020905b815481529060010190602001808311610fe857829003601f168201915b5050505050905090565b6000426276a700600a6000858152602001908152602001600020546110349190613382565b109050919050565b611044611a47565b73ffffffffffffffffffffffffffffffffffffffff168273ffffffffffffffffffffffffffffffffffffffff1614156110b2576040517f08c379a00000000000000000000000000000000000000000000000000000000081526004016110a99061316e565b60405180910390fd5b80600660006110bf611a47565b73ffffffffffffffffffffffffffffffffffffffff1673ffffffffffffffffffffffffffffffffffffffff16815260200190815260200160002060008473ffffffffffffffffffffffffffffffffffffffff1673ffffffffffffffffffffffffffffffffffffffff16815260200190815260200160002060006101000a81548160ff0219169083151502179055508173ffffffffffffffffffffffffffffffffffffffff1661116c611a47565b73ffffffffffffffffffffffffffffffffffffffff167f17307eab39ab6107e8899845ad3d59bd9653f200f220920489ca2b5937696c31836040516111b1919061301b565b60405180910390a35050565b6111c5611a47565b73ffffffffffffffffffffffffffffffffffffffff166111e3610f54565b73ffffffffffffffffffffffffffffffffffffffff1614611239576040517f08c379a00000000000000000000000000000000000000000000000000000000081526004016112309061322e565b60405180910390fd5b6001600960008373ffffffffffffffffffffffffffffffffffffffff1673ffffffffffffffffffffffffffffffffffffffff16815260200190815260200160002060006101000a81548160ff0219169083151502179055508073ffffffffffffffffffffffffffffffffffffffff167f0a8bb31534c0ed46f380cb867bd5c803a189ced9a764e30b3a4991a9901d747460405160405180910390a250565b6112e86112e2611a47565b83611dfc565b611327576040517f08c379a000000000000000000000000000000000000000000000000000000000815260040161131e906132ae565b60405180910390fd5b611333848484846121b1565b50505050565b6276a70081565b60003073ffffffffffffffffffffffffffffffffffffffff16600760009054906101000a900473ffffffffffffffffffffffffffffffffffffffff1673ffffffffffffffffffffffffffffffffffffffff166302571be36008546040518263ffffffff1660e01b81526004016113b69190613036565b60206040518083038186803b1580156113ce57600080fd5b505afa1580156113e2573d6000803e3d6000fd5b505050506040513d601f19601f820116820180604052508101906114069190612983565b73ffffffffffffffffffffffffffffffffffffffff161461142657600080fd5b600960003373ffffffffffffffffffffffffffffffffffffffff1673ffffffffffffffffffffffffffffffffffffffff16815260200190815260200160002060009054906101000a900460ff1661147c57600080fd5b426276a700600a60008681526020019081526020016000205461149f9190613382565b10156114aa57600080fd5b6276a700826114b99190613382565b6276a70083600a6000878152602001908152602001600020546114dc9190613382565b6114e69190613382565b116114f057600080fd5b81600a600085815260200190815260200160002060008282546115139190613382565b92505081905550827f9b87a00e30f1ac65d898f070f8a3488fe60517182d0a2098e1b4b93a54aa9bd6600a60008681526020019081526020016000205460405161155d91906132ce565b60405180910390a2600a600084815260200190815260200160002054905092915050565b606061158c82611929565b6115cb576040517f08c379a00000000000000000000000000000000000000000000000000000000081526004016115c29061326e565b60405180910390fd5b60006115d561220d565b905060008151116115f55760405180602001604052806000815250611620565b806115ff84612224565b604051602001611610929190612f90565b6040516020818303038152906040525b915050919050565b6000600a6000838152602001908152602001600020549050919050565b60096020528060005260406000206000915054906101000a900460ff1681565b60085481565b6000600660008473ffffffffffffffffffffffffffffffffffffffff1673ffffffffffffffffffffffffffffffffffffffff16815260200190815260200160002060008373ffffffffffffffffffffffffffffffffffffffff1673ffffffffffffffffffffffffffffffffffffffff16815260200190815260200160002060009054906101000a900460ff16905092915050565b611707611a47565b73ffffffffffffffffffffffffffffffffffffffff16611725610f54565b73ffffffffffffffffffffffffffffffffffffffff161461177b576040517f08c379a00000000000000000000000000000000000000000000000000000000081526004016117729061322e565b60405180910390fd5b600073ffffffffffffffffffffffffffffffffffffffff168173ffffffffffffffffffffffffffffffffffffffff1614156117eb576040517f08c379a00000000000000000000000000000000000000000000000000000000081526004016117e29061310e565b60405180910390fd5b6117f4816120ed565b50565b6117ff611a47565b73ffffffffffffffffffffffffffffffffffffffff1661181d610f54565b73ffffffffffffffffffffffffffffffffffffffff1614611873576040517f08c379a000000000000000000000000000000000000000000000000000000000815260040161186a9061322e565b60405180910390fd5b6000600960008373ffffffffffffffffffffffffffffffffffffffff1673ffffffffffffffffffffffffffffffffffffffff16815260200190815260200160002060006101000a81548160ff0219169083151502179055508073ffffffffffffffffffffffffffffffffffffffff167f33d83959be2573f5453b12eb9d43b3499bc57d96bd2f067ba44803c859e8111360405160405180910390a250565b60006119208484846001611b08565b90509392505050565b60008073ffffffffffffffffffffffffffffffffffffffff166003600084815260200190815260200160002060009054906101000a900473ffffffffffffffffffffffffffffffffffffffff1673ffffffffffffffffffffffffffffffffffffffff1614159050919050565b6000806003600084815260200190815260200160002060009054906101000a900473ffffffffffffffffffffffffffffffffffffffff169050600073ffffffffffffffffffffffffffffffffffffffff168173ffffffffffffffffffffffffffffffffffffffff161415611a3e576040517f08c379a0000000000000000000000000000000000000000000000000000000008152600401611a35906131ce565b60405180910390fd5b80915050919050565b600033905090565b816005600083815260200190815260200160002060006101000a81548173ffffffffffffffffffffffffffffffffffffffff021916908373ffffffffffffffffffffffffffffffffffffffff160217905550808273ffffffffffffffffffffffffffffffffffffffff16611ac283611995565b73ffffffffffffffffffffffffffffffffffffffff167f8c5be1e5ebec7d5bd14f71427d1e84f3dd0314c0f7b2291e5b200ac8c7c3b92560405160405180910390a45050565b60003073ffffffffffffffffffffffffffffffffffffffff16600760009054906101000a900473ffffffffffffffffffffffffffffffffffffffff1673ffffffffffffffffffffffffffffffffffffffff166302571be36008546040518263ffffffff1660e01b8152600401611b7e9190613036565b60206040518083038186803b158015611b9657600080fd5b505afa158015611baa573d6000803e3d6000fd5b505050506040513d601f19601f82011682018060405250810190611bce9190612983565b73ffffffffffffffffffffffffffffffffffffffff1614611bee57600080fd5b600960003373ffffffffffffffffffffffffffffffffffffffff1673ffffffffffffffffffffffffffffffffffffffff16815260200190815260200160002060009054906101000a900460ff16611c4457600080fd5b611c4d8561100f565b611c5657600080fd5b6276a70042611c659190613382565b6276a7008442611c759190613382565b611c7f9190613382565b11611c8957600080fd5b8242611c959190613382565b600a600087815260200190815260200160002081905550611cb585611929565b15611cc457611cc3856123d1565b5b611cce84866124e2565b8115611d8c57600760009054906101000a900473ffffffffffffffffffffffffffffffffffffffff1673ffffffffffffffffffffffffffffffffffffffff166306ab59236008548760001b876040518463ffffffff1660e01b8152600401611d389392919061307a565b602060405180830381600087803b158015611d5257600080fd5b505af1158015611d66573d6000803e3d6000fd5b505050506040513d601f19601f82011682018060405250810190611d8a9190612b2a565b505b8373ffffffffffffffffffffffffffffffffffffffff16857fb3d987963d01b2f68493b4bdb130988f157ea43070d4ad840fee0466ed9370d98542611dd19190613382565b604051611dde91906132ce565b60405180910390a38242611df29190613382565b9050949350505050565b600080611e0883610de3565b90508073ffffffffffffffffffffffffffffffffffffffff168473ffffffffffffffffffffffffffffffffffffffff161480611e7757508373ffffffffffffffffffffffffffffffffffffffff16611e5f846108c6565b73ffffffffffffffffffffffffffffffffffffffff16145b80611e885750611e87818561166b565b5b91505092915050565b8273ffffffffffffffffffffffffffffffffffffffff16611eb182611995565b73ffffffffffffffffffffffffffffffffffffffff1614611f07576040517f08c379a0000000000000000000000000000000000000000000000000000000008152600401611efe9061324e565b60405180910390fd5b600073ffffffffffffffffffffffffffffffffffffffff168273ffffffffffffffffffffffffffffffffffffffff161415611f77576040517f08c379a0000000000000000000000000000000000000000000000000000000008152600401611f6e9061314e565b60405180910390fd5b611f828383836126b0565b611f8d600082611a4f565b6001600460008573ffffffffffffffffffffffffffffffffffffffff1673ffffffffffffffffffffffffffffffffffffffff1681526020019081526020016000206000828254611fdd9190613409565b925050819055506001600460008473ffffffffffffffffffffffffffffffffffffffff1673ffffffffffffffffffffffffffffffffffffffff16815260200190815260200160002060008282546120349190613382565b92505081905550816003600083815260200190815260200160002060006101000a81548173ffffffffffffffffffffffffffffffffffffffff021916908373ffffffffffffffffffffffffffffffffffffffff160217905550808273ffffffffffffffffffffffffffffffffffffffff168473ffffffffffffffffffffffffffffffffffffffff167fddf252ad1be2c89b69c2b068fc378daa952ba7f163c4a11628f55a4df523b3ef60405160405180910390a4505050565b60008060009054906101000a900473ffffffffffffffffffffffffffffffffffffffff169050816000806101000a81548173ffffffffffffffffffffffffffffffffffffffff021916908373ffffffffffffffffffffffffffffffffffffffff1602179055508173ffffffffffffffffffffffffffffffffffffffff168173ffffffffffffffffffffffffffffffffffffffff167f8be0079c531659141344cd1fd0a4f28419497f9722a3daafe3b4186f6b6457e060405160405180910390a35050565b6121bc848484611e91565b6121c8848484846126b5565b612207576040517f08c379a00000000000000000000000000000000000000000000000000000000081526004016121fe906130ee565b60405180910390fd5b50505050565b606060405180602001604052806000815250905090565b6060600082141561226c576040518060400160405280600181526020017f300000000000000000000000000000000000000000000000000000000000000081525090506123cc565b600082905060005b6000821461229e57808061228790613584565b915050600a8261229791906133d8565b9150612274565b60008167ffffffffffffffff8111156122e0577f4e487b7100000000000000000000000000000000000000000000000000000000600052604160045260246000fd5b6040519080825280601f01601f1916602001820160405280156123125781602001600182028036833780820191505090505b5090505b600085146123c55760018261232b9190613409565b9150600a8561233a91906135cd565b60306123469190613382565b60f81b818381518110612382577f4e487b7100000000000000000000000000000000000000000000000000000000600052603260045260246000fd5b60200101907effffffffffffffffffffffffffffffffffffffffffffffffffffffffffffff1916908160001a905350600a856123be91906133d8565b9450612316565b8093505050505b919050565b60006123dc82611995565b90506123ea816000846126b0565b6123f5600083611a4f565b6001600460008373ffffffffffffffffffffffffffffffffffffffff1673ffffffffffffffffffffffffffffffffffffffff16815260200190815260200160002060008282546124459190613409565b925050819055506003600083815260200190815260200160002060006101000a81549073ffffffffffffffffffffffffffffffffffffffff021916905581600073ffffffffffffffffffffffffffffffffffffffff168273ffffffffffffffffffffffffffffffffffffffff167fddf252ad1be2c89b69c2b068fc378daa952ba7f163c4a11628f55a4df523b3ef60405160405180910390a45050565b600073ffffffffffffffffffffffffffffffffffffffff168273ffffffffffffffffffffffffffffffffffffffff161415612552576040517f08c379a0000000000000000000000000000000000000000000000000000000008152600401612549906131ee565b60405180910390fd5b61255b81611929565b1561259b576040517f08c379a00000000000000000000000000000000000000000000000000000000081526004016125929061312e565b60405180910390fd5b6125a7600083836126b0565b6001600460008473ffffffffffffffffffffffffffffffffffffffff1673ffffffffffffffffffffffffffffffffffffffff16815260200190815260200160002060008282546125f79190613382565b92505081905550816003600083815260200190815260200160002060006101000a81548173ffffffffffffffffffffffffffffffffffffffff021916908373ffffffffffffffffffffffffffffffffffffffff160217905550808273ffffffffffffffffffffffffffffffffffffffff16600073ffffffffffffffffffffffffffffffffffffffff167fddf252ad1be2c89b69c2b068fc378daa952ba7f163c4a11628f55a4df523b3ef60405160405180910390a45050565b505050565b60006126d68473ffffffffffffffffffffffffffffffffffffffff1661284c565b1561283f578373ffffffffffffffffffffffffffffffffffffffff1663150b7a026126ff611a47565b8786866040518563ffffffff1660e01b81526004016127219493929190612fcf565b602060405180830381600087803b15801561273b57600080fd5b505af192505050801561276c57506040513d601f19601f820116820180604052508101906127699190612b7c565b60015b6127ef573d806000811461279c576040519150601f19603f3d011682016040523d82523d6000602084013e6127a1565b606091505b506000815114156127e7576040517f08c379a00000000000000000000000000000000000000000000000000000000081526004016127de906130ee565b60405180910390fd5b805181602001fd5b63150b7a0260e01b7bffffffffffffffffffffffffffffffffffffffffffffffffffffffff1916817bffffffffffffffffffffffffffffffffffffffffffffffffffffffff191614915050612844565b600190505b949350505050565b600080823b905060008111915050919050565b600061287261286d8461330e565b6132e9565b90508281526020810184848401111561288a57600080fd5b6128958482856134df565b509392505050565b6000813590506128ac81613ad4565b92915050565b6000815190506128c181613ad4565b92915050565b6000813590506128d681613aeb565b92915050565b6000815190506128eb81613b02565b92915050565b60008135905061290081613b19565b92915050565b60008151905061291581613b19565b92915050565b600082601f83011261292c57600080fd5b813561293c84826020860161285f565b91505092915050565b60008135905061295481613b30565b92915050565b60006020828403121561296c57600080fd5b600061297a8482850161289d565b91505092915050565b60006020828403121561299557600080fd5b60006129a3848285016128b2565b91505092915050565b600080604083850312156129bf57600080fd5b60006129cd8582860161289d565b92505060206129de8582860161289d565b9150509250929050565b6000806000606084860312156129fd57600080fd5b6000612a0b8682870161289d565b9350506020612a1c8682870161289d565b9250506040612a2d86828701612945565b9150509250925092565b60008060008060808587031215612a4d57600080fd5b6000612a5b8782880161289d565b9450506020612a6c8782880161289d565b9350506040612a7d87828801612945565b925050606085013567ffffffffffffffff811115612a9a57600080fd5b612aa68782880161291b565b91505092959194509250565b60008060408385031215612ac557600080fd5b6000612ad38582860161289d565b9250506020612ae4858286016128c7565b9150509250929050565b60008060408385031215612b0157600080fd5b6000612b0f8582860161289d565b9250506020612b2085828601612945565b9150509250929050565b600060208284031215612b3c57600080fd5b6000612b4a848285016128dc565b91505092915050565b600060208284031215612b6557600080fd5b6000612b73848285016128f1565b91505092915050565b600060208284031215612b8e57600080fd5b6000612b9c84828501612906565b91505092915050565b600060208284031215612bb757600080fd5b6000612bc584828501612945565b91505092915050565b60008060408385031215612be157600080fd5b6000612bef85828601612945565b9250506020612c008582860161289d565b9150509250929050565b600080600060608486031215612c1f57600080fd5b6000612c2d86828701612945565b9350506020612c3e8682870161289d565b9250506040612c4f86828701612945565b9150509250925092565b60008060408385031215612c6c57600080fd5b6000612c7a85828601612945565b9250506020612c8b85828601612945565b9150509250929050565b612c9e8161343d565b82525050565b612cad8161344f565b82525050565b612cbc8161345b565b82525050565b6000612ccd8261333f565b612cd78185613355565b9350612ce78185602086016134ee565b612cf0816136ba565b840191505092915050565b612d04816134bb565b82525050565b6000612d158261334a565b612d1f8185613366565b9350612d2f8185602086016134ee565b612d38816136ba565b840191505092915050565b6000612d4e8261334a565b612d588185613377565b9350612d688185602086016134ee565b80840191505092915050565b6000612d81603283613366565b9150612d8c826136cb565b604082019050919050565b6000612da4602683613366565b9150612daf8261371a565b604082019050919050565b6000612dc7601c83613366565b9150612dd282613769565b602082019050919050565b6000612dea602483613366565b9150612df582613792565b604082019050919050565b6000612e0d601983613366565b9150612e18826137e1565b602082019050919050565b6000612e30603883613366565b9150612e3b8261380a565b604082019050919050565b6000612e53602a83613366565b9150612e5e82613859565b604082019050919050565b6000612e76602983613366565b9150612e81826138a8565b604082019050919050565b6000612e99602083613366565b9150612ea4826138f7565b602082019050919050565b6000612ebc602c83613366565b9150612ec782613920565b604082019050919050565b6000612edf602083613366565b9150612eea8261396f565b602082019050919050565b6000612f02602983613366565b9150612f0d82613998565b604082019050919050565b6000612f25602f83613366565b9150612f30826139e7565b604082019050919050565b6000612f48602183613366565b9150612f5382613a36565b604082019050919050565b6000612f6b603183613366565b9150612f7682613a85565b604082019050919050565b612f8a816134b1565b82525050565b6000612f9c8285612d43565b9150612fa88284612d43565b91508190509392505050565b6000602082019050612fc96000830184612c95565b92915050565b6000608082019050612fe46000830187612c95565b612ff16020830186612c95565b612ffe6040830185612f81565b81810360608301526130108184612cc2565b905095945050505050565b60006020820190506130306000830184612ca4565b92915050565b600060208201905061304b6000830184612cb3565b92915050565b60006040820190506130666000830185612cb3565b6130736020830184612c95565b9392505050565b600060608201905061308f6000830186612cb3565b61309c6020830185612cb3565b6130a96040830184612c95565b949350505050565b60006020820190506130c66000830184612cfb565b92915050565b600060208201905081810360008301526130e68184612d0a565b905092915050565b6000602082019050818103600083015261310781612d74565b9050919050565b6000602082019050818103600083015261312781612d97565b9050919050565b6000602082019050818103600083015261314781612dba565b9050919050565b6000602082019050818103600083015261316781612ddd565b9050919050565b6000602082019050818103600083015261318781612e00565b9050919050565b600060208201905081810360008301526131a781612e23565b9050919050565b600060208201905081810360008301526131c781612e46565b9050919050565b600060208201905081810360008301526131e781612e69565b9050919050565b6000602082019050818103600083015261320781612e8c565b9050919050565b6000602082019050818103600083015261322781612eaf565b9050919050565b6000602082019050818103600083015261324781612ed2565b9050919050565b6000602082019050818103600083015261326781612ef5565b9050919050565b6000602082019050818103600083015261328781612f18565b9050919050565b600060208201905081810360008301526132a781612f3b565b9050919050565b600060208201905081810360008301526132c781612f5e565b9050919050565b60006020820190506132e36000830184612f81565b92915050565b60006132f3613304565b90506132ff8282613553565b919050565b6000604051905090565b600067ffffffffffffffff8211156133295761332861368b565b5b613332826136ba565b9050602081019050919050565b600081519050919050565b600081519050919050565b600082825260208201905092915050565b600082825260208201905092915050565b600081905092915050565b600061338d826134b1565b9150613398836134b1565b9250827fffffffffffffffffffffffffffffffffffffffffffffffffffffffffffffffff038211156133cd576133cc6135fe565b5b828201905092915050565b60006133e3826134b1565b91506133ee836134b1565b9250826133fe576133fd61362d565b5b828204905092915050565b6000613414826134b1565b915061341f836134b1565b925082821015613432576134316135fe565b5b828203905092915050565b600061344882613491565b9050919050565b60008115159050919050565b6000819050919050565b60007fffffffff0000000000000000000000000000000000000000000000000000000082169050919050565b600073ffffffffffffffffffffffffffffffffffffffff82169050919050565b6000819050919050565b60006134c6826134cd565b9050919050565b60006134d882613491565b9050919050565b82818337600083830152505050565b60005b8381101561350c5780820151818401526020810190506134f1565b8381111561351b576000848401525b50505050565b6000600282049050600182168061353957607f821691505b6020821081141561354d5761354c61365c565b5b50919050565b61355c826136ba565b810181811067ffffffffffffffff8211171561357b5761357a61368b565b5b80604052505050565b600061358f826134b1565b91507fffffffffffffffffffffffffffffffffffffffffffffffffffffffffffffffff8214156135c2576135c16135fe565b5b600182019050919050565b60006135d8826134b1565b91506135e3836134b1565b9250826135f3576135f261362d565b5b828206905092915050565b7f4e487b7100000000000000000000000000000000000000000000000000000000600052601160045260246000fd5b7f4e487b7100000000000000000000000000000000000000000000000000000000600052601260045260246000fd5b7f4e487b7100000000000000000000000000000000000000000000000000000000600052602260045260246000fd5b7f4e487b7100000000000000000000000000000000000000000000000000000000600052604160045260246000fd5b6000601f19601f8301169050919050565b7f4552433732313a207472616e7366657220746f206e6f6e20455243373231526560008201527f63656976657220696d706c656d656e7465720000000000000000000000000000602082015250565b7f4f776e61626c653a206e6577206f776e657220697320746865207a65726f206160008201527f6464726573730000000000000000000000000000000000000000000000000000602082015250565b7f4552433732313a20746f6b656e20616c7265616479206d696e74656400000000600082015250565b7f4552433732313a207472616e7366657220746f20746865207a65726f2061646460008201527f7265737300000000000000000000000000000000000000000000000000000000602082015250565b7f4552433732313a20617070726f766520746f2063616c6c657200000000000000600082015250565b7f4552433732313a20617070726f76652063616c6c6572206973206e6f74206f7760008201527f6e6572206e6f7220617070726f76656420666f7220616c6c0000000000000000602082015250565b7f4552433732313a2062616c616e636520717565727920666f7220746865207a6560008201527f726f206164647265737300000000000000000000000000000000000000000000602082015250565b7f4552433732313a206f776e657220717565727920666f72206e6f6e657869737460008201527f656e7420746f6b656e0000000000000000000000000000000000000000000000602082015250565b7f4552433732313a206d696e7420746f20746865207a65726f2061646472657373600082015250565b7f4552433732313a20617070726f76656420717565727920666f72206e6f6e657860008201527f697374656e7420746f6b656e0000000000000000000000000000000000000000602082015250565b7f4f776e61626c653a2063616c6c6572206973206e6f7420746865206f776e6572600082015250565b7f4552433732313a207472616e73666572206f6620746f6b656e2074686174206960008201527f73206e6f74206f776e0000000000000000000000000000000000000000000000602082015250565b7f4552433732314d657461646174613a2055524920717565727920666f72206e6f60008201527f6e6578697374656e7420746f6b656e0000000000000000000000000000000000602082015250565b7f4552433732313a20617070726f76616c20746f2063757272656e74206f776e6560008201527f7200000000000000000000000000000000000000000000000000000000000000602082015250565b7f4552433732313a207472616e736665722063616c6c6572206973206e6f74206f60008201527f776e6572206e6f7220617070726f766564000000000000000000000000000000602082015250565b613add8161343d565b8114613ae857600080fd5b50565b613af48161344f565b8114613aff57600080fd5b50565b613b0b8161345b565b8114613b1657600080fd5b50565b613b2281613465565b8114613b2d57600080fd5b50565b613b39816134b1565b8114613b4457600080fd5b5056fea2646970667358221220b6be802661210f3b28715cf0037913966e226dd1c30b24d1c9724a564b56bb9d64736f6c63430008040033",
  "devdoc": {
    "kind": "dev",
    "methods": {
      "approve(address,uint256)": {
        "details": "See {IERC721-approve}."
      },
      "balanceOf(address)": {
        "details": "See {IERC721-balanceOf}."
      },
      "getApproved(uint256)": {
        "details": "See {IERC721-getApproved}."
      },
      "isApprovedForAll(address,address)": {
        "details": "See {IERC721-isApprovedForAll}."
      },
      "name()": {
        "details": "See {IERC721Metadata-name}."
      },
      "owner()": {
        "details": "Returns the address of the current owner."
      },
      "ownerOf(uint256)": {
        "details": "Gets the owner of the specified token ID. Names become unowned      when their registration expires.",
        "params": {
          "tokenId": "uint256 ID of the token to query the owner of"
        },
        "returns": {
          "_0": "address currently marked as the owner of the given token ID"
        }
      },
      "reclaim(uint256,address)": {
        "details": "Reclaim ownership of a name in ENS, if you own it in the registrar."
      },
      "register(uint256,address,uint256)": {
        "details": "Register a name.",
        "params": {
          "duration": "Duration in seconds for the registration.",
          "id": "The token ID (keccak256 of the label).",
          "owner": "The address that should own the registration."
        }
      },
      "registerOnly(uint256,address,uint256)": {
        "details": "Register a name, without modifying the registry.",
        "params": {
          "duration": "Duration in seconds for the registration.",
          "id": "The token ID (keccak256 of the label).",
          "owner": "The address that should own the registration."
        }
      },
      "renounceOwnership()": {
        "details": "Leaves the contract without owner. It will not be possible to call `onlyOwner` functions anymore. Can only be called by the current owner. NOTE: Renouncing ownership will leave the contract without an owner, thereby removing any functionality that is only available to the owner."
      },
      "safeTransferFrom(address,address,uint256)": {
        "details": "See {IERC721-safeTransferFrom}."
      },
      "safeTransferFrom(address,address,uint256,bytes)": {
        "details": "See {IERC721-safeTransferFrom}."
      },
      "setApprovalForAll(address,bool)": {
        "details": "See {IERC721-setApprovalForAll}."
      },
      "symbol()": {
        "details": "See {IERC721Metadata-symbol}."
      },
      "tokenURI(uint256)": {
        "details": "See {IERC721Metadata-tokenURI}."
      },
      "transferFrom(address,address,uint256)": {
        "details": "See {IERC721-transferFrom}."
      },
      "transferOwnership(address)": {
        "details": "Transfers ownership of the contract to a new account (`newOwner`). Can only be called by the current owner."
      }
    },
    "version": 1
  },
  "userdoc": {
    "kind": "user",
    "methods": {},
    "version": 1
  },
  "storageLayout": {
    "storage": [
      {
        "astId": 5411,
        "contract": "contracts/ens/TestEthRegistrar.sol:TestEthRegistrar",
        "label": "_owner",
        "offset": 0,
        "slot": "0",
        "type": "t_address"
      },
      {
        "astId": 5533,
        "contract": "contracts/ens/TestEthRegistrar.sol:TestEthRegistrar",
        "label": "_name",
        "offset": 0,
        "slot": "1",
        "type": "t_string_storage"
      },
      {
        "astId": 5535,
        "contract": "contracts/ens/TestEthRegistrar.sol:TestEthRegistrar",
        "label": "_symbol",
        "offset": 0,
        "slot": "2",
        "type": "t_string_storage"
      },
      {
        "astId": 5539,
        "contract": "contracts/ens/TestEthRegistrar.sol:TestEthRegistrar",
        "label": "_owners",
        "offset": 0,
        "slot": "3",
        "type": "t_mapping(t_uint256,t_address)"
      },
      {
        "astId": 5543,
        "contract": "contracts/ens/TestEthRegistrar.sol:TestEthRegistrar",
        "label": "_balances",
        "offset": 0,
        "slot": "4",
        "type": "t_mapping(t_address,t_uint256)"
      },
      {
        "astId": 5547,
        "contract": "contracts/ens/TestEthRegistrar.sol:TestEthRegistrar",
        "label": "_tokenApprovals",
        "offset": 0,
        "slot": "5",
        "type": "t_mapping(t_uint256,t_address)"
      },
      {
        "astId": 5553,
        "contract": "contracts/ens/TestEthRegistrar.sol:TestEthRegistrar",
        "label": "_operatorApprovals",
        "offset": 0,
        "slot": "6",
        "type": "t_mapping(t_address,t_mapping(t_address,t_bool))"
      },
      {
        "astId": 2458,
        "contract": "contracts/ens/TestEthRegistrar.sol:TestEthRegistrar",
        "label": "ens",
        "offset": 0,
        "slot": "7",
        "type": "t_contract(ENS)3164"
      },
      {
        "astId": 2460,
        "contract": "contracts/ens/TestEthRegistrar.sol:TestEthRegistrar",
        "label": "baseNode",
        "offset": 0,
        "slot": "8",
        "type": "t_bytes32"
      },
      {
        "astId": 2464,
        "contract": "contracts/ens/TestEthRegistrar.sol:TestEthRegistrar",
        "label": "controllers",
        "offset": 0,
        "slot": "9",
        "type": "t_mapping(t_address,t_bool)"
      },
      {
        "astId": 2536,
        "contract": "contracts/ens/TestEthRegistrar.sol:TestEthRegistrar",
        "label": "expiries",
        "offset": 0,
        "slot": "10",
        "type": "t_mapping(t_uint256,t_uint256)"
      }
    ],
    "types": {
      "t_address": {
        "encoding": "inplace",
        "label": "address",
        "numberOfBytes": "20"
      },
      "t_bool": {
        "encoding": "inplace",
        "label": "bool",
        "numberOfBytes": "1"
      },
      "t_bytes32": {
        "encoding": "inplace",
        "label": "bytes32",
        "numberOfBytes": "32"
      },
      "t_contract(ENS)3164": {
        "encoding": "inplace",
        "label": "contract ENS",
        "numberOfBytes": "20"
      },
      "t_mapping(t_address,t_bool)": {
        "encoding": "mapping",
        "key": "t_address",
        "label": "mapping(address => bool)",
        "numberOfBytes": "32",
        "value": "t_bool"
      },
      "t_mapping(t_address,t_mapping(t_address,t_bool))": {
        "encoding": "mapping",
        "key": "t_address",
        "label": "mapping(address => mapping(address => bool))",
        "numberOfBytes": "32",
        "value": "t_mapping(t_address,t_bool)"
      },
      "t_mapping(t_address,t_uint256)": {
        "encoding": "mapping",
        "key": "t_address",
        "label": "mapping(address => uint256)",
        "numberOfBytes": "32",
        "value": "t_uint256"
      },
      "t_mapping(t_uint256,t_address)": {
        "encoding": "mapping",
        "key": "t_uint256",
        "label": "mapping(uint256 => address)",
        "numberOfBytes": "32",
        "value": "t_address"
      },
      "t_mapping(t_uint256,t_uint256)": {
        "encoding": "mapping",
        "key": "t_uint256",
        "label": "mapping(uint256 => uint256)",
        "numberOfBytes": "32",
        "value": "t_uint256"
      },
      "t_string_storage": {
        "encoding": "bytes",
        "label": "string",
        "numberOfBytes": "32"
      },
      "t_uint256": {
        "encoding": "inplace",
        "label": "uint256",
        "numberOfBytes": "32"
      }
    }
  }
}