{
  "address": "0xb2cDD6A87B147e32c8e279e989101e373Ae90782",
  "abi": [
    {
      "inputs": [
        {
          "internalType": "address",
          "name": "_versionVerificationManager",
          "type": "address"
        },
        {
          "internalType": "uint256",
          "name": "_blocksPerRootRelay",
          "type": "uint256"
        }
      ],
      "stateMutability": "nonpayable",
      "type": "constructor"
    },
    {
      "anonymous": false,
      "inputs": [
        {
          "indexed": true,
          "internalType": "address",
          "name": "previousOwner",
          "type": "address"
        },
        {
          "indexed": true,
          "internalType": "address",
          "name": "newOwner",
          "type": "address"
        }
      ],
      "name": "OwnershipTransferred",
      "type": "event"
    },
    {
      "inputs": [],
      "name": "blocksPerRootRelay",
      "outputs": [
        {
          "internalType": "uint256",
          "name": "",
          "type": "uint256"
        }
      ],
      "stateMutability": "view",
      "type": "function"
    },
    {
      "inputs": [],
      "name": "bridgeLink",
      "outputs": [
        {
          "internalType": "address",
          "name": "",
          "type": "address"
        }
      ],
      "stateMutability": "view",
      "type": "function"
    },
    {
      "inputs": [
        {
          "internalType": "address",
          "name": "_versionVerificationManager",
          "type": "address"
        },
        {
          "internalType": "uint256",
          "name": "_blocksPerRootRelay",
          "type": "uint256"
        }
      ],
      "name": "initialize",
      "outputs": [],
      "stateMutability": "nonpayable",
      "type": "function"
    },
    {
      "inputs": [],
      "name": "lastRootRelayBlock",
      "outputs": [
        {
          "internalType": "uint256",
          "name": "",
          "type": "uint256"
        }
      ],
      "stateMutability": "view",
      "type": "function"
    },
    {
      "inputs": [],
      "name": "onVersionVerified",
      "outputs": [],
      "stateMutability": "nonpayable",
      "type": "function"
    },
    {
      "inputs": [],
      "name": "owner",
      "outputs": [
        {
          "internalType": "address",
          "name": "",
          "type": "address"
        }
      ],
      "stateMutability": "view",
      "type": "function"
    },
    {
      "inputs": [],
      "name": "relayVerificationRoot",
      "outputs": [],
      "stateMutability": "nonpayable",
      "type": "function"
    },
    {
      "inputs": [],
      "name": "renounceOwnership",
      "outputs": [],
      "stateMutability": "nonpayable",
      "type": "function"
    },
    {
      "inputs": [
        {
          "internalType": "address",
          "name": "newOwner",
          "type": "address"
        }
      ],
      "name": "transferOwnership",
      "outputs": [],
      "stateMutability": "nonpayable",
      "type": "function"
    },
    {
      "inputs": [
        {
          "internalType": "uint256",
          "name": "_blocksPerRootRelay",
          "type": "uint256"
        }
      ],
      "name": "updateBlocksPerRootRelay",
      "outputs": [],
      "stateMutability": "nonpayable",
      "type": "function"
    },
    {
      "inputs": [
        {
          "internalType": "address",
          "name": "_bridgeLink",
          "type": "address"
        }
      ],
      "name": "updateBridgeLink",
      "outputs": [],
      "stateMutability": "nonpayable",
      "type": "function"
    },
    {
      "inputs": [
        {
          "internalType": "address",
          "name": "_verificationTreeManager",
          "type": "address"
        }
      ],
      "name": "updateVerificationTreeManager",
      "outputs": [],
      "stateMutability": "nonpayable",
      "type": "function"
    },
    {
      "inputs": [
        {
          "internalType": "address",
          "name": "_versionVerificationManager",
          "type": "address"
        }
      ],
      "name": "updateVersionVerificationManager",
      "outputs": [],
      "stateMutability": "nonpayable",
      "type": "function"
    },
    {
      "inputs": [],
      "name": "verificationTreeManager",
      "outputs": [
        {
          "internalType": "address",
          "name": "",
          "type": "address"
        }
      ],
      "stateMutability": "view",
      "type": "function"
    },
    {
      "inputs": [],
      "name": "versionVerificationManager",
      "outputs": [
        {
          "internalType": "address",
          "name": "",
          "type": "address"
        }
      ],
      "stateMutability": "view",
      "type": "function"
    }
  ],
  "transactionHash": "0x5161bc8f4688fefb4eaf190d22865ff6bd1a9176c755eb49103740b769d5ff01",
  "args": [
    "0xd058304E14c155A5E81Ab57515879BE17A650C0c",
    5
  ],
  "solcInputHash": "ae411f1ffc5dbe946d79e65567ed4342",
  "bytecode": "0x60806040523480156200001157600080fd5b5060405162001b8a38038062001b8a833981810160405281019062000037919062000563565b6200004982826200005160201b60201c565b5050620006bf565b600060019054906101000a900460ff168062000078575060008054906101000a900460ff16155b620000ba576040517f08c379a0000000000000000000000000000000000000000000000000000000008152600401620000b190620005cb565b60405180910390fd5b60008060019054906101000a900460ff1615905080156200010b576001600060016101000a81548160ff02191690831515021790555060016000806101000a81548160ff0219169083151502179055505b6200011b6200018a60201b60201c565b82606560006101000a81548173ffffffffffffffffffffffffffffffffffffffff021916908373ffffffffffffffffffffffffffffffffffffffff160217905550816068819055508015620001855760008060016101000a81548160ff0219169083151502179055505b505050565b600060019054906101000a900460ff1680620001b1575060008054906101000a900460ff16155b620001f3576040517f08c379a0000000000000000000000000000000000000000000000000000000008152600401620001ea90620005cb565b60405180910390fd5b60008060019054906101000a900460ff16159050801562000244576001600060016101000a81548160ff02191690831515021790555060016000806101000a81548160ff0219169083151502179055505b620002546200028960201b60201c565b620002646200036860201b60201c565b8015620002865760008060016101000a81548160ff0219169083151502179055505b50565b600060019054906101000a900460ff1680620002b0575060008054906101000a900460ff16155b620002f2576040517f08c379a0000000000000000000000000000000000000000000000000000000008152600401620002e990620005cb565b60405180910390fd5b60008060019054906101000a900460ff16159050801562000343576001600060016101000a81548160ff02191690831515021790555060016000806101000a81548160ff0219169083151502179055505b8015620003655760008060016101000a81548160ff0219169083151502179055505b50565b600060019054906101000a900460ff16806200038f575060008054906101000a900460ff16155b620003d1576040517f08c379a0000000000000000000000000000000000000000000000000000000008152600401620003c890620005cb565b60405180910390fd5b60008060019054906101000a900460ff16159050801562000422576001600060016101000a81548160ff02191690831515021790555060016000806101000a81548160ff0219169083151502179055505b62000442620004366200046760201b60201c565b6200046f60201b60201c565b8015620004645760008060016101000a81548160ff0219169083151502179055505b50565b600033905090565b6000603360009054906101000a900473ffffffffffffffffffffffffffffffffffffffff16905081603360006101000a81548173ffffffffffffffffffffffffffffffffffffffff021916908373ffffffffffffffffffffffffffffffffffffffff1602179055508173ffffffffffffffffffffffffffffffffffffffff168173ffffffffffffffffffffffffffffffffffffffff167f8be0079c531659141344cd1fd0a4f28419497f9722a3daafe3b4186f6b6457e060405160405180910390a35050565b60008151905062000546816200068b565b92915050565b6000815190506200055d81620006a5565b92915050565b600080604083850312156200057757600080fd5b6000620005878582860162000535565b92505060206200059a858286016200054c565b9150509250929050565b6000620005b3602e83620005ed565b9150620005c0826200063c565b604082019050919050565b60006020820190508181036000830152620005e681620005a4565b9050919050565b600082825260208201905092915050565b60006200060b8262000612565b9050919050565b600073ffffffffffffffffffffffffffffffffffffffff82169050919050565b6000819050919050565b7f496e697469616c697a61626c653a20636f6e747261637420697320616c72656160008201527f647920696e697469616c697a6564000000000000000000000000000000000000602082015250565b6200069681620005fe565b8114620006a257600080fd5b50565b620006b08162000632565b8114620006bc57600080fd5b50565b6114bb80620006cf6000396000f3fe608060405234801561001057600080fd5b50600436106100f55760003560e01c80637cc4184411610097578063cd6dc68711610066578063cd6dc68714610214578063d75ced3c14610230578063e644e2961461024e578063f2fde38b14610258576100f5565b80637cc418441461019e5780637fec3567146101bc5780638da5cb5b146101da578063b4d5ae90146101f8576100f5565b80634c8d9af1116100d35780634c8d9af11461013c5780635b5516fa1461015a5780636113c1bd14610178578063715018a614610194576100f5565b80630d9f552e146100fa57806312000329146101165780631b08341814610120575b600080fd5b610114600480360381019061010f919061109f565b610274565b005b61011e610334565b005b61013a6004803603810190610135919061112d565b61054b565b005b6101446105d1565b60405161015191906111ec565b60405180910390f35b6101626105f7565b60405161016f9190611282565b60405180910390f35b610192600480360381019061018d919061109f565b6105fd565b005b61019c6106bd565b005b6101a6610745565b6040516101b391906111ec565b60405180910390f35b6101c461076b565b6040516101d19190611282565b60405180910390f35b6101e2610771565b6040516101ef91906111ec565b60405180910390f35b610212600480360381019061020d919061109f565b61079b565b005b61022e600480360381019061022991906110c8565b61085b565b005b610238610986565b60405161024591906111ec565b60405180910390f35b6102566109ac565b005b610272600480360381019061026d919061109f565b610b08565b005b61027c610c00565b73ffffffffffffffffffffffffffffffffffffffff1661029a610771565b73ffffffffffffffffffffffffffffffffffffffff16146102f0576040517f08c379a00000000000000000000000000000000000000000000000000000000081526004016102e790611262565b60405180910390fd5b80606660006101000a81548173ffffffffffffffffffffffffffffffffffffffff021916908373ffffffffffffffffffffffffffffffffffffffff16021790555050565b600073ffffffffffffffffffffffffffffffffffffffff16606560009054906101000a900473ffffffffffffffffffffffffffffffffffffffff1673ffffffffffffffffffffffffffffffffffffffff1614156103ba577f4e487b7100000000000000000000000000000000000000000000000000000000600052600160045260246000fd5b600073ffffffffffffffffffffffffffffffffffffffff16606660009054906101000a900473ffffffffffffffffffffffffffffffffffffffff1673ffffffffffffffffffffffffffffffffffffffff16141561041657610549565b6000606560009054906101000a900473ffffffffffffffffffffffffffffffffffffffff1673ffffffffffffffffffffffffffffffffffffffff16630d032de86040518163ffffffff1660e01b815260040160206040518083038186803b15801561048057600080fd5b505afa158015610494573d6000803e3d6000fd5b505050506040513d601f19601f820116820180604052508101906104b89190611104565b9050606660009054906101000a900473ffffffffffffffffffffffffffffffffffffffff1673ffffffffffffffffffffffffffffffffffffffff16639bd6473f826040518263ffffffff1660e01b81526004016105159190611207565b600060405180830381600087803b15801561052f57600080fd5b505af1158015610543573d6000803e3d6000fd5b50505050505b565b610553610c00565b73ffffffffffffffffffffffffffffffffffffffff16610571610771565b73ffffffffffffffffffffffffffffffffffffffff16146105c7576040517f08c379a00000000000000000000000000000000000000000000000000000000081526004016105be90611262565b60405180910390fd5b8060688190555050565b606660009054906101000a900473ffffffffffffffffffffffffffffffffffffffff1681565b60695481565b610605610c00565b73ffffffffffffffffffffffffffffffffffffffff16610623610771565b73ffffffffffffffffffffffffffffffffffffffff1614610679576040517f08c379a000000000000000000000000000000000000000000000000000000000815260040161067090611262565b60405180910390fd5b80606560006101000a81548173ffffffffffffffffffffffffffffffffffffffff021916908373ffffffffffffffffffffffffffffffffffffffff16021790555050565b6106c5610c00565b73ffffffffffffffffffffffffffffffffffffffff166106e3610771565b73ffffffffffffffffffffffffffffffffffffffff1614610739576040517f08c379a000000000000000000000000000000000000000000000000000000000815260040161073090611262565b60405180910390fd5b6107436000610c08565b565b606560009054906101000a900473ffffffffffffffffffffffffffffffffffffffff1681565b60685481565b6000603360009054906101000a900473ffffffffffffffffffffffffffffffffffffffff16905090565b6107a3610c00565b73ffffffffffffffffffffffffffffffffffffffff166107c1610771565b73ffffffffffffffffffffffffffffffffffffffff1614610817576040517f08c379a000000000000000000000000000000000000000000000000000000000815260040161080e90611262565b60405180910390fd5b80606760006101000a81548173ffffffffffffffffffffffffffffffffffffffff021916908373ffffffffffffffffffffffffffffffffffffffff16021790555050565b600060019054906101000a900460ff1680610881575060008054906101000a900460ff16155b6108c0576040517f08c379a00000000000000000000000000000000000000000000000000000000081526004016108b790611242565b60405180910390fd5b60008060019054906101000a900460ff161590508015610910576001600060016101000a81548160ff02191690831515021790555060016000806101000a81548160ff0219169083151502179055505b610918610cce565b82606560006101000a81548173ffffffffffffffffffffffffffffffffffffffff021916908373ffffffffffffffffffffffffffffffffffffffff1602179055508160688190555080156109815760008060016101000a81548160ff0219169083151502179055505b505050565b606760009054906101000a900473ffffffffffffffffffffffffffffffffffffffff1681565b606760009054906101000a900473ffffffffffffffffffffffffffffffffffffffff1673ffffffffffffffffffffffffffffffffffffffff163373ffffffffffffffffffffffffffffffffffffffff1614610a30577f4e487b7100000000000000000000000000000000000000000000000000000000600052600160045260246000fd5b6000606760009054906101000a900473ffffffffffffffffffffffffffffffffffffffff1673ffffffffffffffffffffffffffffffffffffffff16630cfb0b4c6040518163ffffffff1660e01b8152600401602060405180830381600087803b158015610a9c57600080fd5b505af1158015610ab0573d6000803e3d6000fd5b505050506040513d601f19601f82011682018060405250810190610ad49190611104565b9050610adf81610db7565b606854606954610aef91906112ae565b431015610afc5750610b06565b610b04610334565b505b565b610b10610c00565b73ffffffffffffffffffffffffffffffffffffffff16610b2e610771565b73ffffffffffffffffffffffffffffffffffffffff1614610b84576040517f08c379a0000000000000000000000000000000000000000000000000000000008152600401610b7b90611262565b60405180910390fd5b600073ffffffffffffffffffffffffffffffffffffffff168173ffffffffffffffffffffffffffffffffffffffff161415610bf4576040517f08c379a0000000000000000000000000000000000000000000000000000000008152600401610beb90611222565b60405180910390fd5b610bfd81610c08565b50565b600033905090565b6000603360009054906101000a900473ffffffffffffffffffffffffffffffffffffffff16905081603360006101000a81548173ffffffffffffffffffffffffffffffffffffffff021916908373ffffffffffffffffffffffffffffffffffffffff1602179055508173ffffffffffffffffffffffffffffffffffffffff168173ffffffffffffffffffffffffffffffffffffffff167f8be0079c531659141344cd1fd0a4f28419497f9722a3daafe3b4186f6b6457e060405160405180910390a35050565b600060019054906101000a900460ff1680610cf4575060008054906101000a900460ff16155b610d33576040517f08c379a0000000000000000000000000000000000000000000000000000000008152600401610d2a90611242565b60405180910390fd5b60008060019054906101000a900460ff161590508015610d83576001600060016101000a81548160ff02191690831515021790555060016000806101000a81548160ff0219169083151502179055505b610d8b610e9e565b610d93610f77565b8015610db45760008060016101000a81548160ff0219169083151502179055505b50565b600073ffffffffffffffffffffffffffffffffffffffff16606560009054906101000a900473ffffffffffffffffffffffffffffffffffffffff1673ffffffffffffffffffffffffffffffffffffffff1614610e9b57606560009054906101000a900473ffffffffffffffffffffffffffffffffffffffff1673ffffffffffffffffffffffffffffffffffffffff166343ed751d826040518263ffffffff1660e01b8152600401610e689190611207565b600060405180830381600087803b158015610e8257600080fd5b505af1158015610e96573d6000803e3d6000fd5b505050505b50565b600060019054906101000a900460ff1680610ec4575060008054906101000a900460ff16155b610f03576040517f08c379a0000000000000000000000000000000000000000000000000000000008152600401610efa90611242565b60405180910390fd5b60008060019054906101000a900460ff161590508015610f53576001600060016101000a81548160ff02191690831515021790555060016000806101000a81548160ff0219169083151502179055505b8015610f745760008060016101000a81548160ff0219169083151502179055505b50565b600060019054906101000a900460ff1680610f9d575060008054906101000a900460ff16155b610fdc576040517f08c379a0000000000000000000000000000000000000000000000000000000008152600401610fd390611242565b60405180910390fd5b60008060019054906101000a900460ff16159050801561102c576001600060016101000a81548160ff02191690831515021790555060016000806101000a81548160ff0219169083151502179055505b61103c611037610c00565b610c08565b801561105d5760008060016101000a81548160ff0219169083151502179055505b50565b60008135905061106f81611440565b92915050565b60008151905061108481611457565b92915050565b6000813590506110998161146e565b92915050565b6000602082840312156110b157600080fd5b60006110bf84828501611060565b91505092915050565b600080604083850312156110db57600080fd5b60006110e985828601611060565b92505060206110fa8582860161108a565b9150509250929050565b60006020828403121561111657600080fd5b600061112484828501611075565b91505092915050565b60006020828403121561113f57600080fd5b600061114d8482850161108a565b91505092915050565b61115f81611304565b82525050565b61116e81611316565b82525050565b600061118160268361129d565b915061118c82611379565b604082019050919050565b60006111a4602e8361129d565b91506111af826113c8565b604082019050919050565b60006111c760208361129d565b91506111d282611417565b602082019050919050565b6111e681611340565b82525050565b60006020820190506112016000830184611156565b92915050565b600060208201905061121c6000830184611165565b92915050565b6000602082019050818103600083015261123b81611174565b9050919050565b6000602082019050818103600083015261125b81611197565b9050919050565b6000602082019050818103600083015261127b816111ba565b9050919050565b600060208201905061129760008301846111dd565b92915050565b600082825260208201905092915050565b60006112b982611340565b91506112c483611340565b9250827fffffffffffffffffffffffffffffffffffffffffffffffffffffffffffffffff038211156112f9576112f861134a565b5b828201905092915050565b600061130f82611320565b9050919050565b6000819050919050565b600073ffffffffffffffffffffffffffffffffffffffff82169050919050565b6000819050919050565b7f4e487b7100000000000000000000000000000000000000000000000000000000600052601160045260246000fd5b7f4f776e61626c653a206e6577206f776e657220697320746865207a65726f206160008201527f6464726573730000000000000000000000000000000000000000000000000000602082015250565b7f496e697469616c697a61626c653a20636f6e747261637420697320616c72656160008201527f647920696e697469616c697a6564000000000000000000000000000000000000602082015250565b7f4f776e61626c653a2063616c6c6572206973206e6f7420746865206f776e6572600082015250565b61144981611304565b811461145457600080fd5b50565b61146081611316565b811461146b57600080fd5b50565b61147781611340565b811461148257600080fd5b5056fea2646970667358221220a811b1a92c3cdf5e177ffa398b266b330204a98692e98499dd21346cafaae20e64736f6c63430008040033",
  "devdoc": {
    "kind": "dev",
    "methods": {
      "owner()": {
        "details": "Returns the address of the current owner."
      },
      "renounceOwnership()": {
        "details": "Leaves the contract without owner. It will not be possible to call `onlyOwner` functions anymore. Can only be called by the current owner. NOTE: Renouncing ownership will leave the contract without an owner, thereby removing any functionality that is only available to the owner."
      },
      "transferOwnership(address)": {
        "details": "Transfers ownership of the contract to a new account (`newOwner`). Can only be called by the current owner."
      }
    },
    "version": 1
  },
  "userdoc": {
    "kind": "user",
    "methods": {},
    "version": 1
  },
  "storageLayout": {
    "storage": [
      {
        "astId": 5319,
        "contract": "contracts/versioning/VerificationRootRelayer.sol:VerificationRootRelayer",
        "label": "_initialized",
        "offset": 0,
        "slot": "0",
        "type": "t_bool"
      },
      {
        "astId": 5322,
        "contract": "contracts/versioning/VerificationRootRelayer.sol:VerificationRootRelayer",
        "label": "_initializing",
        "offset": 1,
        "slot": "0",
        "type": "t_bool"
      },
      {
        "astId": 5402,
        "contract": "contracts/versioning/VerificationRootRelayer.sol:VerificationRootRelayer",
        "label": "__gap",
        "offset": 0,
        "slot": "1",
        "type": "t_array(t_uint256)50_storage"
      },
      {
        "astId": 5199,
        "contract": "contracts/versioning/VerificationRootRelayer.sol:VerificationRootRelayer",
        "label": "_owner",
        "offset": 0,
        "slot": "51",
        "type": "t_address"
      },
      {
        "astId": 5312,
        "contract": "contracts/versioning/VerificationRootRelayer.sol:VerificationRootRelayer",
        "label": "__gap",
        "offset": 0,
        "slot": "52",
        "type": "t_array(t_uint256)49_storage"
      },
      {
        "astId": 7630,
        "contract": "contracts/versioning/VerificationRootRelayer.sol:VerificationRootRelayer",
        "label": "versionVerificationManager",
        "offset": 0,
        "slot": "101",
        "type": "t_address"
      },
      {
        "astId": 7632,
        "contract": "contracts/versioning/VerificationRootRelayer.sol:VerificationRootRelayer",
        "label": "bridgeLink",
        "offset": 0,
        "slot": "102",
        "type": "t_address"
      },
      {
        "astId": 7634,
        "contract": "contracts/versioning/VerificationRootRelayer.sol:VerificationRootRelayer",
        "label": "verificationTreeManager",
        "offset": 0,
        "slot": "103",
        "type": "t_address"
      },
      {
        "astId": 7636,
        "contract": "contracts/versioning/VerificationRootRelayer.sol:VerificationRootRelayer",
        "label": "blocksPerRootRelay",
        "offset": 0,
        "slot": "104",
        "type": "t_uint256"
      },
      {
        "astId": 7638,
        "contract": "contracts/versioning/VerificationRootRelayer.sol:VerificationRootRelayer",
        "label": "lastRootRelayBlock",
        "offset": 0,
        "slot": "105",
        "type": "t_uint256"
      }
    ],
    "types": {
      "t_address": {
        "encoding": "inplace",
        "label": "address",
        "numberOfBytes": "20"
      },
      "t_array(t_uint256)49_storage": {
        "base": "t_uint256",
        "encoding": "inplace",
        "label": "uint256[49]",
        "numberOfBytes": "1568"
      },
      "t_array(t_uint256)50_storage": {
        "base": "t_uint256",
        "encoding": "inplace",
        "label": "uint256[50]",
        "numberOfBytes": "1600"
      },
      "t_bool": {
        "encoding": "inplace",
        "label": "bool",
        "numberOfBytes": "1"
      },
      "t_uint256": {
        "encoding": "inplace",
        "label": "uint256",
        "numberOfBytes": "32"
      }
    }
  }
}