{
  "address": "0xE675C14714f532852115e83F58A48BfD2Eb964c5",
  "abi": [
    {
      "inputs": [
        {
          "internalType": "address",
          "name": "_registry",
          "type": "address"
        },
        {
          "internalType": "address",
          "name": "_votingMachine",
          "type": "address"
        }
      ],
      "stateMutability": "nonpayable",
      "type": "constructor"
    },
    {
      "anonymous": false,
      "inputs": [
        {
          "indexed": true,
          "internalType": "address",
          "name": "previousOwner",
          "type": "address"
        },
        {
          "indexed": true,
          "internalType": "address",
          "name": "newOwner",
          "type": "address"
        }
      ],
      "name": "OwnershipTransferred",
      "type": "event"
    },
    {
      "anonymous": false,
      "inputs": [
        {
          "indexed": true,
          "internalType": "bytes32",
          "name": "verificationRoot",
          "type": "bytes32"
        },
        {
          "indexed": false,
          "internalType": "uint256",
          "name": "verifiedVersionCount",
          "type": "uint256"
        }
      ],
      "name": "VerificationRootCalculated",
      "type": "event"
    },
    {
      "anonymous": false,
      "inputs": [
        {
          "indexed": true,
          "internalType": "bytes32",
          "name": "patchNodeId",
          "type": "bytes32"
        },
        {
          "indexed": false,
          "internalType": "bytes32",
          "name": "packageLocationHash",
          "type": "bytes32"
        },
        {
          "indexed": false,
          "internalType": "uint256",
          "name": "verifiedVersionIndex",
          "type": "uint256"
        }
      ],
      "name": "VersionVerified",
      "type": "event"
    },
    {
      "inputs": [],
      "name": "calculateVerificationRoot",
      "outputs": [
        {
          "internalType": "bytes32",
          "name": "",
          "type": "bytes32"
        }
      ],
      "stateMutability": "nonpayable",
      "type": "function"
    },
    {
      "inputs": [
        {
          "internalType": "address",
          "name": "_registry",
          "type": "address"
        },
        {
          "internalType": "address",
          "name": "_votingMachine",
          "type": "address"
        }
      ],
      "name": "initialize",
      "outputs": [],
      "stateMutability": "nonpayable",
      "type": "function"
    },
    {
      "inputs": [
        {
          "internalType": "bytes32",
          "name": "patchNodeId",
          "type": "bytes32"
        },
        {
          "internalType": "bytes32",
          "name": "packageLocationHash",
          "type": "bytes32"
        }
      ],
      "name": "onVersionVerified",
      "outputs": [],
      "stateMutability": "nonpayable",
      "type": "function"
    },
    {
      "inputs": [],
      "name": "owner",
      "outputs": [
        {
          "internalType": "address",
          "name": "",
          "type": "address"
        }
      ],
      "stateMutability": "view",
      "type": "function"
    },
    {
      "inputs": [],
      "name": "registry",
      "outputs": [
        {
          "internalType": "address",
          "name": "",
          "type": "address"
        }
      ],
      "stateMutability": "view",
      "type": "function"
    },
    {
      "inputs": [],
      "name": "renounceOwnership",
      "outputs": [],
      "stateMutability": "nonpayable",
      "type": "function"
    },
    {
      "inputs": [
        {
          "internalType": "address",
          "name": "newOwner",
          "type": "address"
        }
      ],
      "name": "transferOwnership",
      "outputs": [],
      "stateMutability": "nonpayable",
      "type": "function"
    },
    {
      "inputs": [
        {
          "internalType": "address",
          "name": "_registry",
          "type": "address"
        }
      ],
      "name": "updateRegistry",
      "outputs": [],
      "stateMutability": "nonpayable",
      "type": "function"
    },
    {
      "inputs": [
        {
          "internalType": "address",
          "name": "_verificationRootRelayer",
          "type": "address"
        }
      ],
      "name": "updateVerificationRootRelayer",
      "outputs": [],
      "stateMutability": "nonpayable",
      "type": "function"
    },
    {
      "inputs": [
        {
          "internalType": "address",
          "name": "_votingMachine",
          "type": "address"
        }
      ],
      "name": "updateVotingMachine",
      "outputs": [],
      "stateMutability": "nonpayable",
      "type": "function"
    },
    {
      "inputs": [],
      "name": "verificationRootRelayer",
      "outputs": [
        {
          "internalType": "address",
          "name": "",
          "type": "address"
        }
      ],
      "stateMutability": "view",
      "type": "function"
    },
    {
      "inputs": [],
      "name": "verifiedVersionCount",
      "outputs": [
        {
          "internalType": "uint256",
          "name": "",
          "type": "uint256"
        }
      ],
      "stateMutability": "view",
      "type": "function"
    },
    {
      "inputs": [],
      "name": "votingMachine",
      "outputs": [
        {
          "internalType": "address",
          "name": "",
          "type": "address"
        }
      ],
      "stateMutability": "view",
      "type": "function"
    }
  ],
  "transactionHash": "0x18fa853d627990540666a413859ef9addad19e51847285d7e12aea2aa4756da9",
  "args": [
    "0x98D669278F61BCC6a5c6c36b2F47b749364beA07",
    "0x6409eC45617f3f4Ae5C985D6f6C2C04F896519f5"
  ],
  "solcInputHash": "98078b1bbdce0a0c9e30c2c5aed56b25",
  "bytecode": "0x60806040523480156200001157600080fd5b5060405162001aab38038062001aab833981810160405281019062000037919062000586565b6200004982826200005160201b60201c565b5050620006be565b600060019054906101000a900460ff168062000078575060008054906101000a900460ff16155b620000ba576040517f08c379a0000000000000000000000000000000000000000000000000000000008152600401620000b190620005ee565b60405180910390fd5b60008060019054906101000a900460ff1615905080156200010b576001600060016101000a81548160ff02191690831515021790555060016000806101000a81548160ff0219169083151502179055505b6200011b620001c460201b60201c565b82606760006101000a81548173ffffffffffffffffffffffffffffffffffffffff021916908373ffffffffffffffffffffffffffffffffffffffff16021790555081606860006101000a81548173ffffffffffffffffffffffffffffffffffffffff021916908373ffffffffffffffffffffffffffffffffffffffff1602179055508015620001bf5760008060016101000a81548160ff0219169083151502179055505b505050565b600060019054906101000a900460ff1680620001eb575060008054906101000a900460ff16155b6200022d576040517f08c379a00000000000000000000000000000000000000000000000000000000081526004016200022490620005ee565b60405180910390fd5b60008060019054906101000a900460ff1615905080156200027e576001600060016101000a81548160ff02191690831515021790555060016000806101000a81548160ff0219169083151502179055505b6200028e620002c360201b60201c565b6200029e620003a260201b60201c565b8015620002c05760008060016101000a81548160ff0219169083151502179055505b50565b600060019054906101000a900460ff1680620002ea575060008054906101000a900460ff16155b6200032c576040517f08c379a00000000000000000000000000000000000000000000000000000000081526004016200032390620005ee565b60405180910390fd5b60008060019054906101000a900460ff1615905080156200037d576001600060016101000a81548160ff02191690831515021790555060016000806101000a81548160ff0219169083151502179055505b80156200039f5760008060016101000a81548160ff0219169083151502179055505b50565b600060019054906101000a900460ff1680620003c9575060008054906101000a900460ff16155b6200040b576040517f08c379a00000000000000000000000000000000000000000000000000000000081526004016200040290620005ee565b60405180910390fd5b60008060019054906101000a900460ff1615905080156200045c576001600060016101000a81548160ff02191690831515021790555060016000806101000a81548160ff0219169083151502179055505b6200047c62000470620004a160201b60201c565b620004a960201b60201c565b80156200049e5760008060016101000a81548160ff0219169083151502179055505b50565b600033905090565b6000603360009054906101000a900473ffffffffffffffffffffffffffffffffffffffff16905081603360006101000a81548173ffffffffffffffffffffffffffffffffffffffff021916908373ffffffffffffffffffffffffffffffffffffffff1602179055508173ffffffffffffffffffffffffffffffffffffffff168173ffffffffffffffffffffffffffffffffffffffff167f8be0079c531659141344cd1fd0a4f28419497f9722a3daafe3b4186f6b6457e060405160405180910390a35050565b6000815190506200058081620006a4565b92915050565b600080604083850312156200059a57600080fd5b6000620005aa858286016200056f565b9250506020620005bd858286016200056f565b9150509250929050565b6000620005d6602e8362000610565b9150620005e38262000655565b604082019050919050565b600060208201905081810360008301526200060981620005c7565b9050919050565b600082825260208201905092915050565b60006200062e8262000635565b9050919050565b600073ffffffffffffffffffffffffffffffffffffffff82169050919050565b7f496e697469616c697a61626c653a20636f6e747261637420697320616c72656160008201527f647920696e697469616c697a6564000000000000000000000000000000000000602082015250565b620006af8162000621565b8114620006bb57600080fd5b50565b6113dd80620006ce6000396000f3fe608060405234801561001057600080fd5b50600436106100cf5760003560e01c8063485cc9551161008c5780638da5cb5b116100665780638da5cb5b146101c6578063d4cf2426146101e4578063f2fde38b14610200578063f9e5eafd1461021c576100cf565b8063485cc95514610182578063715018a61461019e5780637b103999146101a8576100cf565b80630cfb0b4c146100d45780630e4c9807146100f25780631a5da6c81461010e5780632d33d2e31461012a57806330b321a3146101465780633edf7ca114610164575b600080fd5b6100dc61023a565b6040516100e9919061111a565b60405180910390f35b61010c60048036038101906101079190610f85565b6103b8565b005b61012860048036038101906101239190610f85565b610478565b005b610144600480360381019061013f9190610f85565b610538565b005b61014e6105f8565b60405161015b91906111be565b60405180910390f35b61016c6105fe565b60405161017991906110ff565b60405180910390f35b61019c60048036038101906101979190610fae565b610624565b005b6101a6610789565b005b6101b0610811565b6040516101bd91906110ff565b60405180910390f35b6101ce610837565b6040516101db91906110ff565b60405180910390f35b6101fe60048036038101906101f99190610fea565b610861565b005b61021a60048036038101906102159190610f85565b6109c9565b005b610224610ac1565b60405161023191906110ff565b60405180910390f35b6000606960009054906101000a900473ffffffffffffffffffffffffffffffffffffffff1673ffffffffffffffffffffffffffffffffffffffff163373ffffffffffffffffffffffffffffffffffffffff16146102c0577f4e487b7100000000000000000000000000000000000000000000000000000000600052600160045260246000fd5b60008060001b905060005b6065600001548111610376576000801b606560010160008381526020019081526020016000205414610363576000801b8214156103205760656001016000828152602001908152602001600020549150610362565b6065600101600082815260200190815260200160002054826040516020016103499291906110d3565b6040516020818303038152906040528051906020012091505b5b808061036e90611230565b9150506102cb565b817f1210df8b43a93ad809714edb0b1ea72f9dff7e13a9dbae46be35aa7028816ff1606a546040516103a891906111be565b60405180910390a2819250505090565b6103c0610ae7565b73ffffffffffffffffffffffffffffffffffffffff166103de610837565b73ffffffffffffffffffffffffffffffffffffffff1614610434576040517f08c379a000000000000000000000000000000000000000000000000000000000815260040161042b9061119e565b60405180910390fd5b80606960006101000a81548173ffffffffffffffffffffffffffffffffffffffff021916908373ffffffffffffffffffffffffffffffffffffffff16021790555050565b610480610ae7565b73ffffffffffffffffffffffffffffffffffffffff1661049e610837565b73ffffffffffffffffffffffffffffffffffffffff16146104f4576040517f08c379a00000000000000000000000000000000000000000000000000000000081526004016104eb9061119e565b60405180910390fd5b80606760006101000a81548173ffffffffffffffffffffffffffffffffffffffff021916908373ffffffffffffffffffffffffffffffffffffffff16021790555050565b610540610ae7565b73ffffffffffffffffffffffffffffffffffffffff1661055e610837565b73ffffffffffffffffffffffffffffffffffffffff16146105b4576040517f08c379a00000000000000000000000000000000000000000000000000000000081526004016105ab9061119e565b60405180910390fd5b80606860006101000a81548173ffffffffffffffffffffffffffffffffffffffff021916908373ffffffffffffffffffffffffffffffffffffffff16021790555050565b606a5481565b606860009054906101000a900473ffffffffffffffffffffffffffffffffffffffff1681565b600060019054906101000a900460ff168061064a575060008054906101000a900460ff16155b610689576040517f08c379a00000000000000000000000000000000000000000000000000000000081526004016106809061117e565b60405180910390fd5b60008060019054906101000a900460ff1615905080156106d9576001600060016101000a81548160ff02191690831515021790555060016000806101000a81548160ff0219169083151502179055505b6106e1610aef565b82606760006101000a81548173ffffffffffffffffffffffffffffffffffffffff021916908373ffffffffffffffffffffffffffffffffffffffff16021790555081606860006101000a81548173ffffffffffffffffffffffffffffffffffffffff021916908373ffffffffffffffffffffffffffffffffffffffff16021790555080156107845760008060016101000a81548160ff0219169083151502179055505b505050565b610791610ae7565b73ffffffffffffffffffffffffffffffffffffffff166107af610837565b73ffffffffffffffffffffffffffffffffffffffff1614610805576040517f08c379a00000000000000000000000000000000000000000000000000000000081526004016107fc9061119e565b60405180910390fd5b61080f6000610bd8565b565b606760009054906101000a900473ffffffffffffffffffffffffffffffffffffffff1681565b6000603360009054906101000a900473ffffffffffffffffffffffffffffffffffffffff16905090565b606860009054906101000a900473ffffffffffffffffffffffffffffffffffffffff1673ffffffffffffffffffffffffffffffffffffffff163373ffffffffffffffffffffffffffffffffffffffff16146108e5577f4e487b7100000000000000000000000000000000000000000000000000000000600052600160045260246000fd5b6108ef8282610c9e565b817f44cf500ed65246b251b99ffc28936276be48ac9b2699cb7e44831623c721da0582606a54604051610923929190611135565b60405180910390a2606a600081548092919061093e90611230565b9190505550606960009054906101000a900473ffffffffffffffffffffffffffffffffffffffff1673ffffffffffffffffffffffffffffffffffffffff1663e644e2966040518163ffffffff1660e01b8152600401600060405180830381600087803b1580156109ad57600080fd5b505af11580156109c1573d6000803e3d6000fd5b505050505050565b6109d1610ae7565b73ffffffffffffffffffffffffffffffffffffffff166109ef610837565b73ffffffffffffffffffffffffffffffffffffffff1614610a45576040517f08c379a0000000000000000000000000000000000000000000000000000000008152600401610a3c9061119e565b60405180910390fd5b600073ffffffffffffffffffffffffffffffffffffffff168173ffffffffffffffffffffffffffffffffffffffff161415610ab5576040517f08c379a0000000000000000000000000000000000000000000000000000000008152600401610aac9061115e565b60405180910390fd5b610abe81610bd8565b50565b606960009054906101000a900473ffffffffffffffffffffffffffffffffffffffff1681565b600033905090565b600060019054906101000a900460ff1680610b15575060008054906101000a900460ff16155b610b54576040517f08c379a0000000000000000000000000000000000000000000000000000000008152600401610b4b9061117e565b60405180910390fd5b60008060019054906101000a900460ff161590508015610ba4576001600060016101000a81548160ff02191690831515021790555060016000806101000a81548160ff0219169083151502179055505b610bac610d99565b610bb4610e72565b8015610bd55760008060016101000a81548160ff0219169083151502179055505b50565b6000603360009054906101000a900473ffffffffffffffffffffffffffffffffffffffff16905081603360006101000a81548173ffffffffffffffffffffffffffffffffffffffff021916908373ffffffffffffffffffffffffffffffffffffffff1602179055508173ffffffffffffffffffffffffffffffffffffffff168173ffffffffffffffffffffffffffffffffffffffff167f8be0079c531659141344cd1fd0a4f28419497f9722a3daafe3b4186f6b6457e060405160405180910390a35050565b60008282604051602001610cb39291906110d3565b60405160208183030381529060405280519060200120905060005b6000801b606560010160008381526020019081526020016000205414610d6057606560010160008281526020019081526020016000205482604051602001610d179291906110d3565b6040516020818303038152906040528051906020012091506000801b60656001016000838152602001908152602001600020819055508080610d5890611230565b915050610cce565b816065600101600083815260200190815260200160002081905550606560000154811115610d9357806065600001819055505b50505050565b600060019054906101000a900460ff1680610dbf575060008054906101000a900460ff16155b610dfe576040517f08c379a0000000000000000000000000000000000000000000000000000000008152600401610df59061117e565b60405180910390fd5b60008060019054906101000a900460ff161590508015610e4e576001600060016101000a81548160ff02191690831515021790555060016000806101000a81548160ff0219169083151502179055505b8015610e6f5760008060016101000a81548160ff0219169083151502179055505b50565b600060019054906101000a900460ff1680610e98575060008054906101000a900460ff16155b610ed7576040517f08c379a0000000000000000000000000000000000000000000000000000000008152600401610ece9061117e565b60405180910390fd5b60008060019054906101000a900460ff161590508015610f27576001600060016101000a81548160ff02191690831515021790555060016000806101000a81548160ff0219169083151502179055505b610f37610f32610ae7565b610bd8565b8015610f585760008060016101000a81548160ff0219169083151502179055505b50565b600081359050610f6a81611379565b92915050565b600081359050610f7f81611390565b92915050565b600060208284031215610f9757600080fd5b6000610fa584828501610f5b565b91505092915050565b60008060408385031215610fc157600080fd5b6000610fcf85828601610f5b565b9250506020610fe085828601610f5b565b9150509250929050565b60008060408385031215610ffd57600080fd5b600061100b85828601610f70565b925050602061101c85828601610f70565b9150509250929050565b61102f816111ea565b82525050565b61103e816111fc565b82525050565b611055611050826111fc565b611279565b82525050565b60006110686026836111d9565b9150611073826112b2565b604082019050919050565b600061108b602e836111d9565b915061109682611301565b604082019050919050565b60006110ae6020836111d9565b91506110b982611350565b602082019050919050565b6110cd81611226565b82525050565b60006110df8285611044565b6020820191506110ef8284611044565b6020820191508190509392505050565b60006020820190506111146000830184611026565b92915050565b600060208201905061112f6000830184611035565b92915050565b600060408201905061114a6000830185611035565b61115760208301846110c4565b9392505050565b600060208201905081810360008301526111778161105b565b9050919050565b600060208201905081810360008301526111978161107e565b9050919050565b600060208201905081810360008301526111b7816110a1565b9050919050565b60006020820190506111d360008301846110c4565b92915050565b600082825260208201905092915050565b60006111f582611206565b9050919050565b6000819050919050565b600073ffffffffffffffffffffffffffffffffffffffff82169050919050565b6000819050919050565b600061123b82611226565b91507fffffffffffffffffffffffffffffffffffffffffffffffffffffffffffffffff82141561126e5761126d611283565b5b600182019050919050565b6000819050919050565b7f4e487b7100000000000000000000000000000000000000000000000000000000600052601160045260246000fd5b7f4f776e61626c653a206e6577206f776e657220697320746865207a65726f206160008201527f6464726573730000000000000000000000000000000000000000000000000000602082015250565b7f496e697469616c697a61626c653a20636f6e747261637420697320616c72656160008201527f647920696e697469616c697a6564000000000000000000000000000000000000602082015250565b7f4f776e61626c653a2063616c6c6572206973206e6f7420746865206f776e6572600082015250565b611382816111ea565b811461138d57600080fd5b50565b611399816111fc565b81146113a457600080fd5b5056fea2646970667358221220498f2c4518d1f666e4d279abc22af88fa362a867023f9b017065506c8db886bd64736f6c63430008040033",
  "devdoc": {
    "kind": "dev",
    "methods": {
      "owner()": {
        "details": "Returns the address of the current owner."
      },
      "renounceOwnership()": {
        "details": "Leaves the contract without owner. It will not be possible to call `onlyOwner` functions anymore. Can only be called by the current owner. NOTE: Renouncing ownership will leave the contract without an owner, thereby removing any functionality that is only available to the owner."
      },
      "transferOwnership(address)": {
        "details": "Transfers ownership of the contract to a new account (`newOwner`). Can only be called by the current owner."
      }
    },
    "version": 1
  },
  "userdoc": {
    "kind": "user",
    "methods": {},
    "version": 1
  },
  "storageLayout": {
    "storage": [
      {
        "astId": 5319,
        "contract": "contracts/versioning/VerificationTreeManager.sol:VerificationTreeManager",
        "label": "_initialized",
        "offset": 0,
        "slot": "0",
        "type": "t_bool"
      },
      {
        "astId": 5322,
        "contract": "contracts/versioning/VerificationTreeManager.sol:VerificationTreeManager",
        "label": "_initializing",
        "offset": 1,
        "slot": "0",
        "type": "t_bool"
      },
      {
        "astId": 5402,
        "contract": "contracts/versioning/VerificationTreeManager.sol:VerificationTreeManager",
        "label": "__gap",
        "offset": 0,
        "slot": "1",
        "type": "t_array(t_uint256)50_storage"
      },
      {
        "astId": 5199,
        "contract": "contracts/versioning/VerificationTreeManager.sol:VerificationTreeManager",
        "label": "_owner",
        "offset": 0,
        "slot": "51",
        "type": "t_address"
      },
      {
        "astId": 5312,
        "contract": "contracts/versioning/VerificationTreeManager.sol:VerificationTreeManager",
        "label": "__gap",
        "offset": 0,
        "slot": "52",
        "type": "t_array(t_uint256)49_storage"
      },
      {
        "astId": 7847,
        "contract": "contracts/versioning/VerificationTreeManager.sol:VerificationTreeManager",
        "label": "verificationTree",
        "offset": 0,
        "slot": "101",
        "type": "t_struct(DynamicMerkleTree)7844_storage"
      },
      {
        "astId": 7849,
        "contract": "contracts/versioning/VerificationTreeManager.sol:VerificationTreeManager",
        "label": "registry",
        "offset": 0,
        "slot": "103",
        "type": "t_address"
      },
      {
        "astId": 7851,
        "contract": "contracts/versioning/VerificationTreeManager.sol:VerificationTreeManager",
        "label": "votingMachine",
        "offset": 0,
        "slot": "104",
        "type": "t_address"
      },
      {
        "astId": 7853,
        "contract": "contracts/versioning/VerificationTreeManager.sol:VerificationTreeManager",
        "label": "verificationRootRelayer",
        "offset": 0,
        "slot": "105",
        "type": "t_address"
      },
      {
        "astId": 7855,
        "contract": "contracts/versioning/VerificationTreeManager.sol:VerificationTreeManager",
        "label": "verifiedVersionCount",
        "offset": 0,
        "slot": "106",
        "type": "t_uint256"
      }
    ],
    "types": {
      "t_address": {
        "encoding": "inplace",
        "label": "address",
        "numberOfBytes": "20"
      },
      "t_array(t_uint256)49_storage": {
        "base": "t_uint256",
        "encoding": "inplace",
        "label": "uint256[49]",
        "numberOfBytes": "1568"
      },
      "t_array(t_uint256)50_storage": {
        "base": "t_uint256",
        "encoding": "inplace",
        "label": "uint256[50]",
        "numberOfBytes": "1600"
      },
      "t_bool": {
        "encoding": "inplace",
        "label": "bool",
        "numberOfBytes": "1"
      },
      "t_bytes32": {
        "encoding": "inplace",
        "label": "bytes32",
        "numberOfBytes": "32"
      },
      "t_mapping(t_uint256,t_bytes32)": {
        "encoding": "mapping",
        "key": "t_uint256",
        "label": "mapping(uint256 => bytes32)",
        "numberOfBytes": "32",
        "value": "t_bytes32"
      },
      "t_struct(DynamicMerkleTree)7844_storage": {
        "encoding": "inplace",
        "label": "struct VerificationTreeManager.DynamicMerkleTree",
        "members": [
          {
            "astId": 7839,
            "contract": "contracts/versioning/VerificationTreeManager.sol:VerificationTreeManager",
            "label": "highestTreeLevel",
            "offset": 0,
            "slot": "0",
            "type": "t_uint256"
          },
          {
            "astId": 7843,
            "contract": "contracts/versioning/VerificationTreeManager.sol:VerificationTreeManager",
            "label": "unpairedTreeLeaves",
            "offset": 0,
            "slot": "1",
            "type": "t_mapping(t_uint256,t_bytes32)"
          }
        ],
        "numberOfBytes": "64"
      },
      "t_uint256": {
        "encoding": "inplace",
        "label": "uint256",
        "numberOfBytes": "32"
      }
    }
  }
}