{
  "address": "0x10eFD12b38Ba992A42dd13311A4E6Bf73b13a64C",
  "abi": [
    {
      "inputs": [
        {
          "internalType": "address",
          "name": "owner",
          "type": "address"
        },
        {
          "internalType": "address",
          "name": "_registry",
          "type": "address"
        }
      ],
      "stateMutability": "nonpayable",
      "type": "constructor"
    },
    {
      "anonymous": false,
      "inputs": [
        {
          "indexed": true,
          "internalType": "address",
          "name": "previousOwner",
          "type": "address"
        },
        {
          "indexed": true,
          "internalType": "address",
          "name": "newOwner",
          "type": "address"
        }
      ],
      "name": "OwnershipTransferred",
      "type": "event"
    },
    {
      "anonymous": false,
      "inputs": [
        {
          "indexed": true,
          "internalType": "bytes32",
          "name": "packageId",
          "type": "bytes32"
        },
        {
          "indexed": true,
          "internalType": "bytes32",
          "name": "verifiedVersionId",
          "type": "bytes32"
        },
        {
          "indexed": true,
          "internalType": "bytes32",
          "name": "patchNodeId",
          "type": "bytes32"
        },
        {
          "indexed": false,
          "internalType": "uint256",
          "name": "major",
          "type": "uint256"
        },
        {
          "indexed": false,
          "internalType": "uint256",
          "name": "minor",
          "type": "uint256"
        },
        {
          "indexed": false,
          "internalType": "uint256",
          "name": "patch",
          "type": "uint256"
        },
        {
          "indexed": false,
          "internalType": "string",
          "name": "location",
          "type": "string"
        }
      ],
      "name": "VersionPublished",
      "type": "event"
    },
    {
      "inputs": [
        {
          "internalType": "address",
          "name": "_registry",
          "type": "address"
        }
      ],
      "name": "initialize",
      "outputs": [],
      "stateMutability": "nonpayable",
      "type": "function"
    },
    {
      "inputs": [],
      "name": "owner",
      "outputs": [
        {
          "internalType": "address",
          "name": "",
          "type": "address"
        }
      ],
      "stateMutability": "view",
      "type": "function"
    },
    {
      "inputs": [
        {
          "internalType": "bytes32",
          "name": "packageId",
          "type": "bytes32"
        },
        {
          "internalType": "bytes32",
          "name": "patchNodeId",
          "type": "bytes32"
        },
        {
          "internalType": "uint256",
          "name": "majorVersion",
          "type": "uint256"
        },
        {
          "internalType": "uint256",
          "name": "minorVersion",
          "type": "uint256"
        },
        {
          "internalType": "uint256",
          "name": "patchVersion",
          "type": "uint256"
        },
        {
          "internalType": "string",
          "name": "location",
          "type": "string"
        },
        {
          "internalType": "bytes32[]",
          "name": "proof",
          "type": "bytes32[]"
        },
        {
          "internalType": "bool[]",
          "name": "sides",
          "type": "bool[]"
        }
      ],
      "name": "publishVersion",
      "outputs": [],
      "stateMutability": "nonpayable",
      "type": "function"
    },
    {
      "inputs": [],
      "name": "registry",
      "outputs": [
        {
          "internalType": "address",
          "name": "",
          "type": "address"
        }
      ],
      "stateMutability": "view",
      "type": "function"
    },
    {
      "inputs": [],
      "name": "renounceOwnership",
      "outputs": [],
      "stateMutability": "nonpayable",
      "type": "function"
    },
    {
      "inputs": [
        {
          "internalType": "address",
          "name": "newOwner",
          "type": "address"
        }
      ],
      "name": "transferOwnership",
      "outputs": [],
      "stateMutability": "nonpayable",
      "type": "function"
    },
    {
      "inputs": [
        {
          "internalType": "address",
          "name": "_registry",
          "type": "address"
        }
      ],
      "name": "updateRegistry",
      "outputs": [],
      "stateMutability": "nonpayable",
      "type": "function"
    },
    {
      "inputs": [
        {
          "internalType": "bytes32",
          "name": "root",
          "type": "bytes32"
        }
      ],
      "name": "updateVerificationRoot",
      "outputs": [],
      "stateMutability": "nonpayable",
      "type": "function"
    },
    {
      "inputs": [
        {
          "internalType": "address",
          "name": "_verificationRootUpdater",
          "type": "address"
        }
      ],
      "name": "updateVerificationRootUpdater",
      "outputs": [],
      "stateMutability": "nonpayable",
      "type": "function"
    },
    {
      "inputs": [],
      "name": "verificationRoot",
      "outputs": [
        {
          "internalType": "bytes32",
          "name": "",
          "type": "bytes32"
        }
      ],
      "stateMutability": "view",
      "type": "function"
    },
    {
      "inputs": [],
      "name": "verificationRootUpdater",
      "outputs": [
        {
          "internalType": "address",
          "name": "",
          "type": "address"
        }
      ],
      "stateMutability": "view",
      "type": "function"
    }
  ],
  "args": [
    "0xf39Fd6e51aad88F6F4ce6aB8827279cffFb92266",
    "0xd32Edd7217b1fae9f492415fA98738A12610AFdf"
  ],
  "solcInputHash": "1bcf4f481a51a58f83bd3a333202be49",
  "bytecode": "0x60806040523480156200001157600080fd5b506040516200231e3803806200231e833981810160405281019062000037919062000694565b62000048816200006160201b60201c565b62000059826200019260201b60201c565b5050620008d6565b600060019054906101000a900460ff168062000088575060008054906101000a900460ff16155b620000ca576040517f08c379a0000000000000000000000000000000000000000000000000000000008152600401620000c1906200076c565b60405180910390fd5b60008060019054906101000a900460ff1615905080156200011b576001600060016101000a81548160ff02191690831515021790555060016000806101000a81548160ff0219169083151502179055505b6200012b620002a860201b60201c565b81606560006101000a81548173ffffffffffffffffffffffffffffffffffffffff021916908373ffffffffffffffffffffffffffffffffffffffff16021790555080156200018e5760008060016101000a81548160ff0219169083151502179055505b5050565b620001a2620003a760201b60201c565b73ffffffffffffffffffffffffffffffffffffffff16620001c8620003af60201b60201c565b73ffffffffffffffffffffffffffffffffffffffff161462000221576040517f08c379a000000000000000000000000000000000000000000000000000000000815260040162000218906200078e565b60405180910390fd5b600073ffffffffffffffffffffffffffffffffffffffff168173ffffffffffffffffffffffffffffffffffffffff16141562000294576040517f08c379a00000000000000000000000000000000000000000000000000000000081526004016200028b906200074a565b60405180910390fd5b620002a581620003d960201b60201c565b50565b600060019054906101000a900460ff1680620002cf575060008054906101000a900460ff16155b62000311576040517f08c379a000000000000000000000000000000000000000000000000000000000815260040162000308906200076c565b60405180910390fd5b60008060019054906101000a900460ff16159050801562000362576001600060016101000a81548160ff02191690831515021790555060016000806101000a81548160ff0219169083151502179055505b620003726200049f60201b60201c565b620003826200057e60201b60201c565b8015620003a45760008060016101000a81548160ff0219169083151502179055505b50565b600033905090565b6000603360009054906101000a900473ffffffffffffffffffffffffffffffffffffffff16905090565b6000603360009054906101000a900473ffffffffffffffffffffffffffffffffffffffff16905081603360006101000a81548173ffffffffffffffffffffffffffffffffffffffff021916908373ffffffffffffffffffffffffffffffffffffffff1602179055508173ffffffffffffffffffffffffffffffffffffffff168173ffffffffffffffffffffffffffffffffffffffff167f8be0079c531659141344cd1fd0a4f28419497f9722a3daafe3b4186f6b6457e060405160405180910390a35050565b600060019054906101000a900460ff1680620004c6575060008054906101000a900460ff16155b62000508576040517f08c379a0000000000000000000000000000000000000000000000000000000008152600401620004ff906200076c565b60405180910390fd5b60008060019054906101000a900460ff16159050801562000559576001600060016101000a81548160ff02191690831515021790555060016000806101000a81548160ff0219169083151502179055505b80156200057b5760008060016101000a81548160ff0219169083151502179055505b50565b600060019054906101000a900460ff1680620005a5575060008054906101000a900460ff16155b620005e7576040517f08c379a0000000000000000000000000000000000000000000000000000000008152600401620005de906200076c565b60405180910390fd5b60008060019054906101000a900460ff16159050801562000638576001600060016101000a81548160ff02191690831515021790555060016000806101000a81548160ff0219169083151502179055505b620006586200064c620003a760201b60201c565b620003d960201b60201c565b80156200067a5760008060016101000a81548160ff0219169083151502179055505b50565b6000815190506200068e81620008bc565b92915050565b60008060408385031215620006a857600080fd5b6000620006b8858286016200067d565b9250506020620006cb858286016200067d565b9150509250929050565b6000620006e4602683620007b0565b9150620006f182620007f5565b604082019050919050565b60006200070b602e83620007b0565b9150620007188262000844565b604082019050919050565b600062000732602083620007b0565b91506200073f8262000893565b602082019050919050565b600060208201905081810360008301526200076581620006d5565b9050919050565b600060208201905081810360008301526200078781620006fc565b9050919050565b60006020820190508181036000830152620007a98162000723565b9050919050565b600082825260208201905092915050565b6000620007ce82620007d5565b9050919050565b600073ffffffffffffffffffffffffffffffffffffffff82169050919050565b7f4f776e61626c653a206e6577206f776e657220697320746865207a65726f206160008201527f6464726573730000000000000000000000000000000000000000000000000000602082015250565b7f496e697469616c697a61626c653a20636f6e747261637420697320616c72656160008201527f647920696e697469616c697a6564000000000000000000000000000000000000602082015250565b7f4f776e61626c653a2063616c6c6572206973206e6f7420746865206f776e6572600082015250565b620008c781620007c1565b8114620008d357600080fd5b50565b611a3880620008e66000396000f3fe608060405234801561001057600080fd5b50600436106100a95760003560e01c80637b103999116100715780637b1039991461012a5780638da5cb5b14610148578063b61d211b14610166578063c4d66de814610184578063ce749723146101a0578063f2fde38b146101bc576100a9565b80630d032de8146100ae5780631a5da6c8146100cc57806338a34cf6146100e857806343ed751d14610104578063715018a614610120575b600080fd5b6100b66101d8565b6040516100c3919061143b565b60405180910390f35b6100e660048036038101906100e191906110bf565b6101de565b005b61010260048036038101906100fd91906110bf565b61029e565b005b61011e60048036038101906101199190611111565b61035e565b005b6101286103ec565b005b610132610474565b60405161013f9190611420565b60405180910390f35b61015061049a565b60405161015d9190611420565b60405180910390f35b61016e6104c4565b60405161017b9190611420565b60405180910390f35b61019e600480360381019061019991906110bf565b6104ea565b005b6101ba60048036038101906101b59190611163565b61060d565b005b6101d660048036038101906101d191906110bf565b61086c565b005b60675481565b6101e6610964565b73ffffffffffffffffffffffffffffffffffffffff1661020461049a565b73ffffffffffffffffffffffffffffffffffffffff161461025a576040517f08c379a000000000000000000000000000000000000000000000000000000000815260040161025190611510565b60405180910390fd5b80606560006101000a81548173ffffffffffffffffffffffffffffffffffffffff021916908373ffffffffffffffffffffffffffffffffffffffff16021790555050565b6102a6610964565b73ffffffffffffffffffffffffffffffffffffffff166102c461049a565b73ffffffffffffffffffffffffffffffffffffffff161461031a576040517f08c379a000000000000000000000000000000000000000000000000000000000815260040161031190611510565b60405180910390fd5b80606660006101000a81548173ffffffffffffffffffffffffffffffffffffffff021916908373ffffffffffffffffffffffffffffffffffffffff16021790555050565b606660009054906101000a900473ffffffffffffffffffffffffffffffffffffffff1673ffffffffffffffffffffffffffffffffffffffff163373ffffffffffffffffffffffffffffffffffffffff16146103e2577f4e487b7100000000000000000000000000000000000000000000000000000000600052600160045260246000fd5b8060678190555050565b6103f4610964565b73ffffffffffffffffffffffffffffffffffffffff1661041261049a565b73ffffffffffffffffffffffffffffffffffffffff1614610468576040517f08c379a000000000000000000000000000000000000000000000000000000000815260040161045f90611510565b60405180910390fd5b610472600061096c565b565b606560009054906101000a900473ffffffffffffffffffffffffffffffffffffffff1681565b6000603360009054906101000a900473ffffffffffffffffffffffffffffffffffffffff16905090565b606660009054906101000a900473ffffffffffffffffffffffffffffffffffffffff1681565b600060019054906101000a900460ff1680610510575060008054906101000a900460ff16155b61054f576040517f08c379a0000000000000000000000000000000000000000000000000000000008152600401610546906114f0565b60405180910390fd5b60008060019054906101000a900460ff16159050801561059f576001600060016101000a81548160ff02191690831515021790555060016000806101000a81548160ff0219169083151502179055505b6105a7610a32565b81606560006101000a81548173ffffffffffffffffffffffffffffffffffffffff021916908373ffffffffffffffffffffffffffffffffffffffff16021790555080156106095760008060016101000a81548160ff0219169083151502179055505b5050565b873373ffffffffffffffffffffffffffffffffffffffff1661062e82610b1b565b73ffffffffffffffffffffffffffffffffffffffff1614610684576040517f08c379a000000000000000000000000000000000000000000000000000000000815260040161067b906114d0565b60405180910390fd5b600088856040516020016106989190611409565b604051602081830303815290604052805190602001206040516020016106bf9291906113dd565b6040516020818303038152906040528051906020012090506106e5848483606754610bcf565b610724576040517f08c379a000000000000000000000000000000000000000000000000000000000815260040161071b90611550565b60405180910390fd5b6000606560009054906101000a900473ffffffffffffffffffffffffffffffffffffffff1673ffffffffffffffffffffffffffffffffffffffff16634dc1d99d8c8b8b8b8b6040518663ffffffff1660e01b8152600401610789959493929190611456565b602060405180830381600087803b1580156107a357600080fd5b505af11580156107b7573d6000803e3d6000fd5b505050506040513d601f19601f820116820180604052508101906107db919061113a565b9050808a1461081f576040517f08c379a000000000000000000000000000000000000000000000000000000000815260040161081690611530565b60405180910390fd5b89828c7f5875b5d75244d9184a17c71dedfa3481a6b268409027ba8fb88b3d8098dc206b8c8c8c8c6040516108579493929190611570565b60405180910390a45050505050505050505050565b610874610964565b73ffffffffffffffffffffffffffffffffffffffff1661089261049a565b73ffffffffffffffffffffffffffffffffffffffff16146108e8576040517f08c379a00000000000000000000000000000000000000000000000000000000081526004016108df90611510565b60405180910390fd5b600073ffffffffffffffffffffffffffffffffffffffff168173ffffffffffffffffffffffffffffffffffffffff161415610958576040517f08c379a000000000000000000000000000000000000000000000000000000000815260040161094f906114b0565b60405180910390fd5b6109618161096c565b50565b600033905090565b6000603360009054906101000a900473ffffffffffffffffffffffffffffffffffffffff16905081603360006101000a81548173ffffffffffffffffffffffffffffffffffffffff021916908373ffffffffffffffffffffffffffffffffffffffff1602179055508173ffffffffffffffffffffffffffffffffffffffff168173ffffffffffffffffffffffffffffffffffffffff167f8be0079c531659141344cd1fd0a4f28419497f9722a3daafe3b4186f6b6457e060405160405180910390a35050565b600060019054906101000a900460ff1680610a58575060008054906101000a900460ff16155b610a97576040517f08c379a0000000000000000000000000000000000000000000000000000000008152600401610a8e906114f0565b60405180910390fd5b60008060019054906101000a900460ff161590508015610ae7576001600060016101000a81548160ff02191690831515021790555060016000806101000a81548160ff0219169083151502179055505b610aef610ceb565b610af7610dc4565b8015610b185760008060016101000a81548160ff0219169083151502179055505b50565b6000606560009054906101000a900473ffffffffffffffffffffffffffffffffffffffff1673ffffffffffffffffffffffffffffffffffffffff1663427a94d4836040518263ffffffff1660e01b8152600401610b78919061143b565b60206040518083038186803b158015610b9057600080fd5b505afa158015610ba4573d6000803e3d6000fd5b505050506040513d601f19601f82011682018060405250810190610bc891906110e8565b9050919050565b60008083905060005b8651811015610cdc576000878281518110610c1c577f4e487b7100000000000000000000000000000000000000000000000000000000600052603260045260246000fd5b60200260200101519050868281518110610c5f577f4e487b7100000000000000000000000000000000000000000000000000000000600052603260045260246000fd5b602002602001015115610c9c578083604051602001610c7f9291906113dd565b604051602081830303815290604052805190602001209250610cc8565b8281604051602001610caf9291906113dd565b6040516020818303038152906040528051906020012092505b508080610cd490611756565b915050610bd8565b50828114915050949350505050565b600060019054906101000a900460ff1680610d11575060008054906101000a900460ff16155b610d50576040517f08c379a0000000000000000000000000000000000000000000000000000000008152600401610d47906114f0565b60405180910390fd5b60008060019054906101000a900460ff161590508015610da0576001600060016101000a81548160ff02191690831515021790555060016000806101000a81548160ff0219169083151502179055505b8015610dc15760008060016101000a81548160ff0219169083151502179055505b50565b600060019054906101000a900460ff1680610dea575060008054906101000a900460ff16155b610e29576040517f08c379a0000000000000000000000000000000000000000000000000000000008152600401610e20906114f0565b60405180910390fd5b60008060019054906101000a900460ff161590508015610e79576001600060016101000a81548160ff02191690831515021790555060016000806101000a81548160ff0219169083151502179055505b610e89610e84610964565b61096c565b8015610eaa5760008060016101000a81548160ff0219169083151502179055505b50565b6000610ec0610ebb846115e1565b6115bc565b90508083825260208201905082856020860282011115610edf57600080fd5b60005b85811015610f0f5781610ef58882611041565b845260208401935060208301925050600181019050610ee2565b5050509392505050565b6000610f2c610f278461160d565b6115bc565b90508083825260208201905082856020860282011115610f4b57600080fd5b60005b85811015610f7b5781610f618882611056565b845260208401935060208301925050600181019050610f4e565b5050509392505050565b6000610f98610f9384611639565b6115bc565b905082815260208101848484011115610fb057600080fd5b610fbb8482856116e3565b509392505050565b600081359050610fd2816119a6565b92915050565b600081519050610fe7816119a6565b92915050565b600082601f830112610ffe57600080fd5b813561100e848260208601610ead565b91505092915050565b600082601f83011261102857600080fd5b8135611038848260208601610f19565b91505092915050565b600081359050611050816119bd565b92915050565b600081359050611065816119d4565b92915050565b60008151905061107a816119d4565b92915050565b600082601f83011261109157600080fd5b81356110a1848260208601610f85565b91505092915050565b6000813590506110b9816119eb565b92915050565b6000602082840312156110d157600080fd5b60006110df84828501610fc3565b91505092915050565b6000602082840312156110fa57600080fd5b600061110884828501610fd8565b91505092915050565b60006020828403121561112357600080fd5b600061113184828501611056565b91505092915050565b60006020828403121561114c57600080fd5b600061115a8482850161106b565b91505092915050565b600080600080600080600080610100898b03121561118057600080fd5b600061118e8b828c01611056565b985050602061119f8b828c01611056565b97505060406111b08b828c016110aa565b96505060606111c18b828c016110aa565b95505060806111d28b828c016110aa565b94505060a089013567ffffffffffffffff8111156111ef57600080fd5b6111fb8b828c01611080565b93505060c089013567ffffffffffffffff81111561121857600080fd5b6112248b828c01611017565b92505060e089013567ffffffffffffffff81111561124157600080fd5b61124d8b828c01610fed565b9150509295985092959890939650565b61126681611691565b82525050565b611275816116af565b82525050565b61128c611287826116af565b61179f565b82525050565b600061129d8261166a565b6112a78185611675565b93506112b78185602086016116f2565b6112c081611807565b840191505092915050565b60006112d68261166a565b6112e08185611686565b93506112f08185602086016116f2565b80840191505092915050565b6000611309602683611675565b915061131482611818565b604082019050919050565b600061132c603483611675565b915061133782611867565b604082019050919050565b600061134f602e83611675565b915061135a826118b6565b604082019050919050565b6000611372602083611675565b915061137d82611905565b602082019050919050565b6000611395603e83611675565b91506113a08261192e565b604082019050919050565b60006113b8600d83611675565b91506113c38261197d565b602082019050919050565b6113d7816116d9565b82525050565b60006113e9828561127b565b6020820191506113f9828461127b565b6020820191508190509392505050565b600061141582846112cb565b915081905092915050565b6000602082019050611435600083018461125d565b92915050565b6000602082019050611450600083018461126c565b92915050565b600060a08201905061146b600083018861126c565b61147860208301876113ce565b61148560408301866113ce565b61149260608301856113ce565b81810360808301526114a48184611292565b90509695505050505050565b600060208201905081810360008301526114c9816112fc565b9050919050565b600060208201905081810360008301526114e98161131f565b9050919050565b6000602082019050818103600083015261150981611342565b9050919050565b6000602082019050818103600083015261152981611365565b9050919050565b6000602082019050818103600083015261154981611388565b9050919050565b60006020820190508181036000830152611569816113ab565b9050919050565b600060808201905061158560008301876113ce565b61159260208301866113ce565b61159f60408301856113ce565b81810360608301526115b18184611292565b905095945050505050565b60006115c66115d7565b90506115d28282611725565b919050565b6000604051905090565b600067ffffffffffffffff8211156115fc576115fb6117d8565b5b602082029050602081019050919050565b600067ffffffffffffffff821115611628576116276117d8565b5b602082029050602081019050919050565b600067ffffffffffffffff821115611654576116536117d8565b5b61165d82611807565b9050602081019050919050565b600081519050919050565b600082825260208201905092915050565b600081905092915050565b600061169c826116b9565b9050919050565b60008115159050919050565b6000819050919050565b600073ffffffffffffffffffffffffffffffffffffffff82169050919050565b6000819050919050565b82818337600083830152505050565b60005b838110156117105780820151818401526020810190506116f5565b8381111561171f576000848401525b50505050565b61172e82611807565b810181811067ffffffffffffffff8211171561174d5761174c6117d8565b5b80604052505050565b6000611761826116d9565b91507fffffffffffffffffffffffffffffffffffffffffffffffffffffffffffffffff821415611794576117936117a9565b5b600182019050919050565b6000819050919050565b7f4e487b7100000000000000000000000000000000000000000000000000000000600052601160045260246000fd5b7f4e487b7100000000000000000000000000000000000000000000000000000000600052604160045260246000fd5b6000601f19601f8301169050919050565b7f4f776e61626c653a206e6577206f776e657220697320746865207a65726f206160008201527f6464726573730000000000000000000000000000000000000000000000000000602082015250565b7f596f7520646f206e6f7420686176652061636365737320746f2074686520646f60008201527f6d61696e206f662074686973207061636b616765000000000000000000000000602082015250565b7f496e697469616c697a61626c653a20636f6e747261637420697320616c72656160008201527f647920696e697469616c697a6564000000000000000000000000000000000000602082015250565b7f4f776e61626c653a2063616c6c6572206973206e6f7420746865206f776e6572600082015250565b7f537570706c6965642070617463684e6f6465496420646f6573206e6f74206d6160008201527f746368207468652063616c63756c617465642070617463684e6f646549640000602082015250565b7f496e76616c69642070726f6f6600000000000000000000000000000000000000600082015250565b6119af81611691565b81146119ba57600080fd5b50565b6119c6816116a3565b81146119d157600080fd5b50565b6119dd816116af565b81146119e857600080fd5b50565b6119f4816116d9565b81146119ff57600080fd5b5056fea2646970667358221220edf4cf66358b6dc53b19cfe6b1fe9a2e9307e71d6caa5223ebb3ef814efb2f4a64736f6c63430008040033",
  "devdoc": {
    "kind": "dev",
    "methods": {
      "owner()": {
        "details": "Returns the address of the current owner."
      },
      "renounceOwnership()": {
        "details": "Leaves the contract without owner. It will not be possible to call `onlyOwner` functions anymore. Can only be called by the current owner. NOTE: Renouncing ownership will leave the contract without an owner, thereby removing any functionality that is only available to the owner."
      },
      "transferOwnership(address)": {
        "details": "Transfers ownership of the contract to a new account (`newOwner`). Can only be called by the current owner."
      }
    },
    "version": 1
  },
  "userdoc": {
    "kind": "user",
    "methods": {},
    "version": 1
  },
  "storageLayout": {
    "storage": [
      {
        "astId": 130,
        "contract": "contracts/versioning/VersionVerificationManager.sol:VersionVerificationManager",
        "label": "_initialized",
        "offset": 0,
        "slot": "0",
        "type": "t_bool"
      },
      {
        "astId": 133,
        "contract": "contracts/versioning/VersionVerificationManager.sol:VersionVerificationManager",
        "label": "_initializing",
        "offset": 1,
        "slot": "0",
        "type": "t_bool"
      },
      {
        "astId": 213,
        "contract": "contracts/versioning/VersionVerificationManager.sol:VersionVerificationManager",
        "label": "__gap",
        "offset": 0,
        "slot": "1",
        "type": "t_array(t_uint256)50_storage"
      },
      {
        "astId": 10,
        "contract": "contracts/versioning/VersionVerificationManager.sol:VersionVerificationManager",
        "label": "_owner",
        "offset": 0,
        "slot": "51",
        "type": "t_address"
      },
      {
        "astId": 123,
        "contract": "contracts/versioning/VersionVerificationManager.sol:VersionVerificationManager",
        "label": "__gap",
        "offset": 0,
        "slot": "52",
        "type": "t_array(t_uint256)49_storage"
      },
      {
        "astId": 1101,
        "contract": "contracts/versioning/VersionVerificationManager.sol:VersionVerificationManager",
        "label": "registry",
        "offset": 0,
        "slot": "101",
        "type": "t_address"
      },
      {
        "astId": 1103,
        "contract": "contracts/versioning/VersionVerificationManager.sol:VersionVerificationManager",
        "label": "verificationRootUpdater",
        "offset": 0,
        "slot": "102",
        "type": "t_address"
      },
      {
        "astId": 1105,
        "contract": "contracts/versioning/VersionVerificationManager.sol:VersionVerificationManager",
        "label": "verificationRoot",
        "offset": 0,
        "slot": "103",
        "type": "t_bytes32"
      }
    ],
    "types": {
      "t_address": {
        "encoding": "inplace",
        "label": "address",
        "numberOfBytes": "20"
      },
      "t_array(t_uint256)49_storage": {
        "base": "t_uint256",
        "encoding": "inplace",
        "label": "uint256[49]",
        "numberOfBytes": "1568"
      },
      "t_array(t_uint256)50_storage": {
        "base": "t_uint256",
        "encoding": "inplace",
        "label": "uint256[50]",
        "numberOfBytes": "1600"
      },
      "t_bool": {
        "encoding": "inplace",
        "label": "bool",
        "numberOfBytes": "1"
      },
      "t_bytes32": {
        "encoding": "inplace",
        "label": "bytes32",
        "numberOfBytes": "32"
      },
      "t_uint256": {
        "encoding": "inplace",
        "label": "uint256",
        "numberOfBytes": "32"
      }
    }
  }
}