{
  "address": "0x9b044e96F738c8c16Cc9a3Bbb167514C6203CB08",
  "abi": [
    {
      "inputs": [
        {
          "internalType": "bytes32[]",
          "name": "_domainRegistries",
          "type": "bytes32[]"
        },
        {
          "internalType": "address[]",
          "name": "_domainRegistryLinks",
          "type": "address[]"
        }
      ],
      "stateMutability": "nonpayable",
      "type": "constructor"
    },
    {
      "inputs": [],
      "name": "DomainRegistryNotSupported",
      "type": "error"
    },
    {
      "inputs": [],
      "name": "IdentifierNotReset",
      "type": "error"
    },
    {
      "inputs": [],
      "name": "InvalidBuildMetadata",
      "type": "error"
    },
    {
      "inputs": [],
      "name": "InvalidIdentifier",
      "type": "error"
    },
    {
      "inputs": [],
      "name": "NodeNotFound",
      "type": "error"
    },
    {
      "inputs": [],
      "name": "OnlyDomainRegistryOwner",
      "type": "error"
    },
    {
      "inputs": [],
      "name": "OnlyOrganizationController",
      "type": "error"
    },
    {
      "inputs": [],
      "name": "OnlyOrganizationOwner",
      "type": "error"
    },
    {
      "inputs": [],
      "name": "OnlyPackageController",
      "type": "error"
    },
    {
      "inputs": [],
      "name": "OnlyPackageOwner",
      "type": "error"
    },
    {
      "inputs": [],
      "name": "PackageAlreadyExists",
      "type": "error"
    },
    {
      "inputs": [],
      "name": "ReleaseIdentifierMustBeNumeric",
      "type": "error"
    },
    {
      "inputs": [],
      "name": "TooManyIdentifiers",
      "type": "error"
    },
    {
      "inputs": [],
      "name": "VersionAlreadyPublished",
      "type": "error"
    },
    {
      "inputs": [],
      "name": "VersionNotFullLength",
      "type": "error"
    },
    {
      "anonymous": false,
      "inputs": [
        {
          "indexed": true,
          "internalType": "bytes32",
          "name": "organizationId",
          "type": "bytes32"
        },
        {
          "indexed": true,
          "internalType": "address",
          "name": "owner",
          "type": "address"
        }
      ],
      "name": "OrganizationClaimed",
      "type": "event"
    },
    {
      "anonymous": false,
      "inputs": [
        {
          "indexed": true,
          "internalType": "bytes32",
          "name": "organizationId",
          "type": "bytes32"
        },
        {
          "indexed": true,
          "internalType": "address",
          "name": "previousController",
          "type": "address"
        },
        {
          "indexed": true,
          "internalType": "address",
          "name": "newController",
          "type": "address"
        }
      ],
      "name": "OrganizationControllerChanged",
      "type": "event"
    },
    {
      "anonymous": false,
      "inputs": [
        {
          "indexed": true,
          "internalType": "bytes32",
          "name": "organizationId",
          "type": "bytes32"
        },
        {
          "indexed": true,
          "internalType": "address",
          "name": "previousOwner",
          "type": "address"
        },
        {
          "indexed": true,
          "internalType": "address",
          "name": "newOwner",
          "type": "address"
        }
      ],
      "name": "OrganizationOwnerChanged",
      "type": "event"
    },
    {
      "anonymous": false,
      "inputs": [
        {
          "indexed": true,
          "internalType": "bytes32",
          "name": "domainRegistry",
          "type": "bytes32"
        },
        {
          "indexed": true,
          "internalType": "bytes32",
          "name": "domainRegistryNode",
          "type": "bytes32"
        },
        {
          "indexed": false,
          "internalType": "address",
          "name": "domainOwner",
          "type": "address"
        },
        {
          "indexed": false,
          "internalType": "address",
          "name": "newOrganizationOwner",
          "type": "address"
        }
      ],
      "name": "OrganizationOwnershipClaimed",
      "type": "event"
    },
    {
      "anonymous": false,
      "inputs": [
        {
          "indexed": true,
          "internalType": "address",
          "name": "previousOwner",
          "type": "address"
        },
        {
          "indexed": true,
          "internalType": "address",
          "name": "newOwner",
          "type": "address"
        }
      ],
      "name": "OwnershipTransferred",
      "type": "event"
    },
    {
      "anonymous": false,
      "inputs": [
        {
          "indexed": false,
          "internalType": "bytes32",
          "name": "packageId",
          "type": "bytes32"
        },
        {
          "indexed": true,
          "internalType": "address",
          "name": "previousController",
          "type": "address"
        },
        {
          "indexed": true,
          "internalType": "address",
          "name": "newController",
          "type": "address"
        }
      ],
      "name": "PackageControllerChanged",
      "type": "event"
    },
    {
      "anonymous": false,
      "inputs": [
        {
          "indexed": false,
          "internalType": "bytes32",
          "name": "packageId",
          "type": "bytes32"
        },
        {
          "indexed": true,
          "internalType": "address",
          "name": "previousOwner",
          "type": "address"
        },
        {
          "indexed": true,
          "internalType": "address",
          "name": "newOwner",
          "type": "address"
        }
      ],
      "name": "PackageOwnerChanged",
      "type": "event"
    },
    {
      "anonymous": false,
      "inputs": [
        {
          "indexed": true,
          "internalType": "bytes32",
          "name": "organizationId",
          "type": "bytes32"
        },
        {
          "indexed": true,
          "internalType": "bytes32",
          "name": "packageId",
          "type": "bytes32"
        },
        {
          "indexed": true,
          "internalType": "bytes32",
          "name": "packageName",
          "type": "bytes32"
        },
        {
          "indexed": false,
          "internalType": "address",
          "name": "packageOwner",
          "type": "address"
        },
        {
          "indexed": false,
          "internalType": "address",
          "name": "packageController",
          "type": "address"
        }
      ],
      "name": "PackageRegistered",
      "type": "event"
    },
    {
      "anonymous": false,
      "inputs": [
        {
          "indexed": false,
          "internalType": "address",
          "name": "trustedVersionPublisher",
          "type": "address"
        }
      ],
      "name": "TrustedVersionPublisherSet",
      "type": "event"
    },
    {
      "anonymous": false,
      "inputs": [
        {
          "indexed": true,
          "internalType": "bytes32",
          "name": "packageId",
          "type": "bytes32"
        },
        {
          "indexed": true,
          "internalType": "bytes32",
          "name": "versionNodeId",
          "type": "bytes32"
        },
        {
          "indexed": false,
          "internalType": "bytes",
          "name": "versionBytes",
          "type": "bytes"
        },
        {
          "indexed": false,
          "internalType": "bytes32",
          "name": "buildMetadata",
          "type": "bytes32"
        },
        {
          "indexed": false,
          "internalType": "string",
          "name": "location",
          "type": "string"
        }
      ],
      "name": "VersionPublished",
      "type": "event"
    },
    {
      "inputs": [
        {
          "internalType": "bytes32",
          "name": "domainRegistry",
          "type": "bytes32"
        },
        {
          "internalType": "bytes32",
          "name": "domainRegistryNode",
          "type": "bytes32"
        },
        {
          "internalType": "address",
          "name": "newOrganizationOwner",
          "type": "address"
        }
      ],
      "name": "claimOrganizationOwnership",
      "outputs": [],
      "stateMutability": "nonpayable",
      "type": "function"
    },
    {
      "inputs": [
        {
          "internalType": "bytes32",
          "name": "domainRegistry",
          "type": "bytes32"
        },
        {
          "internalType": "bytes32",
          "name": "domainRegistryNode",
          "type": "bytes32"
        }
      ],
      "name": "domainOwner",
      "outputs": [
        {
          "internalType": "address",
          "name": "",
          "type": "address"
        }
      ],
      "stateMutability": "view",
      "type": "function"
    },
    {
      "inputs": [
        {
          "internalType": "bytes32",
          "name": "",
          "type": "bytes32"
        }
      ],
      "name": "domainRegistryLinks",
      "outputs": [
        {
          "internalType": "address",
          "name": "",
          "type": "address"
        }
      ],
      "stateMutability": "view",
      "type": "function"
    },
    {
      "inputs": [],
      "name": "initialize",
      "outputs": [],
      "stateMutability": "nonpayable",
      "type": "function"
    },
    {
      "inputs": [
        {
          "internalType": "bytes32",
          "name": "versionNodeId",
          "type": "bytes32"
        }
      ],
      "name": "latestPrereleaseLocation",
      "outputs": [
        {
          "internalType": "string",
          "name": "location",
          "type": "string"
        }
      ],
      "stateMutability": "view",
      "type": "function"
    },
    {
      "inputs": [
        {
          "internalType": "bytes32",
          "name": "versionNodeId",
          "type": "bytes32"
        }
      ],
      "name": "latestPrereleaseNode",
      "outputs": [
        {
          "internalType": "bytes32",
          "name": "nodeId",
          "type": "bytes32"
        }
      ],
      "stateMutability": "view",
      "type": "function"
    },
    {
      "inputs": [
        {
          "internalType": "bytes32",
          "name": "versionNodeId",
          "type": "bytes32"
        }
      ],
      "name": "latestReleaseLocation",
      "outputs": [
        {
          "internalType": "string",
          "name": "location",
          "type": "string"
        }
      ],
      "stateMutability": "view",
      "type": "function"
    },
    {
      "inputs": [
        {
          "internalType": "bytes32",
          "name": "versionNodeId",
          "type": "bytes32"
        }
      ],
      "name": "latestReleaseNode",
      "outputs": [
        {
          "internalType": "bytes32",
          "name": "nodeId",
          "type": "bytes32"
        }
      ],
      "stateMutability": "view",
      "type": "function"
    },
    {
      "inputs": [
        {
          "internalType": "bytes32",
          "name": "organizationId",
          "type": "bytes32"
        }
      ],
      "name": "organization",
      "outputs": [
        {
          "internalType": "bool",
          "name": "exists",
          "type": "bool"
        },
        {
          "internalType": "address",
          "name": "owner",
          "type": "address"
        },
        {
          "internalType": "address",
          "name": "controller",
          "type": "address"
        }
      ],
      "stateMutability": "view",
      "type": "function"
    },
    {
      "inputs": [
        {
          "internalType": "bytes32",
          "name": "organizationId",
          "type": "bytes32"
        }
      ],
      "name": "organizationController",
      "outputs": [
        {
          "internalType": "address",
          "name": "",
          "type": "address"
        }
      ],
      "stateMutability": "view",
      "type": "function"
    },
    {
      "inputs": [],
      "name": "organizationCount",
      "outputs": [
        {
          "internalType": "uint256",
          "name": "",
          "type": "uint256"
        }
      ],
      "stateMutability": "view",
      "type": "function"
    },
    {
      "inputs": [
        {
          "internalType": "bytes32",
          "name": "organizationId",
          "type": "bytes32"
        }
      ],
      "name": "organizationExists",
      "outputs": [
        {
          "internalType": "bool",
          "name": "",
          "type": "bool"
        }
      ],
      "stateMutability": "view",
      "type": "function"
    },
    {
      "inputs": [
        {
          "internalType": "uint256",
          "name": "start",
          "type": "uint256"
        },
        {
          "internalType": "uint256",
          "name": "count",
          "type": "uint256"
        }
      ],
      "name": "organizationIds",
      "outputs": [
        {
          "internalType": "bytes32[]",
          "name": "",
          "type": "bytes32[]"
        }
      ],
      "stateMutability": "view",
      "type": "function"
    },
    {
      "inputs": [
        {
          "internalType": "bytes32",
          "name": "organizationId",
          "type": "bytes32"
        }
      ],
      "name": "organizationOwner",
      "outputs": [
        {
          "internalType": "address",
          "name": "",
          "type": "address"
        }
      ],
      "stateMutability": "view",
      "type": "function"
    },
    {
      "inputs": [],
      "name": "owner",
      "outputs": [
        {
          "internalType": "address",
          "name": "",
          "type": "address"
        }
      ],
      "stateMutability": "view",
      "type": "function"
    },
    {
      "inputs": [
        {
          "internalType": "bytes32",
          "name": "packageId",
          "type": "bytes32"
        }
      ],
      "name": "package",
      "outputs": [
        {
          "internalType": "bool",
          "name": "exists",
          "type": "bool"
        },
        {
          "internalType": "address",
          "name": "owner",
          "type": "address"
        },
        {
          "internalType": "address",
          "name": "controller",
          "type": "address"
        },
        {
          "internalType": "bytes32",
          "name": "organizationId",
          "type": "bytes32"
        }
      ],
      "stateMutability": "view",
      "type": "function"
    },
    {
      "inputs": [
        {
          "internalType": "bytes32",
          "name": "packageId",
          "type": "bytes32"
        }
      ],
      "name": "packageController",
      "outputs": [
        {
          "internalType": "address",
          "name": "",
          "type": "address"
        }
      ],
      "stateMutability": "view",
      "type": "function"
    },
    {
      "inputs": [
        {
          "internalType": "bytes32",
          "name": "organizationId",
          "type": "bytes32"
        }
      ],
      "name": "packageCount",
      "outputs": [
        {
          "internalType": "uint256",
          "name": "",
          "type": "uint256"
        }
      ],
      "stateMutability": "view",
      "type": "function"
    },
    {
      "inputs": [
        {
          "internalType": "bytes32",
          "name": "packageId",
          "type": "bytes32"
        }
      ],
      "name": "packageExists",
      "outputs": [
        {
          "internalType": "bool",
          "name": "",
          "type": "bool"
        }
      ],
      "stateMutability": "view",
      "type": "function"
    },
    {
      "inputs": [
        {
          "internalType": "bytes32",
          "name": "organizationId",
          "type": "bytes32"
        },
        {
          "internalType": "uint256",
          "name": "start",
          "type": "uint256"
        },
        {
          "internalType": "uint256",
          "name": "count",
          "type": "uint256"
        }
      ],
      "name": "packageIds",
      "outputs": [
        {
          "internalType": "bytes32[]",
          "name": "",
          "type": "bytes32[]"
        }
      ],
      "stateMutability": "view",
      "type": "function"
    },
    {
      "inputs": [
        {
          "internalType": "bytes32",
          "name": "packageId",
          "type": "bytes32"
        }
      ],
      "name": "packageOrganizationId",
      "outputs": [
        {
          "internalType": "bytes32",
          "name": "",
          "type": "bytes32"
        }
      ],
      "stateMutability": "view",
      "type": "function"
    },
    {
      "inputs": [
        {
          "internalType": "bytes32",
          "name": "packageId",
          "type": "bytes32"
        }
      ],
      "name": "packageOwner",
      "outputs": [
        {
          "internalType": "address",
          "name": "",
          "type": "address"
        }
      ],
      "stateMutability": "view",
      "type": "function"
    },
    {
      "inputs": [
        {
          "internalType": "bytes32",
          "name": "packageId",
          "type": "bytes32"
        },
        {
          "internalType": "bytes",
          "name": "versionBytes",
          "type": "bytes"
        },
        {
          "internalType": "bytes32",
          "name": "buildMetadata",
          "type": "bytes32"
        },
        {
          "internalType": "string",
          "name": "location",
          "type": "string"
        }
      ],
      "name": "publishVersion",
      "outputs": [
        {
          "internalType": "bytes32",
          "name": "nodeId",
          "type": "bytes32"
        }
      ],
      "stateMutability": "nonpayable",
      "type": "function"
    },
    {
      "inputs": [
        {
          "internalType": "bytes32",
          "name": "organizationId",
          "type": "bytes32"
        },
        {
          "internalType": "bytes32",
          "name": "packageName",
          "type": "bytes32"
        },
        {
          "internalType": "address",
          "name": "packageOwner",
          "type": "address"
        },
        {
          "internalType": "address",
          "name": "packageController",
          "type": "address"
        }
      ],
      "name": "registerPackage",
      "outputs": [],
      "stateMutability": "nonpayable",
      "type": "function"
    },
    {
      "inputs": [],
      "name": "renounceOwnership",
      "outputs": [],
      "stateMutability": "nonpayable",
      "type": "function"
    },
    {
      "inputs": [
        {
          "internalType": "bytes32",
          "name": "organizationId",
          "type": "bytes32"
        },
        {
          "internalType": "address",
          "name": "newController",
          "type": "address"
        }
      ],
      "name": "setOrganizationController",
      "outputs": [],
      "stateMutability": "nonpayable",
      "type": "function"
    },
    {
      "inputs": [
        {
          "internalType": "bytes32",
          "name": "packageId",
          "type": "bytes32"
        },
        {
          "internalType": "address",
          "name": "newController",
          "type": "address"
        }
      ],
      "name": "setPackageController",
      "outputs": [],
      "stateMutability": "nonpayable",
      "type": "function"
    },
    {
      "inputs": [
        {
          "internalType": "bytes32",
          "name": "packageId",
          "type": "bytes32"
        },
        {
          "internalType": "address",
          "name": "newOwner",
          "type": "address"
        }
      ],
      "name": "setPackageOwner",
      "outputs": [],
      "stateMutability": "nonpayable",
      "type": "function"
    },
    {
      "inputs": [
        {
          "internalType": "bytes32",
          "name": "organizationId",
          "type": "bytes32"
        },
        {
          "internalType": "address",
          "name": "newController",
          "type": "address"
        }
      ],
      "name": "transferOrganizationControl",
      "outputs": [],
      "stateMutability": "nonpayable",
      "type": "function"
    },
    {
      "inputs": [
        {
          "internalType": "bytes32",
          "name": "organizationId",
          "type": "bytes32"
        },
        {
          "internalType": "address",
          "name": "newOwner",
          "type": "address"
        }
      ],
      "name": "transferOrganizationOwnership",
      "outputs": [],
      "stateMutability": "nonpayable",
      "type": "function"
    },
    {
      "inputs": [
        {
          "internalType": "address",
          "name": "newOwner",
          "type": "address"
        }
      ],
      "name": "transferOwnership",
      "outputs": [],
      "stateMutability": "nonpayable",
      "type": "function"
    },
    {
      "inputs": [
        {
          "internalType": "bytes32",
          "name": "packageId",
          "type": "bytes32"
        },
        {
          "internalType": "address",
          "name": "newController",
          "type": "address"
        }
      ],
      "name": "transferPackageControl",
      "outputs": [],
      "stateMutability": "nonpayable",
      "type": "function"
    },
    {
      "inputs": [
        {
          "internalType": "bytes32",
          "name": "packageId",
          "type": "bytes32"
        },
        {
          "internalType": "address",
          "name": "newOwner",
          "type": "address"
        }
      ],
      "name": "transferPackageOwnership",
      "outputs": [],
      "stateMutability": "nonpayable",
      "type": "function"
    },
    {
      "inputs": [
        {
          "internalType": "bytes32",
          "name": "nodeId",
          "type": "bytes32"
        }
      ],
      "name": "version",
      "outputs": [
        {
          "internalType": "bool",
          "name": "exists",
          "type": "bool"
        },
        {
          "internalType": "bool",
          "name": "leaf",
          "type": "bool"
        },
        {
          "internalType": "uint8",
          "name": "level",
          "type": "uint8"
        },
        {
          "internalType": "uint256",
          "name": "latestPrereleaseVersion",
          "type": "uint256"
        },
        {
          "internalType": "uint256",
          "name": "latestReleaseVersion",
          "type": "uint256"
        },
        {
          "internalType": "bytes32",
          "name": "buildMetadata",
          "type": "bytes32"
        },
        {
          "internalType": "string",
          "name": "location",
          "type": "string"
        }
      ],
      "stateMutability": "view",
      "type": "function"
    },
    {
      "inputs": [
        {
          "internalType": "bytes32",
          "name": "nodeId",
          "type": "bytes32"
        }
      ],
      "name": "versionBuildMetadata",
      "outputs": [
        {
          "internalType": "bytes32",
          "name": "",
          "type": "bytes32"
        }
      ],
      "stateMutability": "view",
      "type": "function"
    },
    {
      "inputs": [
        {
          "internalType": "bytes32",
          "name": "packageId",
          "type": "bytes32"
        }
      ],
      "name": "versionCount",
      "outputs": [
        {
          "internalType": "uint256",
          "name": "",
          "type": "uint256"
        }
      ],
      "stateMutability": "view",
      "type": "function"
    },
    {
      "inputs": [
        {
          "internalType": "bytes32",
          "name": "nodeId",
          "type": "bytes32"
        }
      ],
      "name": "versionExists",
      "outputs": [
        {
          "internalType": "bool",
          "name": "",
          "type": "bool"
        }
      ],
      "stateMutability": "view",
      "type": "function"
    },
    {
      "inputs": [
        {
          "internalType": "bytes32",
          "name": "packageId",
          "type": "bytes32"
        },
        {
          "internalType": "uint256",
          "name": "start",
          "type": "uint256"
        },
        {
          "internalType": "uint256",
          "name": "count",
          "type": "uint256"
        }
      ],
      "name": "versionIds",
      "outputs": [
        {
          "internalType": "bytes32[]",
          "name": "",
          "type": "bytes32[]"
        }
      ],
      "stateMutability": "view",
      "type": "function"
    },
    {
      "inputs": [
        {
          "internalType": "bytes32",
          "name": "nodeId",
          "type": "bytes32"
        }
      ],
      "name": "versionLocation",
      "outputs": [
        {
          "internalType": "string",
          "name": "",
          "type": "string"
        }
      ],
      "stateMutability": "view",
      "type": "function"
    },
    {
      "inputs": [
        {
          "internalType": "bytes32",
          "name": "versionNodeId",
          "type": "bytes32"
        }
      ],
      "name": "versionMetadata",
      "outputs": [
        {
          "components": [
            {
              "internalType": "bool",
              "name": "exists",
              "type": "bool"
            },
            {
              "internalType": "bool",
              "name": "leaf",
              "type": "bool"
            },
            {
              "internalType": "uint8",
              "name": "level",
              "type": "uint8"
            },
            {
              "internalType": "uint256",
              "name": "latestPrereleaseVersion",
              "type": "uint256"
            },
            {
              "internalType": "uint256",
              "name": "latestReleaseVersion",
              "type": "uint256"
            }
          ],
          "internalType": "struct IVersionRegistry.VersionNodeMetadata",
          "name": "nodeMetadata",
          "type": "tuple"
        }
      ],
      "stateMutability": "view",
      "type": "function"
    }
  ],
  "transactionHash": "0x311b3765814ee5c7b0de87874b7a43a2b3701347a52c46d78eec108126933031",
  "args": [
    [
      "0x656e730000000000000000000000000000000000000000000000000000000000"
    ],
    [
      "0x86Fc08B4e06d99D70Ff98b5592E4A3bC2d8e8128"
    ]
  ],
  "solcInputHash": "b88e060abe69238041f6e18b2c73297e",
  "bytecode": "0x60806040523480156200001157600080fd5b5060405162004ef638038062004ef68339818101604052810190620000379190620008e3565b8181620000496200014a60201b60201c565b805182511462000090576040517f08c379a00000000000000000000000000000000000000000000000000000000081526004016200008790620009ef565b60405180910390fd5b60005b82518110156200013f57818181518110620000b357620000b262000a11565b5b6020026020010151606a6000858481518110620000d557620000d462000a11565b5b6020026020010151815260200190815260200160002060006101000a81548173ffffffffffffffffffffffffffffffffffffffff021916908373ffffffffffffffffffffffffffffffffffffffff1602179055508080620001369062000a79565b91505062000093565b505050505062000b5f565b600060019054906101000a900460ff168062000171575060008054906101000a900460ff16155b620001b3576040517f08c379a0000000000000000000000000000000000000000000000000000000008152600401620001aa9062000b3d565b60405180910390fd5b60008060019054906101000a900460ff16159050801562000204576001600060016101000a81548160ff02191690831515021790555060016000806101000a81548160ff0219169083151502179055505b620002146200023960201b60201c565b8015620002365760008060016101000a81548160ff0219169083151502179055505b50565b600060019054906101000a900460ff168062000260575060008054906101000a900460ff16155b620002a2576040517f08c379a0000000000000000000000000000000000000000000000000000000008152600401620002999062000b3d565b60405180910390fd5b60008060019054906101000a900460ff161590508015620002f3576001600060016101000a81548160ff02191690831515021790555060016000806101000a81548160ff0219169083151502179055505b620003036200033860201b60201c565b620003136200041760201b60201c565b8015620003355760008060016101000a81548160ff0219169083151502179055505b50565b600060019054906101000a900460ff16806200035f575060008054906101000a900460ff16155b620003a1576040517f08c379a0000000000000000000000000000000000000000000000000000000008152600401620003989062000b3d565b60405180910390fd5b60008060019054906101000a900460ff161590508015620003f2576001600060016101000a81548160ff02191690831515021790555060016000806101000a81548160ff0219169083151502179055505b8015620004145760008060016101000a81548160ff0219169083151502179055505b50565b600060019054906101000a900460ff16806200043e575060008054906101000a900460ff16155b62000480576040517f08c379a0000000000000000000000000000000000000000000000000000000008152600401620004779062000b3d565b60405180910390fd5b60008060019054906101000a900460ff161590508015620004d1576001600060016101000a81548160ff02191690831515021790555060016000806101000a81548160ff0219169083151502179055505b620004f1620004e56200051660201b60201c565b6200051e60201b60201c565b8015620005135760008060016101000a81548160ff0219169083151502179055505b50565b600033905090565b6000603360009054906101000a900473ffffffffffffffffffffffffffffffffffffffff16905081603360006101000a81548173ffffffffffffffffffffffffffffffffffffffff021916908373ffffffffffffffffffffffffffffffffffffffff1602179055508173ffffffffffffffffffffffffffffffffffffffff168173ffffffffffffffffffffffffffffffffffffffff167f8be0079c531659141344cd1fd0a4f28419497f9722a3daafe3b4186f6b6457e060405160405180910390a35050565b6000604051905090565b600080fd5b600080fd5b600080fd5b6000601f19601f8301169050919050565b7f4e487b7100000000000000000000000000000000000000000000000000000000600052604160045260246000fd5b6200064882620005fd565b810181811067ffffffffffffffff821117156200066a57620006696200060e565b5b80604052505050565b60006200067f620005e4565b90506200068d82826200063d565b919050565b600067ffffffffffffffff821115620006b057620006af6200060e565b5b602082029050602081019050919050565b600080fd5b6000819050919050565b620006db81620006c6565b8114620006e757600080fd5b50565b600081519050620006fb81620006d0565b92915050565b600062000718620007128462000692565b62000673565b905080838252602082019050602084028301858111156200073e576200073d620006c1565b5b835b818110156200076b5780620007568882620006ea565b84526020840193505060208101905062000740565b5050509392505050565b600082601f8301126200078d576200078c620005f8565b5b81516200079f84826020860162000701565b91505092915050565b600067ffffffffffffffff821115620007c657620007c56200060e565b5b602082029050602081019050919050565b600073ffffffffffffffffffffffffffffffffffffffff82169050919050565b60006200080482620007d7565b9050919050565b6200081681620007f7565b81146200082257600080fd5b50565b60008151905062000836816200080b565b92915050565b6000620008536200084d84620007a8565b62000673565b90508083825260208201905060208402830185811115620008795762000878620006c1565b5b835b81811015620008a6578062000891888262000825565b8452602084019350506020810190506200087b565b5050509392505050565b600082601f830112620008c857620008c7620005f8565b5b8151620008da8482602086016200083c565b91505092915050565b60008060408385031215620008fd57620008fc620005ee565b5b600083015167ffffffffffffffff8111156200091e576200091d620005f3565b5b6200092c8582860162000775565b925050602083015167ffffffffffffffff81111562000950576200094f620005f3565b5b6200095e85828601620008b0565b9150509250929050565b600082825260208201905092915050565b7f526567697374727920617272617973206d75737420686176652074686520736160008201527f6d65206c656e6774680000000000000000000000000000000000000000000000602082015250565b6000620009d760298362000968565b9150620009e48262000979565b604082019050919050565b6000602082019050818103600083015262000a0a81620009c8565b9050919050565b7f4e487b7100000000000000000000000000000000000000000000000000000000600052603260045260246000fd5b7f4e487b7100000000000000000000000000000000000000000000000000000000600052601160045260246000fd5b6000819050919050565b600062000a868262000a6f565b91507fffffffffffffffffffffffffffffffffffffffffffffffffffffffffffffffff82141562000abc5762000abb62000a40565b5b600182019050919050565b7f496e697469616c697a61626c653a20636f6e747261637420697320616c72656160008201527f647920696e697469616c697a6564000000000000000000000000000000000000602082015250565b600062000b25602e8362000968565b915062000b328262000ac7565b604082019050919050565b6000602082019050818103600083015262000b588162000b16565b9050919050565b6143878062000b6f6000396000f3fe608060405234801561001057600080fd5b50600436106102485760003560e01c80638fb71f881161013b578063c39e4d22116100b8578063f1c621041161007c578063f1c62104146107d0578063f2fde38b146107ee578063fcbb07461461080a578063fde40cb61461083a578063fec98c371461087057610248565b8063c39e4d22146106e0578063db46052214610710578063dc62c99b14610740578063e2af80b614610770578063e9022783146107a057610248565b8063ac53eb69116100ff578063ac53eb6914610618578063ae60d1b914610634578063b9c03fca14610650578063bb814e9e14610680578063c31eac46146106b057610248565b80638fb71f881461054e578063949d9ef01461057e578063a3c02f621461059a578063a9b35240146105cc578063aa73697e146105fc57610248565b8063715018a6116101c95780637b341a7b1161018d5780637b341a7b146104be5780637de6d9e4146104da5780637ee19b591461050a5780638129fc1c146105265780638da5cb5b1461053057610248565b8063715018a614610408578063723a7b5c14610412578063739f047614610442578063745d85c0146104725780637a25bec3146104a257610248565b8063417bd28711610210578063417bd28714610315578063565d66601461034857806357a677ac146103785780635f49d4d1146103a85780636e644f13146103d857610248565b80630e72a0e11461024d5780631c43eb491461027d5780632406cedb146102ad5780632bcc2f23146102c95780633531a04f146102f9575b600080fd5b610267600480360381019061026291906134bc565b6108a0565b60405161027491906134f8565b60405180910390f35b610297600480360381019061029291906134bc565b6108c0565b6040516102a491906135ac565b60405180910390f35b6102c760048036038101906102c2919061362c565b6108fd565b005b6102e360048036038101906102de91906134bc565b6109be565b6040516102f09190613685565b60405180910390f35b610313600480360381019061030e91906136a0565b6109e1565b005b61032f600480360381019061032a91906134bc565b610acd565b60405161033f949392919061371d565b60405180910390f35b610362600480360381019061035d91906134bc565b610b8b565b60405161036f9190613762565b60405180910390f35b610392600480360381019061038d91906134bc565b610bcb565b60405161039f91906134f8565b60405180910390f35b6103c260048036038101906103bd91906134bc565b610cb5565b6040516103cf9190613762565b60405180910390f35b6103f260048036038101906103ed91906137a9565b610cf5565b6040516103ff91906138a7565b60405180910390f35b610410610deb565b005b61042c600480360381019061042791906134bc565b610e73565b60405161043991906134f8565b60405180910390f35b61045c600480360381019061045791906134bc565b610e93565b6040516104699190613762565b60405180910390f35b61048c600480360381019061048791906134bc565b610ec6565b604051610499919061396b565b60405180910390f35b6104bc60048036038101906104b7919061362c565b610fa7565b005b6104d860048036038101906104d3919061362c565b611134565b005b6104f460048036038101906104ef9190613986565b6111df565b60405161050191906138a7565b60405180910390f35b610524600480360381019061051f919061362c565b611335565b005b61052e6114c2565b005b6105386115a3565b6040516105459190613762565b60405180910390f35b610568600480360381019061056391906134bc565b6115cd565b60405161057591906139d9565b60405180910390f35b6105986004803603810190610593919061362c565b6115fa565b005b6105b460048036038101906105af91906134bc565b6116a5565b6040516105c3939291906139f4565b60405180910390f35b6105e660048036038101906105e191906134bc565b611807565b6040516105f391906139d9565b60405180910390f35b6106166004803603810190610611919061362c565b611834565b005b610632600480360381019061062d9190613a2b565b6119c1565b005b61064e6004803603810190610649919061362c565b611bc4565b005b61066a600480360381019061066591906134bc565b611c6f565b60405161067791906135ac565b60405180910390f35b61069a600480360381019061069591906134bc565b611d17565b6040516106a791906139d9565b60405180910390f35b6106ca60048036038101906106c591906134bc565b611d2d565b6040516106d791906134f8565b60405180910390f35b6106fa60048036038101906106f591906134bc565b611df5565b6040516107079190613685565b60405180910390f35b61072a600480360381019061072591906134bc565b611e15565b6040516107379190613762565b60405180910390f35b61075a600480360381019061075591906134bc565b611e55565b6040516107679190613762565b60405180910390f35b61078a600480360381019061078591906134bc565b611e95565b60405161079791906135ac565b60405180910390f35b6107ba60048036038101906107b59190613c68565b611ed2565b6040516107c791906134f8565b60405180910390f35b6107d86124ad565b6040516107e59190613685565b60405180910390f35b61080860048036038101906108039190613d07565b6124ba565b005b610824600480360381019061081f9190613d34565b6125b2565b6040516108319190613762565b60405180910390f35b610854600480360381019061084f91906134bc565b6126d5565b6040516108679796959493929190613d83565b60405180910390f35b61088a60048036038101906108859190613986565b612732565b60405161089791906138a7565b60405180910390f35b600060676000838152602001908152602001600020600201549050919050565b606060006108cd83610bcb565b90506108d8816126d5565b9091929394955090919293945090919293509091925090915090508092505050919050565b60676000838152602001908152602001600020600201546065600082815260200190815260200160002060010160009054906101000a900473ffffffffffffffffffffffffffffffffffffffff1673ffffffffffffffffffffffffffffffffffffffff163373ffffffffffffffffffffffffffffffffffffffff16146109af576040517f45b1c47900000000000000000000000000000000000000000000000000000000815260040160405180910390fd5b6109b98383612886565b505050565b600060656000838152602001908152602001600020600201805490509050919050565b60006109ed84846125b2565b90508073ffffffffffffffffffffffffffffffffffffffff163373ffffffffffffffffffffffffffffffffffffffff1614610a54576040517fbc70757700000000000000000000000000000000000000000000000000000000815260040160405180910390fd5b60008484604051602001610a69929190613e1a565b604051602081830303815290604052805190602001209050610a8b8184612980565b83857f925b3259c7788847816fec2357281352c65ac8d716eb107683d4e7c028e7ec4b8486604051610abe929190613e46565b60405180910390a35050505050565b6000806000806067600086815260200190815260200160002060000160009054906101000a900460ff166067600087815260200190815260200160002060000160019054906101000a900473ffffffffffffffffffffffffffffffffffffffff166067600088815260200190815260200160002060010160009054906101000a900473ffffffffffffffffffffffffffffffffffffffff16606760008981526020019081526020016000206002015493509350935093509193509193565b60006065600083815260200190815260200160002060010160009054906101000a900473ffffffffffffffffffffffffffffffffffffffff169050919050565b6000806000806000610bdc866126d5565b965050955050945050935083610c1e576040517f4825e09300000000000000000000000000000000000000000000000000000000815260040160405180910390fd5b60038360ff161415610c7257600081511415610c66576040517f4825e09300000000000000000000000000000000000000000000000000000000815260040160405180910390fd5b85945050505050610cb0565b60008683604051602001610c87929190613e90565b604051602081830303815290604052805190602001209050610ca881610bcb565b955050505050505b919050565b60006067600083815260200190815260200160002060000160019054906101000a900473ffffffffffffffffffffffffffffffffffffffff169050919050565b6060600060668054905090506000818486610d109190613eeb565b11610d1b5783610d28565b8482610d279190613f41565b5b905060008167ffffffffffffffff811115610d4657610d45613a9c565b5b604051908082528060200260200182016040528015610d745781602001602082028036833780820191505090505b50905060005b82811015610dde5760668188610d909190613eeb565b81548110610da157610da0613f75565b5b9060005260206000200154828281518110610dbf57610dbe613f75565b5b6020026020010181815250508080610dd690613fa4565b915050610d7a565b5080935050505092915050565b610df3612af1565b73ffffffffffffffffffffffffffffffffffffffff16610e116115a3565b73ffffffffffffffffffffffffffffffffffffffff1614610e67576040517f08c379a0000000000000000000000000000000000000000000000000000000008152600401610e5e90614039565b60405180910390fd5b610e716000612af9565b565b600060686000838152602001908152602001600020600101549050919050565b606a6020528060005260406000206000915054906101000a900473ffffffffffffffffffffffffffffffffffffffff1681565b610ece613399565b600060686000848152602001908152602001600020600001549050600060f882901c9050608080821660ff1614610f06576000610f09565b60015b8360000190151590811515815250508260000151610f28575050610fa2565b603f8116836040019060ff16908160ff1681525050604080821660ff1614610f51576000610f54565b60015b8360200190151590811515815250506f01ffffffffffffffffffffffffffffff607983901c168360600181815250506f01ffffffffffffffffffffffffffffff821683608001818152505050505b919050565b816065600082815260200190815260200160002060010160009054906101000a900473ffffffffffffffffffffffffffffffffffffffff1673ffffffffffffffffffffffffffffffffffffffff163373ffffffffffffffffffffffffffffffffffffffff1614611043576040517f45b1c47900000000000000000000000000000000000000000000000000000000815260040160405180910390fd5b60006065600085815260200190815260200160002060010160009054906101000a900473ffffffffffffffffffffffffffffffffffffffff169050826065600086815260200190815260200160002060010160006101000a81548173ffffffffffffffffffffffffffffffffffffffff021916908373ffffffffffffffffffffffffffffffffffffffff1602179055508273ffffffffffffffffffffffffffffffffffffffff168173ffffffffffffffffffffffffffffffffffffffff16857f3fda6cd50fa8d1dbcb1f06215a0c3816cb3a56b4ea508e16ab9ab87d3046937460405160405180910390a450505050565b816067600082815260200190815260200160002060000160019054906101000a900473ffffffffffffffffffffffffffffffffffffffff1673ffffffffffffffffffffffffffffffffffffffff163373ffffffffffffffffffffffffffffffffffffffff16146111d0576040517f2518495200000000000000000000000000000000000000000000000000000000815260040160405180910390fd5b6111da8383612886565b505050565b606060006069600086815260200190815260200160002080548060200260200160405190810160405280929190818152602001828054801561124057602002820191906000526020600020905b81548152602001906001019080831161122c575b50505050509050600081519050600081858761125c9190613eeb565b116112675784611274565b85826112739190613f41565b5b905060008167ffffffffffffffff81111561129257611291613a9c565b5b6040519080825280602002602001820160405280156112c05781602001602082028036833780820191505090505b50905060005b82811015611326578481896112db9190613eeb565b815181106112ec576112eb613f75565b5b602002602001015182828151811061130757611306613f75565b5b602002602001018181525050808061131e90613fa4565b9150506112c6565b50809450505050509392505050565b816065600082815260200190815260200160002060000160019054906101000a900473ffffffffffffffffffffffffffffffffffffffff1673ffffffffffffffffffffffffffffffffffffffff163373ffffffffffffffffffffffffffffffffffffffff16146113d1576040517fcf8c4f6400000000000000000000000000000000000000000000000000000000815260040160405180910390fd5b60006065600085815260200190815260200160002060010160009054906101000a900473ffffffffffffffffffffffffffffffffffffffff169050826065600086815260200190815260200160002060010160006101000a81548173ffffffffffffffffffffffffffffffffffffffff021916908373ffffffffffffffffffffffffffffffffffffffff1602179055508273ffffffffffffffffffffffffffffffffffffffff168173ffffffffffffffffffffffffffffffffffffffff16857f3fda6cd50fa8d1dbcb1f06215a0c3816cb3a56b4ea508e16ab9ab87d3046937460405160405180910390a450505050565b600060019054906101000a900460ff16806114e8575060008054906101000a900460ff16155b611527576040517f08c379a000000000000000000000000000000000000000000000000000000000815260040161151e906140cb565b60405180910390fd5b60008060019054906101000a900460ff161590508015611577576001600060016101000a81548160ff02191690831515021790555060016000806101000a81548160ff0219169083151502179055505b61157f612bbf565b80156115a05760008060016101000a81548160ff0219169083151502179055505b50565b6000603360009054906101000a900473ffffffffffffffffffffffffffffffffffffffff16905090565b60006065600083815260200190815260200160002060000160009054906101000a900460ff169050919050565b816067600082815260200190815260200160002060000160019054906101000a900473ffffffffffffffffffffffffffffffffffffffff1673ffffffffffffffffffffffffffffffffffffffff163373ffffffffffffffffffffffffffffffffffffffff1614611696576040517f2518495200000000000000000000000000000000000000000000000000000000815260040160405180910390fd5b6116a08383612ca8565b505050565b600080600080606560008681526020019081526020016000206040518060800160405290816000820160009054906101000a900460ff161515151581526020016000820160019054906101000a900473ffffffffffffffffffffffffffffffffffffffff1673ffffffffffffffffffffffffffffffffffffffff1673ffffffffffffffffffffffffffffffffffffffff1681526020016001820160009054906101000a900473ffffffffffffffffffffffffffffffffffffffff1673ffffffffffffffffffffffffffffffffffffffff1673ffffffffffffffffffffffffffffffffffffffff168152602001600282018054806020026020016040519081016040528092919081815260200182805480156117df57602002820191906000526020600020905b8154815260200190600101908083116117cb575b5050505050815250509050806000015181602001518260400151935093509350509193909250565b60006067600083815260200190815260200160002060000160009054906101000a900460ff169050919050565b816065600082815260200190815260200160002060000160019054906101000a900473ffffffffffffffffffffffffffffffffffffffff1673ffffffffffffffffffffffffffffffffffffffff163373ffffffffffffffffffffffffffffffffffffffff16146118d0576040517fcf8c4f6400000000000000000000000000000000000000000000000000000000815260040160405180910390fd5b60006065600085815260200190815260200160002060000160019054906101000a900473ffffffffffffffffffffffffffffffffffffffff169050826065600086815260200190815260200160002060000160016101000a81548173ffffffffffffffffffffffffffffffffffffffff021916908373ffffffffffffffffffffffffffffffffffffffff1602179055508273ffffffffffffffffffffffffffffffffffffffff168173ffffffffffffffffffffffffffffffffffffffff16857f85c717197f83952cb105cd53e53ed466b416b7e9f5a40dc530984c4bdb36f7f260405160405180910390a450505050565b836065600082815260200190815260200160002060010160009054906101000a900473ffffffffffffffffffffffffffffffffffffffff1673ffffffffffffffffffffffffffffffffffffffff163373ffffffffffffffffffffffffffffffffffffffff1614611a5d576040517f45b1c47900000000000000000000000000000000000000000000000000000000815260040160405180910390fd5b60008585604051602001611a72929190613e1a565b6040516020818303038152906040528051906020012090506067600082815260200190815260200160002060000160009054906101000a900460ff1615611ae5576040517f6261819600000000000000000000000000000000000000000000000000000000815260040160405180910390fd5b60016067600083815260200190815260200160002060000160006101000a81548160ff021916908315150217905550856067600083815260200190815260200160002060020181905550606560008781526020019081526020016000206002018190806001815401808255809150506001900390600052602060002001600090919091909150558481877f184ba37f65f345dab70812c18dfd46c7488d7e1d5f09fdfc389cb35984d07f0b8787604051611ba0929190613e46565b60405180910390a4611bb28185612886565b611bbc8184612ca8565b505050505050565b816067600082815260200190815260200160002060010160009054906101000a900473ffffffffffffffffffffffffffffffffffffffff1673ffffffffffffffffffffffffffffffffffffffff163373ffffffffffffffffffffffffffffffffffffffff1614611c60576040517f6e65cf1e00000000000000000000000000000000000000000000000000000000815260040160405180910390fd5b611c6a8383612ca8565b505050565b6060606860008381526020019081526020016000206002018054611c929061411a565b80601f0160208091040260200160405190810160405280929190818152602001828054611cbe9061411a565b8015611d0b5780601f10611ce057610100808354040283529160200191611d0b565b820191906000526020600020905b815481529060010190602001808311611cee57829003601f168201915b50505050509050919050565b6000611d2282610ec6565b600001519050919050565b600080600080600080611d3f876126d5565b96505050945094509450945084611d82576040517f4825e09300000000000000000000000000000000000000000000000000000000815260040160405180910390fd5b8380611d9f575060038360ff16148015611d9e57506000815114155b5b15611db1578695505050505050611df0565b60008783604051602001611dc6929190613e90565b604051602081830303815290604052805190602001209050611de781611d2d565b96505050505050505b919050565b600060696000838152602001908152602001600020805490509050919050565b60006065600083815260200190815260200160002060000160019054906101000a900473ffffffffffffffffffffffffffffffffffffffff169050919050565b60006067600083815260200190815260200160002060010160009054906101000a900473ffffffffffffffffffffffffffffffffffffffff169050919050565b60606000611ea283611d2d565b9050611ead816126d5565b9091929394955090919293945090919293509091925090915090508092505050919050565b60006067600086815260200190815260200160002060010160009054906101000a900473ffffffffffffffffffffffffffffffffffffffff1673ffffffffffffffffffffffffffffffffffffffff163373ffffffffffffffffffffffffffffffffffffffff1614611f6f576040517f6e65cf1e00000000000000000000000000000000000000000000000000000000815260040160405180910390fd5b600080611f7b87610ec6565b90508060000151611f9c576001915060018160000190151590811515815250505b600086600081518110611fb257611fb1613f75565b5b602001015160f81c60f81b60f81c905060418160ff161115612000576040517fc6105ff100000000000000000000000000000000000000000000000000000000815260040160405180910390fd5b60038160ff16101561203e576040517f8956e45a00000000000000000000000000000000000000000000000000000000815260040160405180910390fd5b8793506000808060008060038660ff1611905060008060218e0190505b8760ff168460ff16101561231657600184612076919061414c565b9350600160028561208791906141b2565b60ff1614156120cd57805195506020810190506f01ffffffffffffffffffffffffffffff861694506f01ffffffffffffffffffffffffffffff607987901c1695506120d5565b849550600094505b60038460ff16111580156121295750600060f81b8660001b601060208110612100576120ff613f75565b5b1a60f81b7effffffffffffffffffffffffffffffffffffffffffffffffffffffffffffff191614155b15612160576040517fe1c1fe3e00000000000000000000000000000000000000000000000000000000815260040160405180910390fd5b60018460ff161480156121735750600086145b1561217d57600191505b85896060015110156121985785896060018181525050600199505b821580156121a95750858960800151105b156121bd5785896080018181525050600199505b8860200151156121dd576000896020019015159081151581525050600199505b89156121f2576121ed8b8a612da2565b600099505b8a86604051602001612205929190613e90565b604051602081830303815290604052805190602001209a506122268b610ec6565b9850886000015161230c5760018960000190151590811515815250506001995061224f86612e1e565b612285576040517feb48439100000000000000000000000000000000000000000000000000000000815260040160405180910390fd5b83896040019060ff16908160ff1681525050811580156122b6575060028460ff1614806122b5575060038460ff16145b5b80156122bf5750865b80156122cc575060008614155b15612303576040517fc7cbebf500000000000000000000000000000000000000000000000000000000815260040160405180910390fd5b60019650612311565b600096505b61205b565b505050505050600060686000878152602001908152602001600020600201805461233f9061411a565b905014612378576040517fe3847f6400000000000000000000000000000000000000000000000000000000815260040160405180910390fd5b856068600087815260200190815260200160002060020190805190602001906123a29291906133cf565b50606960008a81526020019081526020016000208590806001815401808255809150506001900390600052602060002001600090919091909150556000801b8714612442576123f087612e81565b612426576040517fb441c5e500000000000000000000000000000000000000000000000000000000815260040160405180910390fd5b8660686000878152602001908152602001600020600101819055505b801561245a5760018360200190151590811515815250505b6124648584612da2565b84897f64f62809eba00d9f6aacc66cab2d923315f49a84cf430926b39b8847a3b89cea8a8a8a60405161249993929190614238565b60405180910390a350505050949350505050565b6000606680549050905090565b6124c2612af1565b73ffffffffffffffffffffffffffffffffffffffff166124e06115a3565b73ffffffffffffffffffffffffffffffffffffffff1614612536576040517f08c379a000000000000000000000000000000000000000000000000000000000815260040161252d90614039565b60405180910390fd5b600073ffffffffffffffffffffffffffffffffffffffff168173ffffffffffffffffffffffffffffffffffffffff1614156125a6576040517f08c379a000000000000000000000000000000000000000000000000000000000815260040161259d906142ef565b60405180910390fd5b6125af81612af9565b50565b600080606a600085815260200190815260200160002060009054906101000a900473ffffffffffffffffffffffffffffffffffffffff169050600073ffffffffffffffffffffffffffffffffffffffff168173ffffffffffffffffffffffffffffffffffffffff161415612652576040517fc072668500000000000000000000000000000000000000000000000000000000815260040160405180910390fd5b8073ffffffffffffffffffffffffffffffffffffffff166311d4c3a2846040518263ffffffff1660e01b815260040161268b91906134f8565b602060405180830381865afa1580156126a8573d6000803e3d6000fd5b505050506040513d601f19601f820116820180604052508101906126cc9190614324565b91505092915050565b600080600080600080606060006126eb89610ec6565b90508060000151816020015182604001518360600151846080015161270f8e610e73565b6127188f611c6f565b975097509750975097509750975050919395979092949650565b606060006065600086815260200190815260200160002060020180548060200260200160405190810160405280929190818152602001828054801561279657602002820191906000526020600020905b815481526020019060010190808311612782575b505050505090506000815184866127ad9190613eeb565b116127b857836127c6565b8482516127c59190613f41565b5b905060008167ffffffffffffffff8111156127e4576127e3613a9c565b5b6040519080825280602002602001820160405280156128125781602001602082028036833780820191505090505b50905060005b828110156128785783818861282d9190613eeb565b8151811061283e5761283d613f75565b5b602002602001015182828151811061285957612858613f75565b5b602002602001018181525050808061287090613fa4565b915050612818565b508093505050509392505050565b60006067600084815260200190815260200160002060000160019054906101000a900473ffffffffffffffffffffffffffffffffffffffff169050816067600085815260200190815260200160002060000160016101000a81548173ffffffffffffffffffffffffffffffffffffffff021916908373ffffffffffffffffffffffffffffffffffffffff1602179055508173ffffffffffffffffffffffffffffffffffffffff168173ffffffffffffffffffffffffffffffffffffffff167f6aa62eccb78c33066e1cfdc6f24eb705e9dac6d8e10a55b780b45f99612ab8368560405161297391906134f8565b60405180910390a3505050565b6065600083815260200190815260200160002060000160009054906101000a900460ff16612a0157606682908060018154018082558091505060019003906000526020600020016000909190919091505560016065600084815260200190815260200160002060000160006101000a81548160ff0219169083151502179055505b60006065600084815260200190815260200160002060000160019054906101000a900473ffffffffffffffffffffffffffffffffffffffff169050816065600085815260200190815260200160002060000160016101000a81548173ffffffffffffffffffffffffffffffffffffffff021916908373ffffffffffffffffffffffffffffffffffffffff1602179055508173ffffffffffffffffffffffffffffffffffffffff168173ffffffffffffffffffffffffffffffffffffffff16847f85c717197f83952cb105cd53e53ed466b416b7e9f5a40dc530984c4bdb36f7f260405160405180910390a4505050565b600033905090565b6000603360009054906101000a900473ffffffffffffffffffffffffffffffffffffffff16905081603360006101000a81548173ffffffffffffffffffffffffffffffffffffffff021916908373ffffffffffffffffffffffffffffffffffffffff1602179055508173ffffffffffffffffffffffffffffffffffffffff168173ffffffffffffffffffffffffffffffffffffffff167f8be0079c531659141344cd1fd0a4f28419497f9722a3daafe3b4186f6b6457e060405160405180910390a35050565b600060019054906101000a900460ff1680612be5575060008054906101000a900460ff16155b612c24576040517f08c379a0000000000000000000000000000000000000000000000000000000008152600401612c1b906140cb565b60405180910390fd5b60008060019054906101000a900460ff161590508015612c74576001600060016101000a81548160ff02191690831515021790555060016000806101000a81548160ff0219169083151502179055505b612c7c613155565b612c8461322e565b8015612ca55760008060016101000a81548160ff0219169083151502179055505b50565b60006067600084815260200190815260200160002060010160009054906101000a900473ffffffffffffffffffffffffffffffffffffffff169050816067600085815260200190815260200160002060010160006101000a81548173ffffffffffffffffffffffffffffffffffffffff021916908373ffffffffffffffffffffffffffffffffffffffff1602179055508173ffffffffffffffffffffffffffffffffffffffff168173ffffffffffffffffffffffffffffffffffffffff167fba1fae2fef052a7dbeb9a9f7b6a18291f8db075f74830fafa39224cb46b7862a85604051612d9591906134f8565b60405180910390a3505050565b600060078260000151612db6576000612db9565b60015b60ff16901b60068360200151612dd0576000612dd3565b60015b60ff16901b836040015117179050600060798360600151901b836080015160f88460ff16901b1717905080606860008681526020019081526020016000206000018190555050505050565b60008060f81b8260001b601060208110612e3b57612e3a613f75565b5b1a60f81b7effffffffffffffffffffffffffffffffffffffffffffffffffffffffffffff19161415612e705760019050612e7c565b612e7982613317565b90505b919050565b6000806000905060005b602081101561314957600060f81b848260208110612eac57612eab613f75565b5b1a60f81b7effffffffffffffffffffffffffffffffffffffffffffffffffffffffffffff19161415612ee15760019150613136565b818015612f2a5750600060f81b848260208110612f0157612f00613f75565b5b1a60f81b7effffffffffffffffffffffffffffffffffffffffffffffffffffffffffffff191614155b15612f3a57600092505050613150565b603060f81b848260208110612f5257612f51613f75565b5b1a60f81b7effffffffffffffffffffffffffffffffffffffffffffffffffffffffffffff191610158015612fc25750603960f81b848260208110612f9957612f98613f75565b5b1a60f81b7effffffffffffffffffffffffffffffffffffffffffffffffffffffffffffff191611155b806130515750604160f81b848260208110612fe057612fdf613f75565b5b1a60f81b7effffffffffffffffffffffffffffffffffffffffffffffffffffffffffffff1916101580156130505750605a60f81b84826020811061302757613026613f75565b5b1a60f81b7effffffffffffffffffffffffffffffffffffffffffffffffffffffffffffff191611155b5b806130e05750606160f81b84826020811061306f5761306e613f75565b5b1a60f81b7effffffffffffffffffffffffffffffffffffffffffffffffffffffffffffff1916101580156130df5750607a60f81b8482602081106130b6576130b5613f75565b5b1a60f81b7effffffffffffffffffffffffffffffffffffffffffffffffffffffffffffff191611155b5b806131265750602d60f81b8482602081106130fe576130fd613f75565b5b1a60f81b7effffffffffffffffffffffffffffffffffffffffffffffffffffffffffffff1916145b61313557600092505050613150565b5b808061314190613fa4565b915050612e8b565b5060019150505b919050565b600060019054906101000a900460ff168061317b575060008054906101000a900460ff16155b6131ba576040517f08c379a00000000000000000000000000000000000000000000000000000000081526004016131b1906140cb565b60405180910390fd5b60008060019054906101000a900460ff16159050801561320a576001600060016101000a81548160ff02191690831515021790555060016000806101000a81548160ff0219169083151502179055505b801561322b5760008060016101000a81548160ff0219169083151502179055505b50565b600060019054906101000a900460ff1680613254575060008054906101000a900460ff16155b613293576040517f08c379a000000000000000000000000000000000000000000000000000000000815260040161328a906140cb565b60405180910390fd5b60008060019054906101000a900460ff1615905080156132e3576001600060016101000a81548160ff02191690831515021790555060016000806101000a81548160ff0219169083151502179055505b6132f36132ee612af1565b612af9565b80156133145760008060016101000a81548160ff0219169083151502179055505b50565b6000806000905060006effffffffffffffffffffffffffffff841693505b607881101561338e576000603f8286901c1690506006826133569190613eeb565b91506000811461336a576001925050613335565b8280156133775750600081145b156133885760009350505050613394565b50613335565b81925050505b919050565b6040518060a00160405280600015158152602001600015158152602001600060ff16815260200160008152602001600081525090565b8280546133db9061411a565b90600052602060002090601f0160209004810192826133fd5760008555613444565b82601f1061341657805160ff1916838001178555613444565b82800160010185558215613444579182015b82811115613443578251825591602001919060010190613428565b5b5090506134519190613455565b5090565b5b8082111561346e576000816000905550600101613456565b5090565b6000604051905090565b600080fd5b600080fd5b6000819050919050565b61349981613486565b81146134a457600080fd5b50565b6000813590506134b681613490565b92915050565b6000602082840312156134d2576134d161347c565b5b60006134e0848285016134a7565b91505092915050565b6134f281613486565b82525050565b600060208201905061350d60008301846134e9565b92915050565b600081519050919050565b600082825260208201905092915050565b60005b8381101561354d578082015181840152602081019050613532565b8381111561355c576000848401525b50505050565b6000601f19601f8301169050919050565b600061357e82613513565b613588818561351e565b935061359881856020860161352f565b6135a181613562565b840191505092915050565b600060208201905081810360008301526135c68184613573565b905092915050565b600073ffffffffffffffffffffffffffffffffffffffff82169050919050565b60006135f9826135ce565b9050919050565b613609816135ee565b811461361457600080fd5b50565b60008135905061362681613600565b92915050565b600080604083850312156136435761364261347c565b5b6000613651858286016134a7565b925050602061366285828601613617565b9150509250929050565b6000819050919050565b61367f8161366c565b82525050565b600060208201905061369a6000830184613676565b92915050565b6000806000606084860312156136b9576136b861347c565b5b60006136c7868287016134a7565b93505060206136d8868287016134a7565b92505060406136e986828701613617565b9150509250925092565b60008115159050919050565b613708816136f3565b82525050565b613717816135ee565b82525050565b600060808201905061373260008301876136ff565b61373f602083018661370e565b61374c604083018561370e565b61375960608301846134e9565b95945050505050565b6000602082019050613777600083018461370e565b92915050565b6137868161366c565b811461379157600080fd5b50565b6000813590506137a38161377d565b92915050565b600080604083850312156137c0576137bf61347c565b5b60006137ce85828601613794565b92505060206137df85828601613794565b9150509250929050565b600081519050919050565b600082825260208201905092915050565b6000819050602082019050919050565b61381e81613486565b82525050565b60006138308383613815565b60208301905092915050565b6000602082019050919050565b6000613854826137e9565b61385e81856137f4565b935061386983613805565b8060005b8381101561389a5781516138818882613824565b975061388c8361383c565b92505060018101905061386d565b5085935050505092915050565b600060208201905081810360008301526138c18184613849565b905092915050565b6138d2816136f3565b82525050565b600060ff82169050919050565b6138ee816138d8565b82525050565b6138fd8161366c565b82525050565b60a08201600082015161391960008501826138c9565b50602082015161392c60208501826138c9565b50604082015161393f60408501826138e5565b50606082015161395260608501826138f4565b50608082015161396560808501826138f4565b50505050565b600060a0820190506139806000830184613903565b92915050565b60008060006060848603121561399f5761399e61347c565b5b60006139ad868287016134a7565b93505060206139be86828701613794565b92505060406139cf86828701613794565b9150509250925092565b60006020820190506139ee60008301846136ff565b92915050565b6000606082019050613a0960008301866136ff565b613a16602083018561370e565b613a23604083018461370e565b949350505050565b60008060008060808587031215613a4557613a4461347c565b5b6000613a53878288016134a7565b9450506020613a64878288016134a7565b9350506040613a7587828801613617565b9250506060613a8687828801613617565b91505092959194509250565b600080fd5b600080fd5b7f4e487b7100000000000000000000000000000000000000000000000000000000600052604160045260246000fd5b613ad482613562565b810181811067ffffffffffffffff82111715613af357613af2613a9c565b5b80604052505050565b6000613b06613472565b9050613b128282613acb565b919050565b600067ffffffffffffffff821115613b3257613b31613a9c565b5b613b3b82613562565b9050602081019050919050565b82818337600083830152505050565b6000613b6a613b6584613b17565b613afc565b905082815260208101848484011115613b8657613b85613a97565b5b613b91848285613b48565b509392505050565b600082601f830112613bae57613bad613a92565b5b8135613bbe848260208601613b57565b91505092915050565b600067ffffffffffffffff821115613be257613be1613a9c565b5b613beb82613562565b9050602081019050919050565b6000613c0b613c0684613bc7565b613afc565b905082815260208101848484011115613c2757613c26613a97565b5b613c32848285613b48565b509392505050565b600082601f830112613c4f57613c4e613a92565b5b8135613c5f848260208601613bf8565b91505092915050565b60008060008060808587031215613c8257613c8161347c565b5b6000613c90878288016134a7565b945050602085013567ffffffffffffffff811115613cb157613cb0613481565b5b613cbd87828801613b99565b9350506040613cce878288016134a7565b925050606085013567ffffffffffffffff811115613cef57613cee613481565b5b613cfb87828801613c3a565b91505092959194509250565b600060208284031215613d1d57613d1c61347c565b5b6000613d2b84828501613617565b91505092915050565b60008060408385031215613d4b57613d4a61347c565b5b6000613d59858286016134a7565b9250506020613d6a858286016134a7565b9150509250929050565b613d7d816138d8565b82525050565b600060e082019050613d98600083018a6136ff565b613da560208301896136ff565b613db26040830188613d74565b613dbf6060830187613676565b613dcc6080830186613676565b613dd960a08301856134e9565b81810360c0830152613deb8184613573565b905098975050505050505050565b6000819050919050565b613e14613e0f82613486565b613df9565b82525050565b6000613e268285613e03565b602082019150613e368284613e03565b6020820191508190509392505050565b6000604082019050613e5b600083018561370e565b613e68602083018461370e565b9392505050565b6000819050919050565b613e8a613e858261366c565b613e6f565b82525050565b6000613e9c8285613e03565b602082019150613eac8284613e79565b6020820191508190509392505050565b7f4e487b7100000000000000000000000000000000000000000000000000000000600052601160045260246000fd5b6000613ef68261366c565b9150613f018361366c565b9250827fffffffffffffffffffffffffffffffffffffffffffffffffffffffffffffffff03821115613f3657613f35613ebc565b5b828201905092915050565b6000613f4c8261366c565b9150613f578361366c565b925082821015613f6a57613f69613ebc565b5b828203905092915050565b7f4e487b7100000000000000000000000000000000000000000000000000000000600052603260045260246000fd5b6000613faf8261366c565b91507fffffffffffffffffffffffffffffffffffffffffffffffffffffffffffffffff821415613fe257613fe1613ebc565b5b600182019050919050565b7f4f776e61626c653a2063616c6c6572206973206e6f7420746865206f776e6572600082015250565b600061402360208361351e565b915061402e82613fed565b602082019050919050565b6000602082019050818103600083015261405281614016565b9050919050565b7f496e697469616c697a61626c653a20636f6e747261637420697320616c72656160008201527f647920696e697469616c697a6564000000000000000000000000000000000000602082015250565b60006140b5602e8361351e565b91506140c082614059565b604082019050919050565b600060208201905081810360008301526140e4816140a8565b9050919050565b7f4e487b7100000000000000000000000000000000000000000000000000000000600052602260045260246000fd5b6000600282049050600182168061413257607f821691505b60208210811415614146576141456140eb565b5b50919050565b6000614157826138d8565b9150614162836138d8565b92508260ff0382111561417857614177613ebc565b5b828201905092915050565b7f4e487b7100000000000000000000000000000000000000000000000000000000600052601260045260246000fd5b60006141bd826138d8565b91506141c8836138d8565b9250826141d8576141d7614183565b5b828206905092915050565b600081519050919050565b600082825260208201905092915050565b600061420a826141e3565b61421481856141ee565b935061422481856020860161352f565b61422d81613562565b840191505092915050565b6000606082019050818103600083015261425281866141ff565b905061426160208301856134e9565b81810360408301526142738184613573565b9050949350505050565b7f4f776e61626c653a206e6577206f776e657220697320746865207a65726f206160008201527f6464726573730000000000000000000000000000000000000000000000000000602082015250565b60006142d960268361351e565b91506142e48261427d565b604082019050919050565b60006020820190508181036000830152614308816142cc565b9050919050565b60008151905061431e81613600565b92915050565b60006020828403121561433a5761433961347c565b5b60006143488482850161430f565b9150509291505056fea2646970667358221220731999a30fada2a3b77f24d40ffb37e53aac0c255945832747f11a98e5c8a1c664736f6c634300080a0033",
  "devdoc": {
    "kind": "dev",
    "methods": {
      "owner()": {
        "details": "Returns the address of the current owner."
      },
      "publishVersion(bytes32,bytes,bytes32,string)": {
        "details": "Publish a new version of a package.",
        "params": {
          "buildMetadata": "Metadata for the build of the version.",
          "location": "The IPFS hash where the contents of the version are stored.",
          "packageId": "The ID of a package.",
          "versionBytes": "The encoded bytes of a version string. The first byte is the number of identifiers (3-15). The rest of the bytes are base64 encoded identifiers. Identifiers are grouped two by two. Two identifiers per 32 bytes. 14 bits = empty 1 bit = isLatestPrereleaseAlphanumeric 120 bits = latestPrereleaseVersion; 1 bit = isLatestReleaseAlphanumeric 120 bits = latestReleaseVersion;"
        },
        "returns": {
          "nodeId": "ID of the published version."
        }
      },
      "renounceOwnership()": {
        "details": "Leaves the contract without owner. It will not be possible to call `onlyOwner` functions anymore. Can only be called by the current owner. NOTE: Renouncing ownership will leave the contract without an owner, thereby removing any functionality that is only available to the owner."
      },
      "transferOwnership(address)": {
        "details": "Transfers ownership of the contract to a new account (`newOwner`). Can only be called by the current owner."
      },
      "version(bytes32)": {
        "details": "Get the details of a version node.",
        "params": {
          "nodeId": "The ID of a version."
        },
        "returns": {
          "buildMetadata": "Metadata for the build of the version.",
          "exists": "Boolean indicating whether or not the node exists.",
          "latestPrereleaseVersion": "The identifier of the latest prerelease version.",
          "latestReleaseVersion": "The identifier of the latest release version.",
          "leaf": "Boolean indicating whether the node is a leaf node (does not contain children).",
          "level": "The level of the identifier for the node.",
          "location": "The IPFS hash where the contents of the version are stored."
        }
      }
    },
    "version": 1
  },
  "userdoc": {
    "kind": "user",
    "methods": {},
    "version": 1
  },
  "storageLayout": {
    "storage": [
      {
        "astId": 5320,
        "contract": "contracts/versioning/registry/v1/PolywrapRegistryV1.sol:PolywrapRegistryV1",
        "label": "_initialized",
        "offset": 0,
        "slot": "0",
        "type": "t_bool"
      },
      {
        "astId": 5323,
        "contract": "contracts/versioning/registry/v1/PolywrapRegistryV1.sol:PolywrapRegistryV1",
        "label": "_initializing",
        "offset": 1,
        "slot": "0",
        "type": "t_bool"
      },
      {
        "astId": 5403,
        "contract": "contracts/versioning/registry/v1/PolywrapRegistryV1.sol:PolywrapRegistryV1",
        "label": "__gap",
        "offset": 0,
        "slot": "1",
        "type": "t_array(t_uint256)50_storage"
      },
      {
        "astId": 5199,
        "contract": "contracts/versioning/registry/v1/PolywrapRegistryV1.sol:PolywrapRegistryV1",
        "label": "_owner",
        "offset": 0,
        "slot": "51",
        "type": "t_address"
      },
      {
        "astId": 5313,
        "contract": "contracts/versioning/registry/v1/PolywrapRegistryV1.sol:PolywrapRegistryV1",
        "label": "__gap",
        "offset": 0,
        "slot": "52",
        "type": "t_array(t_uint256)49_storage"
      },
      {
        "astId": 11530,
        "contract": "contracts/versioning/registry/v1/PolywrapRegistryV1.sol:PolywrapRegistryV1",
        "label": "organizations",
        "offset": 0,
        "slot": "101",
        "type": "t_mapping(t_bytes32,t_struct(Organization)11516_storage)"
      },
      {
        "astId": 11533,
        "contract": "contracts/versioning/registry/v1/PolywrapRegistryV1.sol:PolywrapRegistryV1",
        "label": "organizationList",
        "offset": 0,
        "slot": "102",
        "type": "t_array(t_bytes32)dyn_storage"
      },
      {
        "astId": 11538,
        "contract": "contracts/versioning/registry/v1/PolywrapRegistryV1.sol:PolywrapRegistryV1",
        "label": "packages",
        "offset": 0,
        "slot": "103",
        "type": "t_mapping(t_bytes32,t_struct(Package)11525_storage)"
      },
      {
        "astId": 12336,
        "contract": "contracts/versioning/registry/v1/PolywrapRegistryV1.sol:PolywrapRegistryV1",
        "label": "versionNodes",
        "offset": 0,
        "slot": "104",
        "type": "t_mapping(t_bytes32,t_struct(VersionNode)12331_storage)"
      },
      {
        "astId": 12341,
        "contract": "contracts/versioning/registry/v1/PolywrapRegistryV1.sol:PolywrapRegistryV1",
        "label": "packageVersionLists",
        "offset": 0,
        "slot": "105",
        "type": "t_mapping(t_bytes32,t_array(t_bytes32)dyn_storage)"
      },
      {
        "astId": 11358,
        "contract": "contracts/versioning/registry/v1/PolywrapRegistryV1.sol:PolywrapRegistryV1",
        "label": "domainRegistryLinks",
        "offset": 0,
        "slot": "106",
        "type": "t_mapping(t_bytes32,t_address)"
      }
    ],
    "types": {
      "t_address": {
        "encoding": "inplace",
        "label": "address",
        "numberOfBytes": "20"
      },
      "t_array(t_bytes32)dyn_storage": {
        "base": "t_bytes32",
        "encoding": "dynamic_array",
        "label": "bytes32[]",
        "numberOfBytes": "32"
      },
      "t_array(t_uint256)49_storage": {
        "base": "t_uint256",
        "encoding": "inplace",
        "label": "uint256[49]",
        "numberOfBytes": "1568"
      },
      "t_array(t_uint256)50_storage": {
        "base": "t_uint256",
        "encoding": "inplace",
        "label": "uint256[50]",
        "numberOfBytes": "1600"
      },
      "t_bool": {
        "encoding": "inplace",
        "label": "bool",
        "numberOfBytes": "1"
      },
      "t_bytes32": {
        "encoding": "inplace",
        "label": "bytes32",
        "numberOfBytes": "32"
      },
      "t_mapping(t_bytes32,t_address)": {
        "encoding": "mapping",
        "key": "t_bytes32",
        "label": "mapping(bytes32 => address)",
        "numberOfBytes": "32",
        "value": "t_address"
      },
      "t_mapping(t_bytes32,t_array(t_bytes32)dyn_storage)": {
        "encoding": "mapping",
        "key": "t_bytes32",
        "label": "mapping(bytes32 => bytes32[])",
        "numberOfBytes": "32",
        "value": "t_array(t_bytes32)dyn_storage"
      },
      "t_mapping(t_bytes32,t_struct(Organization)11516_storage)": {
        "encoding": "mapping",
        "key": "t_bytes32",
        "label": "mapping(bytes32 => struct PackageRegistryV1.Organization)",
        "numberOfBytes": "32",
        "value": "t_struct(Organization)11516_storage"
      },
      "t_mapping(t_bytes32,t_struct(Package)11525_storage)": {
        "encoding": "mapping",
        "key": "t_bytes32",
        "label": "mapping(bytes32 => struct PackageRegistryV1.Package)",
        "numberOfBytes": "32",
        "value": "t_struct(Package)11525_storage"
      },
      "t_mapping(t_bytes32,t_struct(VersionNode)12331_storage)": {
        "encoding": "mapping",
        "key": "t_bytes32",
        "label": "mapping(bytes32 => struct VersionRegistryV1.VersionNode)",
        "numberOfBytes": "32",
        "value": "t_struct(VersionNode)12331_storage"
      },
      "t_string_storage": {
        "encoding": "bytes",
        "label": "string",
        "numberOfBytes": "32"
      },
      "t_struct(Organization)11516_storage": {
        "encoding": "inplace",
        "label": "struct PackageRegistryV1.Organization",
        "members": [
          {
            "astId": 11508,
            "contract": "contracts/versioning/registry/v1/PolywrapRegistryV1.sol:PolywrapRegistryV1",
            "label": "exists",
            "offset": 0,
            "slot": "0",
            "type": "t_bool"
          },
          {
            "astId": 11510,
            "contract": "contracts/versioning/registry/v1/PolywrapRegistryV1.sol:PolywrapRegistryV1",
            "label": "owner",
            "offset": 1,
            "slot": "0",
            "type": "t_address"
          },
          {
            "astId": 11512,
            "contract": "contracts/versioning/registry/v1/PolywrapRegistryV1.sol:PolywrapRegistryV1",
            "label": "controller",
            "offset": 0,
            "slot": "1",
            "type": "t_address"
          },
          {
            "astId": 11515,
            "contract": "contracts/versioning/registry/v1/PolywrapRegistryV1.sol:PolywrapRegistryV1",
            "label": "packageList",
            "offset": 0,
            "slot": "2",
            "type": "t_array(t_bytes32)dyn_storage"
          }
        ],
        "numberOfBytes": "96"
      },
      "t_struct(Package)11525_storage": {
        "encoding": "inplace",
        "label": "struct PackageRegistryV1.Package",
        "members": [
          {
            "astId": 11518,
            "contract": "contracts/versioning/registry/v1/PolywrapRegistryV1.sol:PolywrapRegistryV1",
            "label": "exists",
            "offset": 0,
            "slot": "0",
            "type": "t_bool"
          },
          {
            "astId": 11520,
            "contract": "contracts/versioning/registry/v1/PolywrapRegistryV1.sol:PolywrapRegistryV1",
            "label": "owner",
            "offset": 1,
            "slot": "0",
            "type": "t_address"
          },
          {
            "astId": 11522,
            "contract": "contracts/versioning/registry/v1/PolywrapRegistryV1.sol:PolywrapRegistryV1",
            "label": "controller",
            "offset": 0,
            "slot": "1",
            "type": "t_address"
          },
          {
            "astId": 11524,
            "contract": "contracts/versioning/registry/v1/PolywrapRegistryV1.sol:PolywrapRegistryV1",
            "label": "organizationId",
            "offset": 0,
            "slot": "2",
            "type": "t_bytes32"
          }
        ],
        "numberOfBytes": "96"
      },
      "t_struct(VersionNode)12331_storage": {
        "encoding": "inplace",
        "label": "struct VersionRegistryV1.VersionNode",
        "members": [
          {
            "astId": 12326,
            "contract": "contracts/versioning/registry/v1/PolywrapRegistryV1.sol:PolywrapRegistryV1",
            "label": "versionMetadata",
            "offset": 0,
            "slot": "0",
            "type": "t_uint256"
          },
          {
            "astId": 12328,
            "contract": "contracts/versioning/registry/v1/PolywrapRegistryV1.sol:PolywrapRegistryV1",
            "label": "buildMetadata",
            "offset": 0,
            "slot": "1",
            "type": "t_bytes32"
          },
          {
            "astId": 12330,
            "contract": "contracts/versioning/registry/v1/PolywrapRegistryV1.sol:PolywrapRegistryV1",
            "label": "location",
            "offset": 0,
            "slot": "2",
            "type": "t_string_storage"
          }
        ],
        "numberOfBytes": "96"
      },
      "t_uint256": {
        "encoding": "inplace",
        "label": "uint256",
        "numberOfBytes": "32"
      }
    }
  }
}